{
  "_format": "hh-sol-artifact-1",
  "contractName": "HalloweenBears",
  "sourceName": "contracts/1_HalloweenBears.sol",
  "abi": [
    {
      "inputs": [
        {
          "internalType": "string",
          "name": "name_",
          "type": "string"
        },
        {
          "internalType": "string",
          "name": "symbol_",
          "type": "string"
        },
        {
          "internalType": "string",
          "name": "baseURI_",
          "type": "string"
        }
      ],
      "stateMutability": "nonpayable",
      "type": "constructor"
    },
    {
      "anonymous": false,
      "inputs": [
        {
          "indexed": true,
          "internalType": "address",
          "name": "owner",
          "type": "address"
        },
        {
          "indexed": true,
          "internalType": "address",
          "name": "approved",
          "type": "address"
        },
        {
          "indexed": true,
          "internalType": "uint256",
          "name": "tokenId",
          "type": "uint256"
        }
      ],
      "name": "Approval",
      "type": "event"
    },
    {
      "anonymous": false,
      "inputs": [
        {
          "indexed": true,
          "internalType": "address",
          "name": "owner",
          "type": "address"
        },
        {
          "indexed": true,
          "internalType": "address",
          "name": "operator",
          "type": "address"
        },
        {
          "indexed": false,
          "internalType": "bool",
          "name": "approved",
          "type": "bool"
        }
      ],
      "name": "ApprovalForAll",
      "type": "event"
    },
    {
      "anonymous": false,
      "inputs": [
        {
          "indexed": true,
          "internalType": "address",
          "name": "sender",
          "type": "address"
        },
        {
          "indexed": false,
          "internalType": "uint256",
          "name": "startWith",
          "type": "uint256"
        },
        {
          "indexed": false,
          "internalType": "uint256",
          "name": "times",
          "type": "uint256"
        }
      ],
      "name": "MintBear",
      "type": "event"
    },
    {
      "anonymous": false,
      "inputs": [
        {
          "indexed": true,
          "internalType": "address",
          "name": "previousOwner",
          "type": "address"
        },
        {
          "indexed": true,
          "internalType": "address",
          "name": "newOwner",
          "type": "address"
        }
      ],
      "name": "OwnershipTransferred",
      "type": "event"
    },
    {
      "anonymous": false,
      "inputs": [
        {
          "indexed": true,
          "internalType": "address",
          "name": "from",
          "type": "address"
        },
        {
          "indexed": true,
          "internalType": "address",
          "name": "to",
          "type": "address"
        },
        {
          "indexed": true,
          "internalType": "uint256",
          "name": "tokenId",
          "type": "uint256"
        }
      ],
      "name": "Transfer",
      "type": "event"
    },
    {
      "inputs": [
        {
          "internalType": "address",
          "name": "to",
          "type": "address"
        },
        {
          "internalType": "uint256",
          "name": "tokenId",
          "type": "uint256"
        }
      ],
      "name": "approve",
      "outputs": [],
      "stateMutability": "nonpayable",
      "type": "function"
    },
    {
      "inputs": [
        {
          "internalType": "address",
          "name": "owner",
          "type": "address"
        }
      ],
      "name": "balanceOf",
      "outputs": [
        {
          "internalType": "uint256",
          "name": "",
          "type": "uint256"
        }
      ],
      "stateMutability": "view",
      "type": "function"
    },
    {
      "inputs": [],
      "name": "baseURI",
      "outputs": [
        {
          "internalType": "string",
          "name": "",
          "type": "string"
        }
      ],
      "stateMutability": "view",
      "type": "function"
    },
    {
      "inputs": [
        {
          "internalType": "uint256",
          "name": "tokenId",
          "type": "uint256"
        }
      ],
      "name": "getApproved",
      "outputs": [
        {
          "internalType": "address",
          "name": "",
          "type": "address"
        }
      ],
      "stateMutability": "view",
      "type": "function"
    },
    {
      "inputs": [
        {
          "internalType": "address",
          "name": "owner",
          "type": "address"
        },
        {
          "internalType": "address",
          "name": "operator",
          "type": "address"
        }
      ],
      "name": "isApprovedForAll",
      "outputs": [
        {
          "internalType": "bool",
          "name": "",
          "type": "bool"
        }
      ],
      "stateMutability": "view",
      "type": "function"
    },
    {
      "inputs": [],
      "name": "maxBatch",
      "outputs": [
        {
          "internalType": "uint256",
          "name": "",
          "type": "uint256"
        }
      ],
      "stateMutability": "view",
      "type": "function"
    },
    {
      "inputs": [
        {
          "internalType": "uint256",
          "name": "_times",
          "type": "uint256"
        }
      ],
      "name": "mint",
      "outputs": [],
      "stateMutability": "payable",
      "type": "function"
    },
    {
      "inputs": [],
      "name": "name",
      "outputs": [
        {
          "internalType": "string",
          "name": "",
          "type": "string"
        }
      ],
      "stateMutability": "view",
      "type": "function"
    },
    {
      "inputs": [],
      "name": "owner",
      "outputs": [
        {
          "internalType": "address",
          "name": "",
          "type": "address"
        }
      ],
      "stateMutability": "view",
      "type": "function"
    },
    {
      "inputs": [
        {
          "internalType": "uint256",
          "name": "tokenId",
          "type": "uint256"
        }
      ],
      "name": "ownerOf",
      "outputs": [
        {
          "internalType": "address",
          "name": "",
          "type": "address"
        }
      ],
      "stateMutability": "view",
      "type": "function"
    },
    {
      "inputs": [],
      "name": "price",
      "outputs": [
        {
          "internalType": "uint256",
          "name": "",
          "type": "uint256"
        }
      ],
      "stateMutability": "view",
      "type": "function"
    },
    {
      "inputs": [],
      "name": "renounceOwnership",
      "outputs": [],
      "stateMutability": "nonpayable",
      "type": "function"
    },
    {
      "inputs": [
        {
          "internalType": "address",
          "name": "from",
          "type": "address"
        },
        {
          "internalType": "address",
          "name": "to",
          "type": "address"
        },
        {
          "internalType": "uint256",
          "name": "tokenId",
          "type": "uint256"
        }
      ],
      "name": "safeTransferFrom",
      "outputs": [],
      "stateMutability": "nonpayable",
      "type": "function"
    },
    {
      "inputs": [
        {
          "internalType": "address",
          "name": "from",
          "type": "address"
        },
        {
          "internalType": "address",
          "name": "to",
          "type": "address"
        },
        {
          "internalType": "uint256",
          "name": "tokenId",
          "type": "uint256"
        },
        {
          "internalType": "bytes",
          "name": "_data",
          "type": "bytes"
        }
      ],
      "name": "safeTransferFrom",
      "outputs": [],
      "stateMutability": "nonpayable",
      "type": "function"
    },
    {
      "inputs": [
        {
          "internalType": "address",
          "name": "operator",
          "type": "address"
        },
        {
          "internalType": "bool",
          "name": "approved",
          "type": "bool"
        }
      ],
      "name": "setApprovalForAll",
      "outputs": [],
      "stateMutability": "nonpayable",
      "type": "function"
    },
    {
      "inputs": [
        {
          "internalType": "string",
          "name": "_newURI",
          "type": "string"
        }
      ],
      "name": "setBaseURI",
      "outputs": [],
      "stateMutability": "nonpayable",
      "type": "function"
    },
    {
      "inputs": [
        {
          "internalType": "bool",
          "name": "_start",
          "type": "bool"
        }
      ],
      "name": "setStart",
      "outputs": [],
      "stateMutability": "nonpayable",
      "type": "function"
    },
    {
      "inputs": [
        {
          "internalType": "bytes4",
          "name": "interfaceId",
          "type": "bytes4"
        }
      ],
      "name": "supportsInterface",
      "outputs": [
        {
          "internalType": "bool",
          "name": "",
          "type": "bool"
        }
      ],
      "stateMutability": "view",
      "type": "function"
    },
    {
      "inputs": [],
      "name": "symbol",
      "outputs": [
        {
          "internalType": "string",
          "name": "",
          "type": "string"
        }
      ],
      "stateMutability": "view",
      "type": "function"
    },
    {
      "inputs": [
        {
          "internalType": "uint256",
          "name": "index",
          "type": "uint256"
        }
      ],
      "name": "tokenByIndex",
      "outputs": [
        {
          "internalType": "uint256",
          "name": "",
          "type": "uint256"
        }
      ],
      "stateMutability": "view",
      "type": "function"
    },
    {
      "inputs": [
        {
          "internalType": "address",
          "name": "owner",
          "type": "address"
        },
        {
          "internalType": "uint256",
          "name": "index",
          "type": "uint256"
        }
      ],
      "name": "tokenOfOwnerByIndex",
      "outputs": [
        {
          "internalType": "uint256",
          "name": "",
          "type": "uint256"
        }
      ],
      "stateMutability": "view",
      "type": "function"
    },
    {
      "inputs": [
        {
          "internalType": "uint256",
          "name": "tokenId",
          "type": "uint256"
        }
      ],
      "name": "tokenURI",
      "outputs": [
        {
          "internalType": "string",
          "name": "",
          "type": "string"
        }
      ],
      "stateMutability": "view",
      "type": "function"
    },
    {
      "inputs": [
        {
          "internalType": "address",
          "name": "owner",
          "type": "address"
        }
      ],
      "name": "tokensOfOwner",
      "outputs": [
        {
          "internalType": "uint256[]",
          "name": "",
          "type": "uint256[]"
        }
      ],
      "stateMutability": "view",
      "type": "function"
    },
    {
      "inputs": [],
      "name": "totalBears",
      "outputs": [
        {
          "internalType": "uint256",
          "name": "",
          "type": "uint256"
        }
      ],
      "stateMutability": "view",
      "type": "function"
    },
    {
      "inputs": [],
      "name": "totalCount",
      "outputs": [
        {
          "internalType": "uint256",
          "name": "",
          "type": "uint256"
        }
      ],
      "stateMutability": "view",
      "type": "function"
    },
    {
      "inputs": [],
      "name": "totalSupply",
      "outputs": [
        {
          "internalType": "uint256",
          "name": "",
          "type": "uint256"
        }
      ],
      "stateMutability": "view",
      "type": "function"
    },
    {
      "inputs": [
        {
          "internalType": "address",
          "name": "from",
          "type": "address"
        },
        {
          "internalType": "address",
          "name": "to",
          "type": "address"
        },
        {
          "internalType": "uint256",
          "name": "tokenId",
          "type": "uint256"
        }
      ],
      "name": "transferFrom",
      "outputs": [],
      "stateMutability": "nonpayable",
      "type": "function"
    },
    {
      "inputs": [
        {
          "internalType": "address",
          "name": "newOwner",
          "type": "address"
        }
      ],
      "name": "transferOwnership",
      "outputs": [],
      "stateMutability": "nonpayable",
      "type": "function"
    }
  ],
  "bytecode": "0x60806040523480156200001157600080fd5b50604051620025ba380380620025ba833981016040819052620000349162000253565b8251839083906200004d906000906020850190620000fa565b50805162000063906001906020840190620000fa565b505050620000806200007a620000a460201b60201c565b620000a8565b6001600b5580516200009a90600d906020840190620000fa565b5050505062000333565b3390565b600a80546001600160a01b038381166001600160a01b0319831681179093556040519116919082907f8be0079c531659141344cd1fd0a4f28419497f9722a3daafe3b4186f6b6457e090600090a35050565b8280546200010890620002e0565b90600052602060002090601f0160209004810192826200012c576000855562000177565b82601f106200014757805160ff191683800117855562000177565b8280016001018555821562000177579182015b82811115620001775782518255916020019190600101906200015a565b506200018592915062000189565b5090565b5b808211156200018557600081556001016200018a565b600082601f830112620001b1578081fd5b81516001600160401b0380821115620001ce57620001ce6200031d565b604051601f8301601f19908116603f01168101908282118183101715620001f957620001f96200031d565b8160405283815260209250868385880101111562000215578485fd5b8491505b8382101562000238578582018301518183018401529082019062000219565b838211156200024957848385830101525b9695505050505050565b60008060006060848603121562000268578283fd5b83516001600160401b03808211156200027f578485fd5b6200028d87838801620001a0565b94506020860151915080821115620002a3578384fd5b620002b187838801620001a0565b93506040860151915080821115620002c7578283fd5b50620002d686828701620001a0565b9150509250925092565b600181811c90821680620002f557607f821691505b602082108114156200031757634e487b7160e01b600052602260045260246000fd5b50919050565b634e487b7160e01b600052604160045260246000fd5b61227780620003436000396000f3fe6080604052600436106101b75760003560e01c80636c0360eb116100ec578063a035b1fe1161008a578063b88d4fde11610064578063b88d4fde146104a5578063c87b56dd146104c5578063e985e9c5146104e5578063f2fde38b1461052e57600080fd5b8063a035b1fe14610457578063a0712d6814610472578063a22cb4651461048557600080fd5b806376a1a697116100c657806376a1a697146103e15780638462151c146103f75780638da5cb5b1461042457806395d89b411461044257600080fd5b80636c0360eb1461039757806370a08231146103ac578063715018a6146103cc57600080fd5b806334eafb111161015957806355f804b31161013357806355f804b3146103225780636352211e1461034257806367765b871461036257806368e243271461037757600080fd5b806334eafb11146102cc57806342842e0e146102e25780634f6ccce71461030257600080fd5b8063095ea7b311610195578063095ea7b31461024b57806318160ddd1461026d57806323b872dd1461028c5780632f745c59146102ac57600080fd5b806301ffc9a7146101bc57806306fdde03146101f1578063081812fc14610213575b600080fd5b3480156101c857600080fd5b506101dc6101d7366004611e59565b61054e565b60405190151581526020015b60405180910390f35b3480156101fd57600080fd5b50610206610579565b6040516101e89190612006565b34801561021f57600080fd5b5061023361022e366004611ed7565b61060b565b6040516001600160a01b0390911681526020016101e8565b34801561025757600080fd5b5061026b610266366004611e16565b6106a5565b005b34801561027957600080fd5b506008545b6040519081526020016101e8565b34801561029857600080fd5b5061026b6102a7366004611d39565b6107bb565b3480156102b857600080fd5b5061027e6102c7366004611e16565b6107ec565b3480156102d857600080fd5b5061027e61271081565b3480156102ee57600080fd5b5061026b6102fd366004611d39565b610882565b34801561030e57600080fd5b5061027e61031d366004611ed7565b61089d565b34801561032e57600080fd5b5061026b61033d366004611e91565b61093e565b34801561034e57600080fd5b5061023361035d366004611ed7565b61097f565b34801561036e57600080fd5b5061027e600a81565b34801561038357600080fd5b5061026b610392366004611e3f565b6109f6565b3480156103a357600080fd5b50610206610a33565b3480156103b857600080fd5b5061027e6103c7366004611ced565b610ac1565b3480156103d857600080fd5b5061026b610b48565b3480156103ed57600080fd5b5061027e600c5481565b34801561040357600080fd5b50610417610412366004611ced565b610b7e565b6040516101e89190611fc2565b34801561043057600080fd5b50600a546001600160a01b0316610233565b34801561044e57600080fd5b50610206610c3c565b34801561046357600080fd5b5061027e66b1a2bc2ec5000081565b61026b610480366004611ed7565b610c4b565b34801561049157600080fd5b5061026b6104a0366004611ded565b610e98565b3480156104b157600080fd5b5061026b6104c0366004611d74565b610f5d565b3480156104d157600080fd5b506102066104e0366004611ed7565b610f95565b3480156104f157600080fd5b506101dc610500366004611d07565b6001600160a01b03918216600090815260056020908152604080832093909416825291909152205460ff1690565b34801561053a57600080fd5b5061026b610549366004611ced565b61107f565b60006001600160e01b0319821663780e9d6360e01b148061057357506105738261111a565b92915050565b6060600080546105889061217f565b80601f01602080910402602001604051908101604052809291908181526020018280546105b49061217f565b80156106015780601f106105d657610100808354040283529160200191610601565b820191906000526020600020905b8154815290600101906020018083116105e457829003601f168201915b5050505050905090565b6000818152600260205260408120546001600160a01b03166106895760405162461bcd60e51b815260206004820152602c60248201527f4552433732313a20617070726f76656420717565727920666f72206e6f6e657860448201526b34b9ba32b73a103a37b5b2b760a11b60648201526084015b60405180910390fd5b506000908152600460205260409020546001600160a01b031690565b60006106b08261097f565b9050806001600160a01b0316836001600160a01b0316141561071e5760405162461bcd60e51b815260206004820152602160248201527f4552433732313a20617070726f76616c20746f2063757272656e74206f776e656044820152603960f91b6064820152608401610680565b336001600160a01b038216148061073a575061073a8133610500565b6107ac5760405162461bcd60e51b815260206004820152603860248201527f4552433732313a20617070726f76652063616c6c6572206973206e6f74206f7760448201527f6e6572206e6f7220617070726f76656420666f7220616c6c00000000000000006064820152608401610680565b6107b6838361116a565b505050565b6107c533826111d8565b6107e15760405162461bcd60e51b8152600401610680906120a0565b6107b68383836112cf565b60006107f783610ac1565b82106108595760405162461bcd60e51b815260206004820152602b60248201527f455243373231456e756d657261626c653a206f776e657220696e646578206f7560448201526a74206f6620626f756e647360a81b6064820152608401610680565b506001600160a01b03919091166000908152600660209081526040808320938352929052205490565b6107b683838360405180602001604052806000815250610f5d565b60006108a860085490565b821061090b5760405162461bcd60e51b815260206004820152602c60248201527f455243373231456e756d657261626c653a20676c6f62616c20696e646578206f60448201526b7574206f6620626f756e647360a01b6064820152608401610680565b6008828154811061092c57634e487b7160e01b600052603260045260246000fd5b90600052602060002001549050919050565b600a546001600160a01b031633146109685760405162461bcd60e51b81526004016106809061206b565b805161097b90600d906020840190611bb2565b5050565b6000818152600260205260408120546001600160a01b0316806105735760405162461bcd60e51b815260206004820152602960248201527f4552433732313a206f776e657220717565727920666f72206e6f6e657869737460448201526832b73a103a37b5b2b760b91b6064820152608401610680565b600a546001600160a01b03163314610a205760405162461bcd60e51b81526004016106809061206b565b600e805460ff1916911515919091179055565b600d8054610a409061217f565b80601f0160208091040260200160405190810160405280929190818152602001828054610a6c9061217f565b8015610ab95780601f10610a8e57610100808354040283529160200191610ab9565b820191906000526020600020905b815481529060010190602001808311610a9c57829003601f168201915b505050505081565b60006001600160a01b038216610b2c5760405162461bcd60e51b815260206004820152602a60248201527f4552433732313a2062616c616e636520717565727920666f7220746865207a65604482015269726f206164647265737360b01b6064820152608401610680565b506001600160a01b031660009081526003602052604090205490565b600a546001600160a01b03163314610b725760405162461bcd60e51b81526004016106809061206b565b610b7c600061147a565b565b60606000610b8b83610ac1565b905060008167ffffffffffffffff811115610bb657634e487b7160e01b600052604160045260246000fd5b604051908082528060200260200182016040528015610bdf578160200160208202803683370190505b50905060005b82811015610c3457610bf785826107ec565b828281518110610c1757634e487b7160e01b600052603260045260246000fd5b602090810291909101015280610c2c816121ba565b915050610be5565b509392505050565b6060600180546105889061217f565b6002600b541415610c9e5760405162461bcd60e51b815260206004820152601f60248201527f5265656e7472616e637947756172643a207265656e7472616e742063616c6c006044820152606401610680565b6002600b55600e5460ff16610cee5760405162461bcd60e51b81526020600482015260166024820152752737ba1039b837b7b5bc9032b737bab3b4103cb2ba1760511b6044820152606401610680565b600081118015610cff5750600a8111155b610d3d5760405162461bcd60e51b815260206004820152600f60248201526e546f6f206d616e792062656172732160881b6044820152606401610680565b61271081600c54610d4e91906120f1565b1115610d875760405162461bcd60e51b81526020600482015260086024820152671cdbdb19081bdd5d60c21b6044820152606401610680565b610d9866b1a2bc2ec500008261211d565b3414610de65760405162461bcd60e51b815260206004820181905260248201527f76616c7565206572726f722c20706c6561736520636865636b2070726963652e6044820152606401610680565b610e01610dfb600a546001600160a01b031690565b346114cc565b600c5433907f521771eea33982649044d9f0907ae4d4c322c9c6fb513facfb648d376e61f61a90610e339060016120f1565b60408051918252602082018590520160405180910390a260005b81811015610e8f57610e7d33600c8054906000610e69836121ba565b90915550610e789060016120f1565b611589565b80610e87816121ba565b915050610e4d565b50506001600b55565b6001600160a01b038216331415610ef15760405162461bcd60e51b815260206004820152601960248201527f4552433732313a20617070726f766520746f2063616c6c6572000000000000006044820152606401610680565b3360008181526005602090815260408083206001600160a01b03871680855290835292819020805460ff191686151590811790915590519081529192917f17307eab39ab6107e8899845ad3d59bd9653f200f220920489ca2b5937696c31910160405180910390a35050565b610f6733836111d8565b610f835760405162461bcd60e51b8152600401610680906120a0565b610f8f848484846116d7565b50505050565b6000818152600260205260409020546060906001600160a01b03166110155760405162461bcd60e51b815260206004820152603060248201527f4552433732314d657461646174613a2055524920717565727920666f72206e6f60448201526f3732bc34b9ba32b73a103a37b5b2b71760811b6064820152608401610680565b600061101f61170a565b9050600081511161104d5760405180604001604052806005815260200164173539b7b760d91b815250611078565b8061105784611719565b604051602001611068929190611f37565b6040516020818303038152906040525b9392505050565b600a546001600160a01b031633146110a95760405162461bcd60e51b81526004016106809061206b565b6001600160a01b03811661110e5760405162461bcd60e51b815260206004820152602660248201527f4f776e61626c653a206e6577206f776e657220697320746865207a65726f206160448201526564647265737360d01b6064820152608401610680565b6111178161147a565b50565b60006001600160e01b031982166380ac58cd60e01b148061114b57506001600160e01b03198216635b5e139f60e01b145b8061057357506301ffc9a760e01b6001600160e01b0319831614610573565b600081815260046020526040902080546001600160a01b0319166001600160a01b038416908117909155819061119f8261097f565b6001600160a01b03167f8c5be1e5ebec7d5bd14f71427d1e84f3dd0314c0f7b2291e5b200ac8c7c3b92560405160405180910390a45050565b6000818152600260205260408120546001600160a01b03166112515760405162461bcd60e51b815260206004820152602c60248201527f4552433732313a206f70657261746f7220717565727920666f72206e6f6e657860448201526b34b9ba32b73a103a37b5b2b760a11b6064820152608401610680565b600061125c8361097f565b9050806001600160a01b0316846001600160a01b031614806112975750836001600160a01b031661128c8461060b565b6001600160a01b0316145b806112c757506001600160a01b0380821660009081526005602090815260408083209388168352929052205460ff165b949350505050565b826001600160a01b03166112e28261097f565b6001600160a01b03161461134a5760405162461bcd60e51b815260206004820152602960248201527f4552433732313a207472616e73666572206f6620746f6b656e2074686174206960448201526839903737ba1037bbb760b91b6064820152608401610680565b6001600160a01b0382166113ac5760405162461bcd60e51b8152602060048201526024808201527f4552433732313a207472616e7366657220746f20746865207a65726f206164646044820152637265737360e01b6064820152608401610680565b6113b7838383611833565b6113c260008261116a565b6001600160a01b03831660009081526003602052604081208054600192906113eb90849061213c565b90915550506001600160a01b03821660009081526003602052604081208054600192906114199084906120f1565b909155505060008181526002602052604080822080546001600160a01b0319166001600160a01b0386811691821790925591518493918716917fddf252ad1be2c89b69c2b068fc378daa952ba7f163c4a11628f55a4df523b3ef91a4505050565b600a80546001600160a01b038381166001600160a01b0319831681179093556040519116919082907f8be0079c531659141344cd1fd0a4f28419497f9722a3daafe3b4186f6b6457e090600090a35050565b604080516000808252602082019092526001600160a01b0384169083906040516114f69190611f1b565b60006040518083038185875af1925050503d8060008114611533576040519150601f19603f3d011682016040523d82523d6000602084013e611538565b606091505b50509050806107b65760405162461bcd60e51b815260206004820152601f60248201527f5472616e7366657248656c7065723a205452414e534645525f4641494c4544006044820152606401610680565b6001600160a01b0382166115df5760405162461bcd60e51b815260206004820181905260248201527f4552433732313a206d696e7420746f20746865207a65726f20616464726573736044820152606401610680565b6000818152600260205260409020546001600160a01b0316156116445760405162461bcd60e51b815260206004820152601c60248201527f4552433732313a20746f6b656e20616c7265616479206d696e746564000000006044820152606401610680565b61165060008383611833565b6001600160a01b03821660009081526003602052604081208054600192906116799084906120f1565b909155505060008181526002602052604080822080546001600160a01b0319166001600160a01b03861690811790915590518392907fddf252ad1be2c89b69c2b068fc378daa952ba7f163c4a11628f55a4df523b3ef908290a45050565b6116e28484846112cf565b6116ee848484846118eb565b610f8f5760405162461bcd60e51b815260040161068090612019565b6060600d80546105889061217f565b60608161173d5750506040805180820190915260018152600360fc1b602082015290565b8160005b81156117675780611751816121ba565b91506117609050600a83612109565b9150611741565b60008167ffffffffffffffff81111561179057634e487b7160e01b600052604160045260246000fd5b6040519080825280601f01601f1916602001820160405280156117ba576020820181803683370190505b5090505b84156112c7576117cf60018361213c565b91506117dc600a866121d5565b6117e79060306120f1565b60f81b81838151811061180a57634e487b7160e01b600052603260045260246000fd5b60200101906001600160f81b031916908160001a90535061182c600a86612109565b94506117be565b6001600160a01b03831661188e5761188981600880546000838152600960205260408120829055600182018355919091527ff3f7a9fe364faab93b216da50a3214154f22a0a2b415b23a84c8169e8b636ee30155565b6118b1565b816001600160a01b0316836001600160a01b0316146118b1576118b183826119f8565b6001600160a01b0382166118c8576107b681611a95565b826001600160a01b0316826001600160a01b0316146107b6576107b68282611b6e565b60006001600160a01b0384163b156119ed57604051630a85bd0160e11b81526001600160a01b0385169063150b7a029061192f903390899088908890600401611f85565b602060405180830381600087803b15801561194957600080fd5b505af1925050508015611979575060408051601f3d908101601f1916820190925261197691810190611e75565b60015b6119d3573d8080156119a7576040519150601f19603f3d011682016040523d82523d6000602084013e6119ac565b606091505b5080516119cb5760405162461bcd60e51b815260040161068090612019565b805181602001fd5b6001600160e01b031916630a85bd0160e11b1490506112c7565b506001949350505050565b60006001611a0584610ac1565b611a0f919061213c565b600083815260076020526040902054909150808214611a62576001600160a01b03841660009081526006602090815260408083208584528252808320548484528184208190558352600790915290208190555b5060009182526007602090815260408084208490556001600160a01b039094168352600681528383209183525290812055565b600854600090611aa79060019061213c565b60008381526009602052604081205460088054939450909284908110611add57634e487b7160e01b600052603260045260246000fd5b906000526020600020015490508060088381548110611b0c57634e487b7160e01b600052603260045260246000fd5b6000918252602080832090910192909255828152600990915260408082208490558582528120556008805480611b5257634e487b7160e01b600052603160045260246000fd5b6001900381819060005260206000200160009055905550505050565b6000611b7983610ac1565b6001600160a01b039093166000908152600660209081526040808320868452825280832085905593825260079052919091209190915550565b828054611bbe9061217f565b90600052602060002090601f016020900481019282611be05760008555611c26565b82601f10611bf957805160ff1916838001178555611c26565b82800160010185558215611c26579182015b82811115611c26578251825591602001919060010190611c0b565b50611c32929150611c36565b5090565b5b80821115611c325760008155600101611c37565b600067ffffffffffffffff80841115611c6657611c66612215565b604051601f8501601f19908116603f01168101908282118183101715611c8e57611c8e612215565b81604052809350858152868686011115611ca757600080fd5b858560208301376000602087830101525050509392505050565b80356001600160a01b0381168114611cd857600080fd5b919050565b80358015158114611cd857600080fd5b600060208284031215611cfe578081fd5b61107882611cc1565b60008060408385031215611d19578081fd5b611d2283611cc1565b9150611d3060208401611cc1565b90509250929050565b600080600060608486031215611d4d578081fd5b611d5684611cc1565b9250611d6460208501611cc1565b9150604084013590509250925092565b60008060008060808587031215611d89578081fd5b611d9285611cc1565b9350611da060208601611cc1565b925060408501359150606085013567ffffffffffffffff811115611dc2578182fd5b8501601f81018713611dd2578182fd5b611de187823560208401611c4b565b91505092959194509250565b60008060408385031215611dff578182fd5b611e0883611cc1565b9150611d3060208401611cdd565b60008060408385031215611e28578182fd5b611e3183611cc1565b946020939093013593505050565b600060208284031215611e50578081fd5b61107882611cdd565b600060208284031215611e6a578081fd5b81356110788161222b565b600060208284031215611e86578081fd5b81516110788161222b565b600060208284031215611ea2578081fd5b813567ffffffffffffffff811115611eb8578182fd5b8201601f81018413611ec8578182fd5b6112c784823560208401611c4b565b600060208284031215611ee8578081fd5b5035919050565b60008151808452611f07816020860160208601612153565b601f01601f19169290920160200192915050565b60008251611f2d818460208701612153565b9190910192915050565b60008351611f49818460208801612153565b602f60f81b9083019081528351611f67816001840160208801612153565b64173539b7b760d91b60019290910191820152600601949350505050565b6001600160a01b0385811682528416602082015260408101839052608060608201819052600090611fb890830184611eef565b9695505050505050565b6020808252825182820181905260009190848201906040850190845b81811015611ffa57835183529284019291840191600101611fde565b50909695505050505050565b6020815260006110786020830184611eef565b60208082526032908201527f4552433732313a207472616e7366657220746f206e6f6e20455243373231526560408201527131b2b4bb32b91034b6b83632b6b2b73a32b960711b606082015260800190565b6020808252818101527f4f776e61626c653a2063616c6c6572206973206e6f7420746865206f776e6572604082015260600190565b60208082526031908201527f4552433732313a207472616e736665722063616c6c6572206973206e6f74206f6040820152701ddb995c881b9bdc88185c1c1c9bdd9959607a1b606082015260800190565b60008219821115612104576121046121e9565b500190565b600082612118576121186121ff565b500490565b6000816000190483118215151615612137576121376121e9565b500290565b60008282101561214e5761214e6121e9565b500390565b60005b8381101561216e578181015183820152602001612156565b83811115610f8f5750506000910152565b600181811c9082168061219357607f821691505b602082108114156121b457634e487b7160e01b600052602260045260246000fd5b50919050565b60006000198214156121ce576121ce6121e9565b5060010190565b6000826121e4576121e46121ff565b500690565b634e487b7160e01b600052601160045260246000fd5b634e487b7160e01b600052601260045260246000fd5b634e487b7160e01b600052604160045260246000fd5b6001600160e01b03198116811461111757600080fdfea26469706673582212209d2ef4ffee7e897ca3f015971ece5798e19a62aa5240b61af77973586553306e64736f6c63430008040033",
  "linkReferences": {},
  "deployedLinkReferences": {}
}