{
  "_format": "hh-sol-artifact-1",
  "contractName": "NapaBears",
  "sourceName": "contracts/1_NapaBears.sol",
  "abi": [
    {
      "inputs": [
        {
          "internalType": "string",
          "name": "name_",
          "type": "string"
        },
        {
          "internalType": "string",
          "name": "symbol_",
          "type": "string"
        },
        {
          "internalType": "string",
          "name": "baseURI_",
          "type": "string"
        }
      ],
      "stateMutability": "nonpayable",
      "type": "constructor"
    },
    {
      "anonymous": false,
      "inputs": [
        {
          "indexed": true,
          "internalType": "address",
          "name": "owner",
          "type": "address"
        },
        {
          "indexed": true,
          "internalType": "address",
          "name": "approved",
          "type": "address"
        },
        {
          "indexed": true,
          "internalType": "uint256",
          "name": "tokenId",
          "type": "uint256"
        }
      ],
      "name": "Approval",
      "type": "event"
    },
    {
      "anonymous": false,
      "inputs": [
        {
          "indexed": true,
          "internalType": "address",
          "name": "owner",
          "type": "address"
        },
        {
          "indexed": true,
          "internalType": "address",
          "name": "operator",
          "type": "address"
        },
        {
          "indexed": false,
          "internalType": "bool",
          "name": "approved",
          "type": "bool"
        }
      ],
      "name": "ApprovalForAll",
      "type": "event"
    },
    {
      "anonymous": false,
      "inputs": [
        {
          "indexed": true,
          "internalType": "address",
          "name": "sender",
          "type": "address"
        },
        {
          "indexed": false,
          "internalType": "uint256",
          "name": "startWith",
          "type": "uint256"
        },
        {
          "indexed": false,
          "internalType": "uint256",
          "name": "times",
          "type": "uint256"
        }
      ],
      "name": "MintBear",
      "type": "event"
    },
    {
      "anonymous": false,
      "inputs": [
        {
          "indexed": true,
          "internalType": "address",
          "name": "previousOwner",
          "type": "address"
        },
        {
          "indexed": true,
          "internalType": "address",
          "name": "newOwner",
          "type": "address"
        }
      ],
      "name": "OwnershipTransferred",
      "type": "event"
    },
    {
      "anonymous": false,
      "inputs": [
        {
          "indexed": true,
          "internalType": "address",
          "name": "from",
          "type": "address"
        },
        {
          "indexed": true,
          "internalType": "address",
          "name": "to",
          "type": "address"
        },
        {
          "indexed": true,
          "internalType": "uint256",
          "name": "tokenId",
          "type": "uint256"
        }
      ],
      "name": "Transfer",
      "type": "event"
    },
    {
      "inputs": [
        {
          "internalType": "address",
          "name": "to",
          "type": "address"
        },
        {
          "internalType": "uint256",
          "name": "tokenId",
          "type": "uint256"
        }
      ],
      "name": "approve",
      "outputs": [],
      "stateMutability": "nonpayable",
      "type": "function"
    },
    {
      "inputs": [
        {
          "internalType": "address",
          "name": "owner",
          "type": "address"
        }
      ],
      "name": "balanceOf",
      "outputs": [
        {
          "internalType": "uint256",
          "name": "",
          "type": "uint256"
        }
      ],
      "stateMutability": "view",
      "type": "function"
    },
    {
      "inputs": [],
      "name": "baseURI",
      "outputs": [
        {
          "internalType": "string",
          "name": "",
          "type": "string"
        }
      ],
      "stateMutability": "view",
      "type": "function"
    },
    {
      "inputs": [
        {
          "internalType": "uint256",
          "name": "tokenId",
          "type": "uint256"
        }
      ],
      "name": "getApproved",
      "outputs": [
        {
          "internalType": "address",
          "name": "",
          "type": "address"
        }
      ],
      "stateMutability": "view",
      "type": "function"
    },
    {
      "inputs": [
        {
          "internalType": "address",
          "name": "owner",
          "type": "address"
        },
        {
          "internalType": "address",
          "name": "operator",
          "type": "address"
        }
      ],
      "name": "isApprovedForAll",
      "outputs": [
        {
          "internalType": "bool",
          "name": "",
          "type": "bool"
        }
      ],
      "stateMutability": "view",
      "type": "function"
    },
    {
      "inputs": [],
      "name": "maxBatch",
      "outputs": [
        {
          "internalType": "uint256",
          "name": "",
          "type": "uint256"
        }
      ],
      "stateMutability": "view",
      "type": "function"
    },
    {
      "inputs": [
        {
          "internalType": "uint256",
          "name": "_times",
          "type": "uint256"
        }
      ],
      "name": "mint",
      "outputs": [],
      "stateMutability": "payable",
      "type": "function"
    },
    {
      "inputs": [],
      "name": "name",
      "outputs": [
        {
          "internalType": "string",
          "name": "",
          "type": "string"
        }
      ],
      "stateMutability": "view",
      "type": "function"
    },
    {
      "inputs": [],
      "name": "owner",
      "outputs": [
        {
          "internalType": "address",
          "name": "",
          "type": "address"
        }
      ],
      "stateMutability": "view",
      "type": "function"
    },
    {
      "inputs": [
        {
          "internalType": "uint256",
          "name": "tokenId",
          "type": "uint256"
        }
      ],
      "name": "ownerOf",
      "outputs": [
        {
          "internalType": "address",
          "name": "",
          "type": "address"
        }
      ],
      "stateMutability": "view",
      "type": "function"
    },
    {
      "inputs": [],
      "name": "price",
      "outputs": [
        {
          "internalType": "uint256",
          "name": "",
          "type": "uint256"
        }
      ],
      "stateMutability": "view",
      "type": "function"
    },
    {
      "inputs": [],
      "name": "renounceOwnership",
      "outputs": [],
      "stateMutability": "nonpayable",
      "type": "function"
    },
    {
      "inputs": [
        {
          "internalType": "address",
          "name": "from",
          "type": "address"
        },
        {
          "internalType": "address",
          "name": "to",
          "type": "address"
        },
        {
          "internalType": "uint256",
          "name": "tokenId",
          "type": "uint256"
        }
      ],
      "name": "safeTransferFrom",
      "outputs": [],
      "stateMutability": "nonpayable",
      "type": "function"
    },
    {
      "inputs": [
        {
          "internalType": "address",
          "name": "from",
          "type": "address"
        },
        {
          "internalType": "address",
          "name": "to",
          "type": "address"
        },
        {
          "internalType": "uint256",
          "name": "tokenId",
          "type": "uint256"
        },
        {
          "internalType": "bytes",
          "name": "_data",
          "type": "bytes"
        }
      ],
      "name": "safeTransferFrom",
      "outputs": [],
      "stateMutability": "nonpayable",
      "type": "function"
    },
    {
      "inputs": [
        {
          "internalType": "address",
          "name": "operator",
          "type": "address"
        },
        {
          "internalType": "bool",
          "name": "approved",
          "type": "bool"
        }
      ],
      "name": "setApprovalForAll",
      "outputs": [],
      "stateMutability": "nonpayable",
      "type": "function"
    },
    {
      "inputs": [
        {
          "internalType": "string",
          "name": "_newURI",
          "type": "string"
        }
      ],
      "name": "setBaseURI",
      "outputs": [],
      "stateMutability": "nonpayable",
      "type": "function"
    },
    {
      "inputs": [
        {
          "internalType": "bool",
          "name": "_start",
          "type": "bool"
        }
      ],
      "name": "setStart",
      "outputs": [],
      "stateMutability": "nonpayable",
      "type": "function"
    },
    {
      "inputs": [
        {
          "internalType": "bytes4",
          "name": "interfaceId",
          "type": "bytes4"
        }
      ],
      "name": "supportsInterface",
      "outputs": [
        {
          "internalType": "bool",
          "name": "",
          "type": "bool"
        }
      ],
      "stateMutability": "view",
      "type": "function"
    },
    {
      "inputs": [],
      "name": "symbol",
      "outputs": [
        {
          "internalType": "string",
          "name": "",
          "type": "string"
        }
      ],
      "stateMutability": "view",
      "type": "function"
    },
    {
      "inputs": [
        {
          "internalType": "uint256",
          "name": "index",
          "type": "uint256"
        }
      ],
      "name": "tokenByIndex",
      "outputs": [
        {
          "internalType": "uint256",
          "name": "",
          "type": "uint256"
        }
      ],
      "stateMutability": "view",
      "type": "function"
    },
    {
      "inputs": [
        {
          "internalType": "address",
          "name": "owner",
          "type": "address"
        },
        {
          "internalType": "uint256",
          "name": "index",
          "type": "uint256"
        }
      ],
      "name": "tokenOfOwnerByIndex",
      "outputs": [
        {
          "internalType": "uint256",
          "name": "",
          "type": "uint256"
        }
      ],
      "stateMutability": "view",
      "type": "function"
    },
    {
      "inputs": [
        {
          "internalType": "uint256",
          "name": "tokenId",
          "type": "uint256"
        }
      ],
      "name": "tokenURI",
      "outputs": [
        {
          "internalType": "string",
          "name": "",
          "type": "string"
        }
      ],
      "stateMutability": "view",
      "type": "function"
    },
    {
      "inputs": [
        {
          "internalType": "address",
          "name": "owner",
          "type": "address"
        }
      ],
      "name": "tokensOfOwner",
      "outputs": [
        {
          "internalType": "uint256[]",
          "name": "",
          "type": "uint256[]"
        }
      ],
      "stateMutability": "view",
      "type": "function"
    },
    {
      "inputs": [],
      "name": "totalBears",
      "outputs": [
        {
          "internalType": "uint256",
          "name": "",
          "type": "uint256"
        }
      ],
      "stateMutability": "view",
      "type": "function"
    },
    {
      "inputs": [],
      "name": "totalCount",
      "outputs": [
        {
          "internalType": "uint256",
          "name": "",
          "type": "uint256"
        }
      ],
      "stateMutability": "view",
      "type": "function"
    },
    {
      "inputs": [],
      "name": "totalSupply",
      "outputs": [
        {
          "internalType": "uint256",
          "name": "",
          "type": "uint256"
        }
      ],
      "stateMutability": "view",
      "type": "function"
    },
    {
      "inputs": [
        {
          "internalType": "address",
          "name": "from",
          "type": "address"
        },
        {
          "internalType": "address",
          "name": "to",
          "type": "address"
        },
        {
          "internalType": "uint256",
          "name": "tokenId",
          "type": "uint256"
        }
      ],
      "name": "transferFrom",
      "outputs": [],
      "stateMutability": "nonpayable",
      "type": "function"
    },
    {
      "inputs": [
        {
          "internalType": "address",
          "name": "newOwner",
          "type": "address"
        }
      ],
      "name": "transferOwnership",
      "outputs": [],
      "stateMutability": "nonpayable",
      "type": "function"
    }
  ],
  "bytecode": "0x60806040523480156200001157600080fd5b50604051620025b8380380620025b8833981016040819052620000349162000253565b8251839083906200004d906000906020850190620000fa565b50805162000063906001906020840190620000fa565b505050620000806200007a620000a460201b60201c565b620000a8565b6001600b5580516200009a90600d906020840190620000fa565b5050505062000333565b3390565b600a80546001600160a01b038381166001600160a01b0319831681179093556040519116919082907f8be0079c531659141344cd1fd0a4f28419497f9722a3daafe3b4186f6b6457e090600090a35050565b8280546200010890620002e0565b90600052602060002090601f0160209004810192826200012c576000855562000177565b82601f106200014757805160ff191683800117855562000177565b8280016001018555821562000177579182015b82811115620001775782518255916020019190600101906200015a565b506200018592915062000189565b5090565b5b808211156200018557600081556001016200018a565b600082601f830112620001b1578081fd5b81516001600160401b0380821115620001ce57620001ce6200031d565b604051601f8301601f19908116603f01168101908282118183101715620001f957620001f96200031d565b8160405283815260209250868385880101111562000215578485fd5b8491505b8382101562000238578582018301518183018401529082019062000219565b838211156200024957848385830101525b9695505050505050565b60008060006060848603121562000268578283fd5b83516001600160401b03808211156200027f578485fd5b6200028d87838801620001a0565b94506020860151915080821115620002a3578384fd5b620002b187838801620001a0565b93506040860151915080821115620002c7578283fd5b50620002d686828701620001a0565b9150509250925092565b600181811c90821680620002f557607f821691505b602082108114156200031757634e487b7160e01b600052602260045260246000fd5b50919050565b634e487b7160e01b600052604160045260246000fd5b61227580620003436000396000f3fe6080604052600436106101b75760003560e01c80636c0360eb116100ec578063a035b1fe1161008a578063b88d4fde11610064578063b88d4fde146104a4578063c87b56dd146104c4578063e985e9c5146104e4578063f2fde38b1461052d57600080fd5b8063a035b1fe14610456578063a0712d6814610471578063a22cb4651461048457600080fd5b806376a1a697116100c657806376a1a697146103e05780638462151c146103f65780638da5cb5b1461042357806395d89b411461044157600080fd5b80636c0360eb1461039657806370a08231146103ab578063715018a6146103cb57600080fd5b806334eafb111161015957806355f804b31161013357806355f804b3146103215780636352211e1461034157806367765b871461036157806368e243271461037657600080fd5b806334eafb11146102cc57806342842e0e146102e15780634f6ccce71461030157600080fd5b8063095ea7b311610195578063095ea7b31461024b57806318160ddd1461026d57806323b872dd1461028c5780632f745c59146102ac57600080fd5b806301ffc9a7146101bc57806306fdde03146101f1578063081812fc14610213575b600080fd5b3480156101c857600080fd5b506101dc6101d7366004611e57565b61054d565b60405190151581526020015b60405180910390f35b3480156101fd57600080fd5b50610206610578565b6040516101e89190612004565b34801561021f57600080fd5b5061023361022e366004611ed5565b61060a565b6040516001600160a01b0390911681526020016101e8565b34801561025757600080fd5b5061026b610266366004611e14565b6106a4565b005b34801561027957600080fd5b506008545b6040519081526020016101e8565b34801561029857600080fd5b5061026b6102a7366004611d37565b6107ba565b3480156102b857600080fd5b5061027e6102c7366004611e14565b6107eb565b3480156102d857600080fd5b5061027e602881565b3480156102ed57600080fd5b5061026b6102fc366004611d37565b610881565b34801561030d57600080fd5b5061027e61031c366004611ed5565b61089c565b34801561032d57600080fd5b5061026b61033c366004611e8f565b61093d565b34801561034d57600080fd5b5061023361035c366004611ed5565b61097e565b34801561036d57600080fd5b5061027e600a81565b34801561038257600080fd5b5061026b610391366004611e3d565b6109f5565b3480156103a257600080fd5b50610206610a32565b3480156103b757600080fd5b5061027e6103c6366004611ceb565b610ac0565b3480156103d757600080fd5b5061026b610b47565b3480156103ec57600080fd5b5061027e600c5481565b34801561040257600080fd5b50610416610411366004611ceb565b610b7d565b6040516101e89190611fc0565b34801561042f57600080fd5b50600a546001600160a01b0316610233565b34801561044d57600080fd5b50610206610c3b565b34801561046257600080fd5b5061027e66b1a2bc2ec5000081565b61026b61047f366004611ed5565b610c4a565b34801561049057600080fd5b5061026b61049f366004611deb565b610e96565b3480156104b057600080fd5b5061026b6104bf366004611d72565b610f5b565b3480156104d057600080fd5b506102066104df366004611ed5565b610f93565b3480156104f057600080fd5b506101dc6104ff366004611d05565b6001600160a01b03918216600090815260056020908152604080832093909416825291909152205460ff1690565b34801561053957600080fd5b5061026b610548366004611ceb565b61107d565b60006001600160e01b0319821663780e9d6360e01b1480610572575061057282611118565b92915050565b6060600080546105879061217d565b80601f01602080910402602001604051908101604052809291908181526020018280546105b39061217d565b80156106005780601f106105d557610100808354040283529160200191610600565b820191906000526020600020905b8154815290600101906020018083116105e357829003601f168201915b5050505050905090565b6000818152600260205260408120546001600160a01b03166106885760405162461bcd60e51b815260206004820152602c60248201527f4552433732313a20617070726f76656420717565727920666f72206e6f6e657860448201526b34b9ba32b73a103a37b5b2b760a11b60648201526084015b60405180910390fd5b506000908152600460205260409020546001600160a01b031690565b60006106af8261097e565b9050806001600160a01b0316836001600160a01b0316141561071d5760405162461bcd60e51b815260206004820152602160248201527f4552433732313a20617070726f76616c20746f2063757272656e74206f776e656044820152603960f91b606482015260840161067f565b336001600160a01b0382161480610739575061073981336104ff565b6107ab5760405162461bcd60e51b815260206004820152603860248201527f4552433732313a20617070726f76652063616c6c6572206973206e6f74206f7760448201527f6e6572206e6f7220617070726f76656420666f7220616c6c0000000000000000606482015260840161067f565b6107b58383611168565b505050565b6107c433826111d6565b6107e05760405162461bcd60e51b815260040161067f9061209e565b6107b58383836112cd565b60006107f683610ac0565b82106108585760405162461bcd60e51b815260206004820152602b60248201527f455243373231456e756d657261626c653a206f776e657220696e646578206f7560448201526a74206f6620626f756e647360a81b606482015260840161067f565b506001600160a01b03919091166000908152600660209081526040808320938352929052205490565b6107b583838360405180602001604052806000815250610f5b565b60006108a760085490565b821061090a5760405162461bcd60e51b815260206004820152602c60248201527f455243373231456e756d657261626c653a20676c6f62616c20696e646578206f60448201526b7574206f6620626f756e647360a01b606482015260840161067f565b6008828154811061092b57634e487b7160e01b600052603260045260246000fd5b90600052602060002001549050919050565b600a546001600160a01b031633146109675760405162461bcd60e51b815260040161067f90612069565b805161097a90600d906020840190611bb0565b5050565b6000818152600260205260408120546001600160a01b0316806105725760405162461bcd60e51b815260206004820152602960248201527f4552433732313a206f776e657220717565727920666f72206e6f6e657869737460448201526832b73a103a37b5b2b760b91b606482015260840161067f565b600a546001600160a01b03163314610a1f5760405162461bcd60e51b815260040161067f90612069565b600e805460ff1916911515919091179055565b600d8054610a3f9061217d565b80601f0160208091040260200160405190810160405280929190818152602001828054610a6b9061217d565b8015610ab85780601f10610a8d57610100808354040283529160200191610ab8565b820191906000526020600020905b815481529060010190602001808311610a9b57829003601f168201915b505050505081565b60006001600160a01b038216610b2b5760405162461bcd60e51b815260206004820152602a60248201527f4552433732313a2062616c616e636520717565727920666f7220746865207a65604482015269726f206164647265737360b01b606482015260840161067f565b506001600160a01b031660009081526003602052604090205490565b600a546001600160a01b03163314610b715760405162461bcd60e51b815260040161067f90612069565b610b7b6000611478565b565b60606000610b8a83610ac0565b905060008167ffffffffffffffff811115610bb557634e487b7160e01b600052604160045260246000fd5b604051908082528060200260200182016040528015610bde578160200160208202803683370190505b50905060005b82811015610c3357610bf685826107eb565b828281518110610c1657634e487b7160e01b600052603260045260246000fd5b602090810291909101015280610c2b816121b8565b915050610be4565b509392505050565b6060600180546105879061217d565b6002600b541415610c9d5760405162461bcd60e51b815260206004820152601f60248201527f5265656e7472616e637947756172643a207265656e7472616e742063616c6c00604482015260640161067f565b6002600b55600e5460ff16610ced5760405162461bcd60e51b81526020600482015260166024820152752737ba1039b837b7b5bc9032b737bab3b4103cb2ba1760511b604482015260640161067f565b600081118015610cfe5750600a8111155b610d3c5760405162461bcd60e51b815260206004820152600f60248201526e546f6f206d616e792062656172732160881b604482015260640161067f565b602881600c54610d4c91906120ef565b1115610d855760405162461bcd60e51b81526020600482015260086024820152671cdbdb19081bdd5d60c21b604482015260640161067f565b610d9666b1a2bc2ec500008261211b565b3414610de45760405162461bcd60e51b815260206004820181905260248201527f76616c7565206572726f722c20706c6561736520636865636b2070726963652e604482015260640161067f565b610dff610df9600a546001600160a01b031690565b346114ca565b600c5433907f521771eea33982649044d9f0907ae4d4c322c9c6fb513facfb648d376e61f61a90610e319060016120ef565b60408051918252602082018590520160405180910390a260005b81811015610e8d57610e7b33600c8054906000610e67836121b8565b90915550610e769060016120ef565b611587565b80610e85816121b8565b915050610e4b565b50506001600b55565b6001600160a01b038216331415610eef5760405162461bcd60e51b815260206004820152601960248201527f4552433732313a20617070726f766520746f2063616c6c657200000000000000604482015260640161067f565b3360008181526005602090815260408083206001600160a01b03871680855290835292819020805460ff191686151590811790915590519081529192917f17307eab39ab6107e8899845ad3d59bd9653f200f220920489ca2b5937696c31910160405180910390a35050565b610f6533836111d6565b610f815760405162461bcd60e51b815260040161067f9061209e565b610f8d848484846116d5565b50505050565b6000818152600260205260409020546060906001600160a01b03166110135760405162461bcd60e51b815260206004820152603060248201527f4552433732314d657461646174613a2055524920717565727920666f72206e6f60448201526f3732bc34b9ba32b73a103a37b5b2b71760811b606482015260840161067f565b600061101d611708565b9050600081511161104b5760405180604001604052806005815260200164173539b7b760d91b815250611076565b8061105584611717565b604051602001611066929190611f35565b6040516020818303038152906040525b9392505050565b600a546001600160a01b031633146110a75760405162461bcd60e51b815260040161067f90612069565b6001600160a01b03811661110c5760405162461bcd60e51b815260206004820152602660248201527f4f776e61626c653a206e6577206f776e657220697320746865207a65726f206160448201526564647265737360d01b606482015260840161067f565b61111581611478565b50565b60006001600160e01b031982166380ac58cd60e01b148061114957506001600160e01b03198216635b5e139f60e01b145b8061057257506301ffc9a760e01b6001600160e01b0319831614610572565b600081815260046020526040902080546001600160a01b0319166001600160a01b038416908117909155819061119d8261097e565b6001600160a01b03167f8c5be1e5ebec7d5bd14f71427d1e84f3dd0314c0f7b2291e5b200ac8c7c3b92560405160405180910390a45050565b6000818152600260205260408120546001600160a01b031661124f5760405162461bcd60e51b815260206004820152602c60248201527f4552433732313a206f70657261746f7220717565727920666f72206e6f6e657860448201526b34b9ba32b73a103a37b5b2b760a11b606482015260840161067f565b600061125a8361097e565b9050806001600160a01b0316846001600160a01b031614806112955750836001600160a01b031661128a8461060a565b6001600160a01b0316145b806112c557506001600160a01b0380821660009081526005602090815260408083209388168352929052205460ff165b949350505050565b826001600160a01b03166112e08261097e565b6001600160a01b0316146113485760405162461bcd60e51b815260206004820152602960248201527f4552433732313a207472616e73666572206f6620746f6b656e2074686174206960448201526839903737ba1037bbb760b91b606482015260840161067f565b6001600160a01b0382166113aa5760405162461bcd60e51b8152602060048201526024808201527f4552433732313a207472616e7366657220746f20746865207a65726f206164646044820152637265737360e01b606482015260840161067f565b6113b5838383611831565b6113c0600082611168565b6001600160a01b03831660009081526003602052604081208054600192906113e990849061213a565b90915550506001600160a01b03821660009081526003602052604081208054600192906114179084906120ef565b909155505060008181526002602052604080822080546001600160a01b0319166001600160a01b0386811691821790925591518493918716917fddf252ad1be2c89b69c2b068fc378daa952ba7f163c4a11628f55a4df523b3ef91a4505050565b600a80546001600160a01b038381166001600160a01b0319831681179093556040519116919082907f8be0079c531659141344cd1fd0a4f28419497f9722a3daafe3b4186f6b6457e090600090a35050565b604080516000808252602082019092526001600160a01b0384169083906040516114f49190611f19565b60006040518083038185875af1925050503d8060008114611531576040519150601f19603f3d011682016040523d82523d6000602084013e611536565b606091505b50509050806107b55760405162461bcd60e51b815260206004820152601f60248201527f5472616e7366657248656c7065723a205452414e534645525f4641494c454400604482015260640161067f565b6001600160a01b0382166115dd5760405162461bcd60e51b815260206004820181905260248201527f4552433732313a206d696e7420746f20746865207a65726f2061646472657373604482015260640161067f565b6000818152600260205260409020546001600160a01b0316156116425760405162461bcd60e51b815260206004820152601c60248201527f4552433732313a20746f6b656e20616c7265616479206d696e74656400000000604482015260640161067f565b61164e60008383611831565b6001600160a01b03821660009081526003602052604081208054600192906116779084906120ef565b909155505060008181526002602052604080822080546001600160a01b0319166001600160a01b03861690811790915590518392907fddf252ad1be2c89b69c2b068fc378daa952ba7f163c4a11628f55a4df523b3ef908290a45050565b6116e08484846112cd565b6116ec848484846118e9565b610f8d5760405162461bcd60e51b815260040161067f90612017565b6060600d80546105879061217d565b60608161173b5750506040805180820190915260018152600360fc1b602082015290565b8160005b8115611765578061174f816121b8565b915061175e9050600a83612107565b915061173f565b60008167ffffffffffffffff81111561178e57634e487b7160e01b600052604160045260246000fd5b6040519080825280601f01601f1916602001820160405280156117b8576020820181803683370190505b5090505b84156112c5576117cd60018361213a565b91506117da600a866121d3565b6117e59060306120ef565b60f81b81838151811061180857634e487b7160e01b600052603260045260246000fd5b60200101906001600160f81b031916908160001a90535061182a600a86612107565b94506117bc565b6001600160a01b03831661188c5761188781600880546000838152600960205260408120829055600182018355919091527ff3f7a9fe364faab93b216da50a3214154f22a0a2b415b23a84c8169e8b636ee30155565b6118af565b816001600160a01b0316836001600160a01b0316146118af576118af83826119f6565b6001600160a01b0382166118c6576107b581611a93565b826001600160a01b0316826001600160a01b0316146107b5576107b58282611b6c565b60006001600160a01b0384163b156119eb57604051630a85bd0160e11b81526001600160a01b0385169063150b7a029061192d903390899088908890600401611f83565b602060405180830381600087803b15801561194757600080fd5b505af1925050508015611977575060408051601f3d908101601f1916820190925261197491810190611e73565b60015b6119d1573d8080156119a5576040519150601f19603f3d011682016040523d82523d6000602084013e6119aa565b606091505b5080516119c95760405162461bcd60e51b815260040161067f90612017565b805181602001fd5b6001600160e01b031916630a85bd0160e11b1490506112c5565b506001949350505050565b60006001611a0384610ac0565b611a0d919061213a565b600083815260076020526040902054909150808214611a60576001600160a01b03841660009081526006602090815260408083208584528252808320548484528184208190558352600790915290208190555b5060009182526007602090815260408084208490556001600160a01b039094168352600681528383209183525290812055565b600854600090611aa59060019061213a565b60008381526009602052604081205460088054939450909284908110611adb57634e487b7160e01b600052603260045260246000fd5b906000526020600020015490508060088381548110611b0a57634e487b7160e01b600052603260045260246000fd5b6000918252602080832090910192909255828152600990915260408082208490558582528120556008805480611b5057634e487b7160e01b600052603160045260246000fd5b6001900381819060005260206000200160009055905550505050565b6000611b7783610ac0565b6001600160a01b039093166000908152600660209081526040808320868452825280832085905593825260079052919091209190915550565b828054611bbc9061217d565b90600052602060002090601f016020900481019282611bde5760008555611c24565b82601f10611bf757805160ff1916838001178555611c24565b82800160010185558215611c24579182015b82811115611c24578251825591602001919060010190611c09565b50611c30929150611c34565b5090565b5b80821115611c305760008155600101611c35565b600067ffffffffffffffff80841115611c6457611c64612213565b604051601f8501601f19908116603f01168101908282118183101715611c8c57611c8c612213565b81604052809350858152868686011115611ca557600080fd5b858560208301376000602087830101525050509392505050565b80356001600160a01b0381168114611cd657600080fd5b919050565b80358015158114611cd657600080fd5b600060208284031215611cfc578081fd5b61107682611cbf565b60008060408385031215611d17578081fd5b611d2083611cbf565b9150611d2e60208401611cbf565b90509250929050565b600080600060608486031215611d4b578081fd5b611d5484611cbf565b9250611d6260208501611cbf565b9150604084013590509250925092565b60008060008060808587031215611d87578081fd5b611d9085611cbf565b9350611d9e60208601611cbf565b925060408501359150606085013567ffffffffffffffff811115611dc0578182fd5b8501601f81018713611dd0578182fd5b611ddf87823560208401611c49565b91505092959194509250565b60008060408385031215611dfd578182fd5b611e0683611cbf565b9150611d2e60208401611cdb565b60008060408385031215611e26578182fd5b611e2f83611cbf565b946020939093013593505050565b600060208284031215611e4e578081fd5b61107682611cdb565b600060208284031215611e68578081fd5b813561107681612229565b600060208284031215611e84578081fd5b815161107681612229565b600060208284031215611ea0578081fd5b813567ffffffffffffffff811115611eb6578182fd5b8201601f81018413611ec6578182fd5b6112c584823560208401611c49565b600060208284031215611ee6578081fd5b5035919050565b60008151808452611f05816020860160208601612151565b601f01601f19169290920160200192915050565b60008251611f2b818460208701612151565b9190910192915050565b60008351611f47818460208801612151565b602f60f81b9083019081528351611f65816001840160208801612151565b64173539b7b760d91b60019290910191820152600601949350505050565b6001600160a01b0385811682528416602082015260408101839052608060608201819052600090611fb690830184611eed565b9695505050505050565b6020808252825182820181905260009190848201906040850190845b81811015611ff857835183529284019291840191600101611fdc565b50909695505050505050565b6020815260006110766020830184611eed565b60208082526032908201527f4552433732313a207472616e7366657220746f206e6f6e20455243373231526560408201527131b2b4bb32b91034b6b83632b6b2b73a32b960711b606082015260800190565b6020808252818101527f4f776e61626c653a2063616c6c6572206973206e6f7420746865206f776e6572604082015260600190565b60208082526031908201527f4552433732313a207472616e736665722063616c6c6572206973206e6f74206f6040820152701ddb995c881b9bdc88185c1c1c9bdd9959607a1b606082015260800190565b60008219821115612102576121026121e7565b500190565b600082612116576121166121fd565b500490565b6000816000190483118215151615612135576121356121e7565b500290565b60008282101561214c5761214c6121e7565b500390565b60005b8381101561216c578181015183820152602001612154565b83811115610f8d5750506000910152565b600181811c9082168061219157607f821691505b602082108114156121b257634e487b7160e01b600052602260045260246000fd5b50919050565b60006000198214156121cc576121cc6121e7565b5060010190565b6000826121e2576121e26121fd565b500690565b634e487b7160e01b600052601160045260246000fd5b634e487b7160e01b600052601260045260246000fd5b634e487b7160e01b600052604160045260246000fd5b6001600160e01b03198116811461111557600080fdfea2646970667358221220b5f5b0eb53c15e86adf5d0f38daeb232c6adfa561aa363015e59f11b40eabacd64736f6c63430008040033",
  "linkReferences": {},
  "deployedLinkReferences": {}
}