{
  "_format": "hh-sol-artifact-1",
  "contractName": "TokenVault",
  "sourceName": "contracts/5_Napas.sol",
  "abi": [
    {
      "anonymous": false,
      "inputs": [
        {
          "indexed": true,
          "internalType": "address",
          "name": "owner",
          "type": "address"
        },
        {
          "indexed": true,
          "internalType": "address",
          "name": "spender",
          "type": "address"
        },
        {
          "indexed": false,
          "internalType": "uint256",
          "name": "value",
          "type": "uint256"
        }
      ],
      "name": "Approval",
      "type": "event"
    },
    {
      "anonymous": false,
      "inputs": [
        {
          "indexed": true,
          "internalType": "address",
          "name": "buyer",
          "type": "address"
        },
        {
          "indexed": false,
          "internalType": "uint256",
          "name": "price",
          "type": "uint256"
        }
      ],
      "name": "Bid",
      "type": "event"
    },
    {
      "anonymous": false,
      "inputs": [
        {
          "indexed": true,
          "internalType": "address",
          "name": "owner",
          "type": "address"
        },
        {
          "indexed": false,
          "internalType": "uint256",
          "name": "shares",
          "type": "uint256"
        }
      ],
      "name": "Cash",
      "type": "event"
    },
    {
      "anonymous": false,
      "inputs": [
        {
          "indexed": false,
          "internalType": "uint256",
          "name": "fee",
          "type": "uint256"
        }
      ],
      "name": "FeeClaimed",
      "type": "event"
    },
    {
      "anonymous": false,
      "inputs": [
        {
          "indexed": true,
          "internalType": "address",
          "name": "user",
          "type": "address"
        },
        {
          "indexed": false,
          "internalType": "uint256",
          "name": "price",
          "type": "uint256"
        }
      ],
      "name": "PriceUpdate",
      "type": "event"
    },
    {
      "anonymous": false,
      "inputs": [
        {
          "indexed": true,
          "internalType": "address",
          "name": "redeemer",
          "type": "address"
        }
      ],
      "name": "Redeem",
      "type": "event"
    },
    {
      "anonymous": false,
      "inputs": [
        {
          "indexed": true,
          "internalType": "address",
          "name": "buyer",
          "type": "address"
        },
        {
          "indexed": false,
          "internalType": "uint256",
          "name": "price",
          "type": "uint256"
        }
      ],
      "name": "Start",
      "type": "event"
    },
    {
      "anonymous": false,
      "inputs": [
        {
          "indexed": true,
          "internalType": "address",
          "name": "from",
          "type": "address"
        },
        {
          "indexed": true,
          "internalType": "address",
          "name": "to",
          "type": "address"
        },
        {
          "indexed": false,
          "internalType": "uint256",
          "name": "value",
          "type": "uint256"
        }
      ],
      "name": "Transfer",
      "type": "event"
    },
    {
      "anonymous": false,
      "inputs": [
        {
          "indexed": false,
          "internalType": "uint256",
          "name": "length",
          "type": "uint256"
        }
      ],
      "name": "UpdateAuctionLength",
      "type": "event"
    },
    {
      "anonymous": false,
      "inputs": [
        {
          "indexed": false,
          "internalType": "uint256",
          "name": "fee",
          "type": "uint256"
        }
      ],
      "name": "UpdateCuratorFee",
      "type": "event"
    },
    {
      "anonymous": false,
      "inputs": [
        {
          "indexed": true,
          "internalType": "address",
          "name": "buyer",
          "type": "address"
        },
        {
          "indexed": false,
          "internalType": "uint256",
          "name": "price",
          "type": "uint256"
        }
      ],
      "name": "Won",
      "type": "event"
    },
    {
      "inputs": [
        {
          "internalType": "address",
          "name": "owner",
          "type": "address"
        },
        {
          "internalType": "address",
          "name": "spender",
          "type": "address"
        }
      ],
      "name": "allowance",
      "outputs": [
        {
          "internalType": "uint256",
          "name": "",
          "type": "uint256"
        }
      ],
      "stateMutability": "view",
      "type": "function"
    },
    {
      "inputs": [
        {
          "internalType": "address",
          "name": "spender",
          "type": "address"
        },
        {
          "internalType": "uint256",
          "name": "amount",
          "type": "uint256"
        }
      ],
      "name": "approve",
      "outputs": [
        {
          "internalType": "bool",
          "name": "",
          "type": "bool"
        }
      ],
      "stateMutability": "nonpayable",
      "type": "function"
    },
    {
      "inputs": [],
      "name": "auctionEnd",
      "outputs": [
        {
          "internalType": "uint256",
          "name": "",
          "type": "uint256"
        }
      ],
      "stateMutability": "view",
      "type": "function"
    },
    {
      "inputs": [],
      "name": "auctionLength",
      "outputs": [
        {
          "internalType": "uint256",
          "name": "",
          "type": "uint256"
        }
      ],
      "stateMutability": "view",
      "type": "function"
    },
    {
      "inputs": [],
      "name": "auctionState",
      "outputs": [
        {
          "internalType": "enum TokenVault.State",
          "name": "",
          "type": "uint8"
        }
      ],
      "stateMutability": "view",
      "type": "function"
    },
    {
      "inputs": [
        {
          "internalType": "address",
          "name": "account",
          "type": "address"
        }
      ],
      "name": "balanceOf",
      "outputs": [
        {
          "internalType": "uint256",
          "name": "",
          "type": "uint256"
        }
      ],
      "stateMutability": "view",
      "type": "function"
    },
    {
      "inputs": [],
      "name": "bid",
      "outputs": [],
      "stateMutability": "payable",
      "type": "function"
    },
    {
      "inputs": [],
      "name": "cash",
      "outputs": [],
      "stateMutability": "nonpayable",
      "type": "function"
    },
    {
      "inputs": [],
      "name": "claimFees",
      "outputs": [],
      "stateMutability": "nonpayable",
      "type": "function"
    },
    {
      "inputs": [],
      "name": "curator",
      "outputs": [
        {
          "internalType": "address",
          "name": "",
          "type": "address"
        }
      ],
      "stateMutability": "view",
      "type": "function"
    },
    {
      "inputs": [],
      "name": "decimals",
      "outputs": [
        {
          "internalType": "uint8",
          "name": "",
          "type": "uint8"
        }
      ],
      "stateMutability": "view",
      "type": "function"
    },
    {
      "inputs": [
        {
          "internalType": "address",
          "name": "spender",
          "type": "address"
        },
        {
          "internalType": "uint256",
          "name": "subtractedValue",
          "type": "uint256"
        }
      ],
      "name": "decreaseAllowance",
      "outputs": [
        {
          "internalType": "bool",
          "name": "",
          "type": "bool"
        }
      ],
      "stateMutability": "nonpayable",
      "type": "function"
    },
    {
      "inputs": [],
      "name": "end",
      "outputs": [],
      "stateMutability": "nonpayable",
      "type": "function"
    },
    {
      "inputs": [],
      "name": "fee",
      "outputs": [
        {
          "internalType": "uint256",
          "name": "",
          "type": "uint256"
        }
      ],
      "stateMutability": "view",
      "type": "function"
    },
    {
      "inputs": [],
      "name": "id",
      "outputs": [
        {
          "internalType": "uint256",
          "name": "",
          "type": "uint256"
        }
      ],
      "stateMutability": "view",
      "type": "function"
    },
    {
      "inputs": [
        {
          "internalType": "address",
          "name": "spender",
          "type": "address"
        },
        {
          "internalType": "uint256",
          "name": "addedValue",
          "type": "uint256"
        }
      ],
      "name": "increaseAllowance",
      "outputs": [
        {
          "internalType": "bool",
          "name": "",
          "type": "bool"
        }
      ],
      "stateMutability": "nonpayable",
      "type": "function"
    },
    {
      "inputs": [
        {
          "internalType": "address",
          "name": "_settings",
          "type": "address"
        },
        {
          "internalType": "address",
          "name": "_curator",
          "type": "address"
        },
        {
          "internalType": "address",
          "name": "_token",
          "type": "address"
        },
        {
          "internalType": "uint256",
          "name": "_id",
          "type": "uint256"
        },
        {
          "internalType": "uint256",
          "name": "_supply",
          "type": "uint256"
        },
        {
          "internalType": "uint256",
          "name": "_listPrice",
          "type": "uint256"
        },
        {
          "internalType": "uint256",
          "name": "_fee",
          "type": "uint256"
        },
        {
          "internalType": "string",
          "name": "_name",
          "type": "string"
        },
        {
          "internalType": "string",
          "name": "_symbol",
          "type": "string"
        }
      ],
      "name": "initialize",
      "outputs": [],
      "stateMutability": "nonpayable",
      "type": "function"
    },
    {
      "inputs": [
        {
          "internalType": "address",
          "name": "_curator",
          "type": "address"
        }
      ],
      "name": "kickCurator",
      "outputs": [],
      "stateMutability": "nonpayable",
      "type": "function"
    },
    {
      "inputs": [],
      "name": "lastClaimed",
      "outputs": [
        {
          "internalType": "uint256",
          "name": "",
          "type": "uint256"
        }
      ],
      "stateMutability": "view",
      "type": "function"
    },
    {
      "inputs": [],
      "name": "livePrice",
      "outputs": [
        {
          "internalType": "uint256",
          "name": "",
          "type": "uint256"
        }
      ],
      "stateMutability": "view",
      "type": "function"
    },
    {
      "inputs": [],
      "name": "name",
      "outputs": [
        {
          "internalType": "string",
          "name": "",
          "type": "string"
        }
      ],
      "stateMutability": "view",
      "type": "function"
    },
    {
      "inputs": [
        {
          "internalType": "address",
          "name": "",
          "type": "address"
        },
        {
          "internalType": "address",
          "name": "",
          "type": "address"
        },
        {
          "internalType": "uint256",
          "name": "",
          "type": "uint256"
        },
        {
          "internalType": "bytes",
          "name": "",
          "type": "bytes"
        }
      ],
      "name": "onERC721Received",
      "outputs": [
        {
          "internalType": "bytes4",
          "name": "",
          "type": "bytes4"
        }
      ],
      "stateMutability": "nonpayable",
      "type": "function"
    },
    {
      "inputs": [],
      "name": "redeem",
      "outputs": [],
      "stateMutability": "nonpayable",
      "type": "function"
    },
    {
      "inputs": [
        {
          "internalType": "address",
          "name": "_user",
          "type": "address"
        }
      ],
      "name": "removeReserve",
      "outputs": [],
      "stateMutability": "nonpayable",
      "type": "function"
    },
    {
      "inputs": [],
      "name": "reservePrice",
      "outputs": [
        {
          "internalType": "uint256",
          "name": "",
          "type": "uint256"
        }
      ],
      "stateMutability": "view",
      "type": "function"
    },
    {
      "inputs": [],
      "name": "reserveTotal",
      "outputs": [
        {
          "internalType": "uint256",
          "name": "",
          "type": "uint256"
        }
      ],
      "stateMutability": "view",
      "type": "function"
    },
    {
      "inputs": [],
      "name": "settings",
      "outputs": [
        {
          "internalType": "address",
          "name": "",
          "type": "address"
        }
      ],
      "stateMutability": "view",
      "type": "function"
    },
    {
      "inputs": [],
      "name": "start",
      "outputs": [],
      "stateMutability": "payable",
      "type": "function"
    },
    {
      "inputs": [],
      "name": "symbol",
      "outputs": [
        {
          "internalType": "string",
          "name": "",
          "type": "string"
        }
      ],
      "stateMutability": "view",
      "type": "function"
    },
    {
      "inputs": [],
      "name": "token",
      "outputs": [
        {
          "internalType": "address",
          "name": "",
          "type": "address"
        }
      ],
      "stateMutability": "view",
      "type": "function"
    },
    {
      "inputs": [],
      "name": "totalSupply",
      "outputs": [
        {
          "internalType": "uint256",
          "name": "",
          "type": "uint256"
        }
      ],
      "stateMutability": "view",
      "type": "function"
    },
    {
      "inputs": [
        {
          "internalType": "address",
          "name": "to",
          "type": "address"
        },
        {
          "internalType": "uint256",
          "name": "amount",
          "type": "uint256"
        }
      ],
      "name": "transfer",
      "outputs": [
        {
          "internalType": "bool",
          "name": "",
          "type": "bool"
        }
      ],
      "stateMutability": "nonpayable",
      "type": "function"
    },
    {
      "inputs": [
        {
          "internalType": "address",
          "name": "from",
          "type": "address"
        },
        {
          "internalType": "address",
          "name": "to",
          "type": "address"
        },
        {
          "internalType": "uint256",
          "name": "amount",
          "type": "uint256"
        }
      ],
      "name": "transferFrom",
      "outputs": [
        {
          "internalType": "bool",
          "name": "",
          "type": "bool"
        }
      ],
      "stateMutability": "nonpayable",
      "type": "function"
    },
    {
      "inputs": [
        {
          "internalType": "uint256",
          "name": "_length",
          "type": "uint256"
        }
      ],
      "name": "updateAuctionLength",
      "outputs": [],
      "stateMutability": "nonpayable",
      "type": "function"
    },
    {
      "inputs": [
        {
          "internalType": "address",
          "name": "_curator",
          "type": "address"
        }
      ],
      "name": "updateCurator",
      "outputs": [],
      "stateMutability": "nonpayable",
      "type": "function"
    },
    {
      "inputs": [
        {
          "internalType": "uint256",
          "name": "_fee",
          "type": "uint256"
        }
      ],
      "name": "updateFee",
      "outputs": [],
      "stateMutability": "nonpayable",
      "type": "function"
    },
    {
      "inputs": [
        {
          "internalType": "uint256",
          "name": "_new",
          "type": "uint256"
        }
      ],
      "name": "updateUserPrice",
      "outputs": [],
      "stateMutability": "nonpayable",
      "type": "function"
    },
    {
      "inputs": [
        {
          "internalType": "address",
          "name": "",
          "type": "address"
        }
      ],
      "name": "userPrices",
      "outputs": [
        {
          "internalType": "uint256",
          "name": "",
          "type": "uint256"
        }
      ],
      "stateMutability": "view",
      "type": "function"
    },
    {
      "inputs": [],
      "name": "vaultClosed",
      "outputs": [
        {
          "internalType": "bool",
          "name": "",
          "type": "bool"
        }
      ],
      "stateMutability": "view",
      "type": "function"
    },
    {
      "inputs": [],
      "name": "version",
      "outputs": [
        {
          "internalType": "string",
          "name": "",
          "type": "string"
        }
      ],
      "stateMutability": "view",
      "type": "function"
    },
    {
      "inputs": [],
      "name": "votingTokens",
      "outputs": [
        {
          "internalType": "uint256",
          "name": "",
          "type": "uint256"
        }
      ],
      "stateMutability": "view",
      "type": "function"
    },
    {
      "inputs": [],
      "name": "weth",
      "outputs": [
        {
          "internalType": "address",
          "name": "",
          "type": "address"
        }
      ],
      "stateMutability": "view",
      "type": "function"
    },
    {
      "inputs": [],
      "name": "winning",
      "outputs": [
        {
          "internalType": "address payable",
          "name": "",
          "type": "address"
        }
      ],
      "stateMutability": "view",
      "type": "function"
    }
  ],
  "bytecode": "0x608060405234801561001057600080fd5b50613217806100206000396000f3fe60806040526004361061025c5760003560e01c806380436fe011610144578063be9a6555116100b6578063ddca3f431161007a578063ddca3f4314610712578063e06174e414610728578063e52b064e14610748578063e66f53b714610768578063efbe1c1c14610788578063fc0c546a1461079d57600080fd5b8063be9a65551461066d578063c91de64914610675578063d294f093146106a2578063db2e1eed146106b7578063dd62ed3e146106cc57600080fd5b80639a4e6d34116101085780639a4e6d34146105d6578063a457c2d7146105ec578063a9059cbb1461060c578063adc1b9561461062c578063af640d0f14610642578063be040fb01461065857600080fd5b806380436fe01461054c578063853a1b901461056c5780639012c4a81461058c57806395d89b41146105ac578063961be391146105c157600080fd5b8063313ce567116101dd5780635c9920fc116101a15780635c9920fc146104825780636a7757141461049c5780636da84e6c146104bc57806370a08231146104d25780637b5581ed146105085780637fb450991461051e57600080fd5b8063313ce567146103bf578063325c25a2146103db57806339509351146103f15780633fc8cef31461041157806354fd4d501461045157600080fd5b80631998aeef116102245780631998aeef1461034157806323b872dd146103495780632a24f46c146103695780632a44f1201461037f5780632bf33bd91461039f57600080fd5b806306fdde0314610261578063095ea7b31461028c5780630c6a62dd146102bc578063150b7a02146102de57806318160ddd14610322575b600080fd5b34801561026d57600080fd5b506102766107bd565b6040516102839190612fe3565b60405180910390f35b34801561029857600080fd5b506102ac6102a7366004612f40565b61084f565b6040519015158152602001610283565b3480156102c857600080fd5b506102dc6102d7366004612d55565b610867565b005b3480156102ea57600080fd5b506103096102f9366004612ec3565b630a85bd0160e11b949350505050565b6040516001600160e01b03199091168152602001610283565b34801561032e57600080fd5b506035545b604051908152602001610283565b6102dc6108bc565b34801561035557600080fd5b506102ac610364366004612e83565b610afd565b34801561037557600080fd5b5061033360995481565b34801561038b57600080fd5b506102dc61039a366004612d55565b610b21565b3480156103ab57600080fd5b506102dc6103ba366004612f8b565b610bf6565b3480156103cb57600080fd5b5060405160128152602001610283565b3480156103e757600080fd5b50610333609a5481565b3480156103fd57600080fd5b506102ac61040c366004612f40565b610dc6565b34801561041d57600080fd5b5061043973c778417e063141139fce010982780140aa0cd5ab81565b6040516001600160a01b039091168152602001610283565b34801561045d57600080fd5b5061027660405180604001604052806005815260200164302e302e3160d81b81525081565b34801561048e57600080fd5b5060a2546102ac9060ff1681565b3480156104a857600080fd5b506102dc6104b7366004612f8b565b610e05565b3480156104c857600080fd5b50610333609c5481565b3480156104de57600080fd5b506103336104ed366004612d55565b6001600160a01b031660009081526033602052604090205490565b34801561051457600080fd5b50610333609b5481565b34801561052a57600080fd5b50609d5461053f90600160a01b900460ff1681565b6040516102839190612fbb565b34801561055857600080fd5b506102dc610567366004612d55565b611413565b34801561057857600080fd5b50609d54610439906001600160a01b031681565b34801561059857600080fd5b506102dc6105a7366004612f8b565b61162f565b3480156105b857600080fd5b506102766117bf565b3480156105cd57600080fd5b506102dc6117ce565b3480156105e257600080fd5b5061033360a35481565b3480156105f857600080fd5b506102ac610607366004612f40565b611914565b34801561061857600080fd5b506102ac610627366004612f40565b6119a6565b34801561063857600080fd5b5061033360a15481565b34801561064e57600080fd5b5061033360985481565b34801561066457600080fd5b506102dc6119b4565b6102dc611ae5565b34801561068157600080fd5b50610333610690366004612d55565b60a46020526000908152604090205481565b3480156106ae57600080fd5b506102dc611d06565b3480156106c357600080fd5b50610333611d10565b3480156106d857600080fd5b506103336106e7366004612d8d565b6001600160a01b03918216600090815260346020908152604080832093909416825291909152205490565b34801561071e57600080fd5b5061033360a05481565b34801561073457600080fd5b50609e54610439906001600160a01b031681565b34801561075457600080fd5b506102dc610763366004612dc5565b611d37565b34801561077457600080fd5b50609f54610439906001600160a01b031681565b34801561079457600080fd5b506102dc611e83565b3480156107a957600080fd5b50609754610439906001600160a01b031681565b6060603680546107cc90613162565b80601f01602080910402602001604051908101604052809291908181526020018280546107f890613162565b80156108455780601f1061081a57610100808354040283529160200191610845565b820191906000526020600020905b81548152906001019060200180831161082857829003601f168201915b5050505050905090565b60003361085d818585612011565b5060019392505050565b609f546001600160a01b0316331461089a5760405162461bcd60e51b815260040161089190613036565b60405180910390fd5b609f80546001600160a01b0319166001600160a01b0392909216919091179055565b6001609d54600160a01b900460ff1660038111156108ea57634e487b7160e01b600052602160045260246000fd5b146109375760405162461bcd60e51b815260206004820152601760248201527f6269643a61756374696f6e206973206e6f74206c6976650000000000000000006044820152606401610891565b609e5460408051637c513c0f60e01b815290516000926001600160a01b031691637c513c0f91600480830192602092919082900301818787803b15801561097d57600080fd5b505af1158015610991573d6000803e3d6000fd5b505050506040513d601f19601f820116820180604052508101906109b59190612fa3565b6109c1906103e86130f4565b905080609c546109d1919061312c565b6109dd346103e861312c565b1015610a1d5760405162461bcd60e51b815260206004820152600f60248201526e189a590e9d1bdbc81b1bddc8189a59608a1b6044820152606401610891565b6099544210610a625760405162461bcd60e51b8152602060048201526011602482015270189a590e985d58dd1a5bdb88195b991959607a1b6044820152606401610891565b61038442609954610a73919061314b565b11610a925761038460996000828254610a8c91906130f4565b90915550505b609d54609c54610aab916001600160a01b031690612135565b34609c819055609d80546001600160a01b03191633908117909155604051918252907fe684a55f31b79eca403df938249029212a5925ec6be8012e099b45bc1019e5d29060200160405180910390a250565b600033610b0b858285612246565b610b168585856122d8565b506001949350505050565b609e60009054906101000a90046001600160a01b03166001600160a01b0316638da5cb5b6040518163ffffffff1660e01b815260040160206040518083038186803b158015610b6f57600080fd5b505afa158015610b83573d6000803e3d6000fd5b505050506040513d601f19601f82011682018060405250810190610ba79190612d71565b6001600160a01b0316336001600160a01b03161461089a5760405162461bcd60e51b815260206004820152600c60248201526b35b4b1b59d3737ba1033b7bb60a11b6044820152606401610891565b609f546001600160a01b03163314610c205760405162461bcd60e51b815260040161089190613036565b609e60009054906101000a90046001600160a01b03166001600160a01b031663a0b335e36040518163ffffffff1660e01b8152600401602060405180830381600087803b158015610c7057600080fd5b505af1158015610c84573d6000803e3d6000fd5b505050506040513d601f19601f82011682018060405250810190610ca89190612fa3565b8110158015610d3e5750609e60009054906101000a90046001600160a01b03166001600160a01b0316630e519ef96040518163ffffffff1660e01b8152600401602060405180830381600087803b158015610d0257600080fd5b505af1158015610d16573d6000803e3d6000fd5b505050506040513d601f19601f82011682018060405250810190610d3a9190612fa3565b8111155b610d8a5760405162461bcd60e51b815260206004820152601d60248201527f7570646174653a696e76616c69642061756374696f6e206c656e6774680000006044820152606401610891565b609a8190556040518181527f4ab86ae701798277aa378943b9dfd155d3b19703cd57be298908fadd32f7bf46906020015b60405180910390a150565b3360008181526034602090815260408083206001600160a01b038716845290915281205490919061085d9082908690610e009087906130f4565b612011565b6000609d54600160a01b900460ff166003811115610e3357634e487b7160e01b600052602160045260246000fd5b14610e505760405162461bcd60e51b8152600401610891906130ad565b33600090815260a4602052604090205481811415610ea75760405162461bcd60e51b81526020600482015260146024820152737570646174653a6e6f7420616e2075706461746560601b6044820152606401610891565b3360009081526033602052604090205460a354610ed55760a3819055610ecd838261312c565b609b556113c2565b60a35481148015610ee557508115155b15610ef457610ecd838261312c565b8161113457600060a354609b54610f0b919061310c565b905060006103e8609e60009054906101000a90046001600160a01b03166001600160a01b03166309990a966040518163ffffffff1660e01b8152600401602060405180830381600087803b158015610f6257600080fd5b505af1158015610f76573d6000803e3d6000fd5b505050506040513d601f19601f82011682018060405250810190610f9a9190612fa3565b610fa4908461312c565b610fae919061310c565b9050808510156110005760405162461bcd60e51b815260206004820152601c60248201527f7570646174653a7265736572766520707269636520746f6f206c6f77000000006044820152606401610891565b60006103e8609e60009054906101000a90046001600160a01b03166001600160a01b0316635410bfc96040518163ffffffff1660e01b8152600401602060405180830381600087803b15801561105557600080fd5b505af1158015611069573d6000803e3d6000fd5b505050506040513d601f19601f8201168201806040525081019061108d9190612fa3565b611097908561312c565b6110a1919061310c565b9050808611156110f35760405162461bcd60e51b815260206004820152601d60248201527f7570646174653a7265736572766520707269636520746f6f20686967680000006044820152606401610891565b8360a3600082825461110591906130f4565b909155506111159050868561312c565b609b600082825461112691906130f4565b909155506113c29350505050565b82611177578060a3600082825461114b919061314b565b9091555061115b9050828261312c565b609b600082825461116c919061314b565b909155506113c29050565b60008160a354611187919061314b565b611191838561312c565b609b5461119e919061314b565b6111a8919061310c565b905060006103e8609e60009054906101000a90046001600160a01b03166001600160a01b03166309990a966040518163ffffffff1660e01b8152600401602060405180830381600087803b1580156111ff57600080fd5b505af1158015611213573d6000803e3d6000fd5b505050506040513d601f19601f820116820180604052508101906112379190612fa3565b611241908461312c565b61124b919061310c565b90508085101561129d5760405162461bcd60e51b815260206004820152601c60248201527f7570646174653a7265736572766520707269636520746f6f206c6f77000000006044820152606401610891565b60006103e8609e60009054906101000a90046001600160a01b03166001600160a01b0316635410bfc96040518163ffffffff1660e01b8152600401602060405180830381600087803b1580156112f257600080fd5b505af1158015611306573d6000803e3d6000fd5b505050506040513d601f19601f8201168201806040525081019061132a9190612fa3565b611334908561312c565b61133e919061310c565b9050808611156113905760405162461bcd60e51b815260206004820152601d60248201527f7570646174653a7265736572766520707269636520746f6f20686967680000006044820152606401610891565b61139a858561312c565b6113a4878661312c565b609b546113b191906130f4565b6113bb919061314b565b609b555050505b33600081815260a4602052604090819020859055517f64e6e7bd72b853c4e62fd6ceaca05a104700c70a4cb567c75c7f2242ba7f037c906114069086815260200190565b60405180910390a2505050565b609e60009054906101000a90046001600160a01b03166001600160a01b0316638da5cb5b6040518163ffffffff1660e01b815260040160206040518083038186803b15801561146157600080fd5b505afa158015611475573d6000803e3d6000fd5b505050506040513d601f19601f820116820180604052508101906114999190612d71565b6001600160a01b0316336001600160a01b0316146114ea5760405162461bcd60e51b815260206004820152600e60248201526d3932b6b7bb329d3737ba1033b7bb60911b6044820152606401610891565b6000609d54600160a01b900460ff16600381111561151857634e487b7160e01b600052602160045260246000fd5b146115355760405162461bcd60e51b8152600401610891906130ad565b6001600160a01b038116600090815260a46020526040902054806115925760405162461bcd60e51b81526020600482015260146024820152737570646174653a6e6f7420616e2075706461746560601b6044820152606401610891565b6001600160a01b03821660009081526033602052604081205490508060a360008282546115bf919061314b565b909155506115cf9050828261312c565b609b60008282546115e0919061314b565b90915550506001600160a01b038316600081815260a460209081526040808320839055519182527f64e6e7bd72b853c4e62fd6ceaca05a104700c70a4cb567c75c7f2242ba7f037c9101611406565b609f546001600160a01b031633146116595760405162461bcd60e51b815260040161089190613036565b60a054811061169f5760405162461bcd60e51b81526020600482015260126024820152717570646174653a63616e277420726169736560701b6044820152606401610891565b609e60009054906101000a90046001600160a01b03166001600160a01b0316638a364bc16040518163ffffffff1660e01b8152600401602060405180830381600087803b1580156116ef57600080fd5b505af1158015611703573d6000803e3d6000fd5b505050506040513d601f19601f820116820180604052508101906117279190612fa3565b8111156117825760405162461bcd60e51b8152602060048201526024808201527f7570646174653a63616e6e6f7420696e637265617365206665652074686973206044820152630d0d2ced60e31b6064820152608401610891565b61178a6124b7565b60a08190556040518181527f2d1dae59a9e9ec0bc2ab19d45b7d10c8c55304fa08b40a7998e9f67f03223d0490602001610dbb565b6060603780546107cc90613162565b6002609d54600160a01b900460ff1660038111156117fc57634e487b7160e01b600052602160045260246000fd5b146118495760405162461bcd60e51b815260206004820152601960248201527f636173683a7661756c74206e6f7420636c6f73656420796574000000000000006044820152606401610891565b33600090815260336020526040902054806118a65760405162461bcd60e51b815260206004820152601a60248201527f636173683a6e6f20746f6b656e7320746f2063617368206f75740000000000006044820152606401610891565b60006118b160355490565b6118bb478461312c565b6118c5919061310c565b90506118d133836127a8565b6118db3382612135565b60405181815233907f730831a1e4aa2d187ddd8e03d7beeac760a3927da5f112d645e0f8df7494b3679060200160405180910390a25050565b3360008181526034602090815260408083206001600160a01b0387168452909152812054909190838110156119995760405162461bcd60e51b815260206004820152602560248201527f45524332303a2064656372656173656420616c6c6f77616e63652062656c6f77604482015264207a65726f60d81b6064820152608401610891565b610b168286868403612011565b60003361085d8185856122d8565b6000609d54600160a01b900460ff1660038111156119e257634e487b7160e01b600052602160045260246000fd5b14611a255760405162461bcd60e51b815260206004820152601360248201527272656465656d3a6e6f2072656465656d696e6760681b6044820152606401610891565b611a3733611a3260355490565b6127a8565b6097546098546040516323b872dd60e01b815230600482015233602482015260448101919091526001600160a01b03909116906323b872dd90606401600060405180830381600087803b158015611a8d57600080fd5b505af1158015611aa1573d6000803e3d6000fd5b5050609d805460ff60a01b1916600360a01b179055505060405133907fd1b5ea7fe0f1c2fa09d49c2aa9b2200664ba57a734f1d95481d95b7f99af991c90600090a2565b6000609d54600160a01b900460ff166003811115611b1357634e487b7160e01b600052602160045260246000fd5b14611b605760405162461bcd60e51b815260206004820152601760248201527f73746172743a6e6f2061756374696f6e207374617274730000000000000000006044820152606401610891565b611b68611d10565b341015611bab5760405162461bcd60e51b81526020600482015260116024820152701cdd185c9d0e9d1bdbc81b1bddc8189a59607a1b6044820152606401610891565b603554609e60009054906101000a90046001600160a01b03166001600160a01b03166332977c736040518163ffffffff1660e01b8152600401602060405180830381600087803b158015611bfe57600080fd5b505af1158015611c12573d6000803e3d6000fd5b505050506040513d601f19601f82011682018060405250810190611c369190612fa3565b611c40919061312c565b60a354611c4f906103e861312c565b1015611c9d5760405162461bcd60e51b815260206004820152601760248201527f73746172743a6e6f7420656e6f75676820766f746572730000000000000000006044820152606401610891565b609a54611caa90426130f4565b609955609d805434609c8190556001600160a81b031990911633908117600160a01b179092556040519081527fcfb9c5312b25ec7b809d61e638df25f749eae5d5c25399e1c93d1d319bfd5821906020015b60405180910390a2565b611d0e6124b7565b565b600060a354600014611d315760a354609b54611d2c919061310c565b905090565b50600090565b600054610100900460ff16611d525760005460ff1615611d56565b303b155b611db95760405162461bcd60e51b815260206004820152602e60248201527f496e697469616c697a61626c653a20636f6e747261637420697320616c72656160448201526d191e481a5b9a5d1a585b1a5e995960921b6064820152608401610891565b600054610100900460ff16158015611ddb576000805461ffff19166101011790555b611de58383612909565b611ded61293a565b609e80546001600160a01b038c81166001600160a01b031992831617909255609780548b841690831617905560988990556203f480609a55609f8054928c16929091168217905560a08590554260a155609d805460ff60a01b19169055600090815260a460205260409020859055611e658987612961565b8015611e77576000805461ff00191690555b50505050505050505050565b6001609d54600160a01b900460ff166003811115611eb157634e487b7160e01b600052602160045260246000fd5b14611efe5760405162461bcd60e51b815260206004820152601c60248201527f656e643a7661756c742068617320616c726561647920636c6f736564000000006044820152606401610891565b609954421015611f435760405162461bcd60e51b815260206004820152601060248201526f656e643a61756374696f6e206c69766560801b6044820152606401610891565b611f4b6124b7565b609754609d546098546040516323b872dd60e01b81523060048201526001600160a01b03928316602482015260448101919091529116906323b872dd90606401600060405180830381600087803b158015611fa557600080fd5b505af1158015611fb9573d6000803e3d6000fd5b5050609d8054600160a11b60ff60a01b19821617909155609c546040519081526001600160a01b0390911692507f8b01f9dd0400d6a1e84369a5fb8f6033934856ffa8ebadd707dca302ab5516959150602001611cfc565b6001600160a01b0383166120735760405162461bcd60e51b8152602060048201526024808201527f45524332303a20617070726f76652066726f6d20746865207a65726f206164646044820152637265737360e01b6064820152608401610891565b6001600160a01b0382166120d45760405162461bcd60e51b815260206004820152602260248201527f45524332303a20617070726f766520746f20746865207a65726f206164647265604482015261737360f01b6064820152608401610891565b6001600160a01b0383811660008181526034602090815260408083209487168084529482529182902085905590518481527f8c5be1e5ebec7d5bd14f71427d1e84f3dd0314c0f7b2291e5b200ac8c7c3b925910160405180910390a3505050565b61213f8282612a54565b6122425773c778417e063141139fce010982780140aa0cd5ab6001600160a01b031663d0e30db0826040518263ffffffff1660e01b81526004016000604051808303818588803b15801561219257600080fd5b505af11580156121a6573d6000803e3d6000fd5b505060405163a9059cbb60e01b81526001600160a01b03861660048201526024810185905273c778417e063141139fce010982780140aa0cd5ab935063a9059cbb92506044019050602060405180830381600087803b15801561220857600080fd5b505af115801561221c573d6000803e3d6000fd5b505050506040513d601f19601f820116820180604052508101906122409190612f6b565b505b5050565b6001600160a01b0383811660009081526034602090815260408083209386168352929052205460001981146122d257818110156122c55760405162461bcd60e51b815260206004820152601d60248201527f45524332303a20696e73756666696369656e7420616c6c6f77616e63650000006044820152606401610891565b6122d28484848403612011565b50505050565b6001600160a01b03831661233c5760405162461bcd60e51b815260206004820152602560248201527f45524332303a207472616e736665722066726f6d20746865207a65726f206164604482015264647265737360d81b6064820152608401610891565b6001600160a01b03821661239e5760405162461bcd60e51b815260206004820152602360248201527f45524332303a207472616e7366657220746f20746865207a65726f206164647260448201526265737360e81b6064820152608401610891565b6123a9838383612ab7565b6001600160a01b038316600090815260336020526040902054818110156124215760405162461bcd60e51b815260206004820152602660248201527f45524332303a207472616e7366657220616d6f756e7420657863656564732062604482015265616c616e636560d01b6064820152608401610891565b6001600160a01b038085166000908152603360205260408082208585039055918516815290812080548492906124589084906130f4565b92505081905550826001600160a01b0316846001600160a01b03167fddf252ad1be2c89b69c2b068fc378daa952ba7f163c4a11628f55a4df523b3ef846040516124a491815260200190565b60405180910390a36122d2848484612240565b6002609d54600160a01b900460ff1660038111156124e557634e487b7160e01b600052602160045260246000fd5b14156125415760405162461bcd60e51b815260206004820152602560248201527f636c61696d3a63616e6e6f7420636c61696d2061667465722061756374696f6e60448201526420656e647360d81b6064820152608401610891565b60006103e861254f60355490565b60a05461255c919061312c565b612566919061310c565b905060006125786301e133808361310c565b9050600060a1544261258a919061314b565b90506000612598838361312c565b90506000609e60009054906101000a90046001600160a01b03166001600160a01b031663b3f006746040518163ffffffff1660e01b8152600401602060405180830381600087803b1580156125ec57600080fd5b505af1158015612600573d6000803e3d6000fd5b505050506040513d601f19601f820116820180604052508101906126249190612d71565b90506000609e60009054906101000a90046001600160a01b03166001600160a01b0316630ea90a126040518163ffffffff1660e01b8152600401602060405180830381600087803b15801561267857600080fd5b505af115801561268c573d6000803e3d6000fd5b505050506040513d601f19601f820116820180604052508101906126b09190612fa3565b90506103e86126be60355490565b6126c8908361312c565b6126d2919061310c565b95506126e26301e133808761310c565b945060006126f0868661312c565b4260a155609f549091506001600160a01b03161561275257609f5461271e906001600160a01b031685612961565b6040518481527f62b10e3ff3d45b5ff546e740b893897facb1680285f989a64ae932d62c5388e19060200160405180910390a15b6001600160a01b0383161561279f5761276b8382612961565b6040518181527f62b10e3ff3d45b5ff546e740b893897facb1680285f989a64ae932d62c5388e19060200160405180910390a15b50505050505050565b6001600160a01b0382166128085760405162461bcd60e51b815260206004820152602160248201527f45524332303a206275726e2066726f6d20746865207a65726f206164647265736044820152607360f81b6064820152608401610891565b61281482600083612ab7565b6001600160a01b038216600090815260336020526040902054818110156128885760405162461bcd60e51b815260206004820152602260248201527f45524332303a206275726e20616d6f756e7420657863656564732062616c616e604482015261636560f01b6064820152608401610891565b6001600160a01b03831660009081526033602052604081208383039055603580548492906128b790849061314b565b90915550506040518281526000906001600160a01b038516907fddf252ad1be2c89b69c2b068fc378daa952ba7f163c4a11628f55a4df523b3ef9060200160405180910390a361224083600084612240565b600054610100900460ff166129305760405162461bcd60e51b815260040161089190613062565b6122428282612bc6565b600054610100900460ff16611d0e5760405162461bcd60e51b815260040161089190613062565b6001600160a01b0382166129b75760405162461bcd60e51b815260206004820152601f60248201527f45524332303a206d696e7420746f20746865207a65726f2061646472657373006044820152606401610891565b6129c360008383612ab7565b80603560008282546129d591906130f4565b90915550506001600160a01b03821660009081526033602052604081208054839290612a029084906130f4565b90915550506040518181526001600160a01b038316906000907fddf252ad1be2c89b69c2b068fc378daa952ba7f163c4a11628f55a4df523b3ef9060200160405180910390a361224260008383612240565b600080836001600160a01b03168361753090604051600060405180830381858888f193505050503d8060008114612aa7576040519150601f19603f3d011682016040523d82523d6000602084013e612aac565b606091505b509095945050505050565b6000609d54600160a01b900460ff166003811115612ae557634e487b7160e01b600052602160045260246000fd5b1415612240576001600160a01b03808416600090815260a46020526040808220549285168252902054808214612bbf5780612b58578260a36000828254612b2c919061314b565b90915550612b3c9050828461312c565b609b6000828254612b4d919061314b565b90915550612bbf9050565b81612b90578260a36000828254612b6f91906130f4565b90915550612b7f9050818461312c565b609b6000828254612b4d91906130f4565b612b9a828461312c565b612ba4828561312c565b609b54612bb191906130f4565b612bbb919061314b565b609b555b5050505050565b600054610100900460ff16612bed5760405162461bcd60e51b815260040161089190613062565b8151612c00906036906020850190612c10565b5080516122409060379060208401905b828054612c1c90613162565b90600052602060002090601f016020900481019282612c3e5760008555612c84565b82601f10612c5757805160ff1916838001178555612c84565b82800160010185558215612c84579182015b82811115612c84578251825591602001919060010190612c69565b50612c90929150612c94565b5090565b5b80821115612c905760008155600101612c95565b600067ffffffffffffffff80841115612cc457612cc46131b3565b604051601f8501601f19908116603f01168101908282118183101715612cec57612cec6131b3565b81604052809350858152868686011115612d0557600080fd5b858560208301376000602087830101525050509392505050565b8035612d2a816131c9565b919050565b600082601f830112612d3f578081fd5b612d4e83833560208501612ca9565b9392505050565b600060208284031215612d66578081fd5b8135612d4e816131c9565b600060208284031215612d82578081fd5b8151612d4e816131c9565b60008060408385031215612d9f578081fd5b8235612daa816131c9565b91506020830135612dba816131c9565b809150509250929050565b60008060008060008060008060006101208a8c031215612de3578485fd5b8935612dee816131c9565b985060208a0135612dfe816131c9565b9750612e0c60408b01612d1f565b965060608a0135955060808a0135945060a08a0135935060c08a0135925060e08a013567ffffffffffffffff80821115612e44578384fd5b612e508d838e01612d2f565b93506101008c0135915080821115612e66578283fd5b50612e738c828d01612d2f565b9150509295985092959850929598565b600080600060608486031215612e97578283fd5b8335612ea2816131c9565b92506020840135612eb2816131c9565b929592945050506040919091013590565b60008060008060808587031215612ed8578384fd5b8435612ee3816131c9565b93506020850135612ef3816131c9565b925060408501359150606085013567ffffffffffffffff811115612f15578182fd5b8501601f81018713612f25578182fd5b612f3487823560208401612ca9565b91505092959194509250565b60008060408385031215612f52578182fd5b8235612f5d816131c9565b946020939093013593505050565b600060208284031215612f7c578081fd5b81518015158114612d4e578182fd5b600060208284031215612f9c578081fd5b5035919050565b600060208284031215612fb4578081fd5b5051919050565b6020810160048310612fdd57634e487b7160e01b600052602160045260246000fd5b91905290565b6000602080835283518082850152825b8181101561300f57858101830151858201604001528201612ff3565b818111156130205783604083870101525b50601f01601f1916929092016040019392505050565b6020808252601290820152713ab83230ba329d3737ba1031bab930ba37b960711b604082015260600190565b6020808252602b908201527f496e697469616c697a61626c653a20636f6e7472616374206973206e6f74206960408201526a6e697469616c697a696e6760a81b606082015260800190565b60208082526027908201527f7570646174653a61756374696f6e206c6976652063616e6e6f742075706461746040820152666520707269636560c81b606082015260800190565b600082198211156131075761310761319d565b500190565b60008261312757634e487b7160e01b81526012600452602481fd5b500490565b60008160001904831182151516156131465761314661319d565b500290565b60008282101561315d5761315d61319d565b500390565b600181811c9082168061317657607f821691505b6020821081141561319757634e487b7160e01b600052602260045260246000fd5b50919050565b634e487b7160e01b600052601160045260246000fd5b634e487b7160e01b600052604160045260246000fd5b6001600160a01b03811681146131de57600080fd5b5056fea26469706673582212207097aadf81df94ed1b5e8e5cad31f7e0cd51379621bc7b65391514118cfafd1064736f6c63430008040033",
  "linkReferences": {},
  "deployedLinkReferences": {}
}