{
  "_format": "hh-sol-artifact-1",
  "contractName": "TokenVault",
  "sourceName": "contracts/5_TokenVault.sol",
  "abi": [
    {
      "anonymous": false,
      "inputs": [
        {
          "indexed": true,
          "internalType": "address",
          "name": "owner",
          "type": "address"
        },
        {
          "indexed": true,
          "internalType": "address",
          "name": "spender",
          "type": "address"
        },
        {
          "indexed": false,
          "internalType": "uint256",
          "name": "value",
          "type": "uint256"
        }
      ],
      "name": "Approval",
      "type": "event"
    },
    {
      "anonymous": false,
      "inputs": [
        {
          "indexed": true,
          "internalType": "address",
          "name": "buyer",
          "type": "address"
        },
        {
          "indexed": false,
          "internalType": "uint256",
          "name": "price",
          "type": "uint256"
        }
      ],
      "name": "Bid",
      "type": "event"
    },
    {
      "anonymous": false,
      "inputs": [
        {
          "indexed": true,
          "internalType": "address",
          "name": "owner",
          "type": "address"
        },
        {
          "indexed": false,
          "internalType": "uint256",
          "name": "shares",
          "type": "uint256"
        }
      ],
      "name": "Cash",
      "type": "event"
    },
    {
      "anonymous": false,
      "inputs": [
        {
          "indexed": false,
          "internalType": "uint256",
          "name": "fee",
          "type": "uint256"
        }
      ],
      "name": "FeeClaimed",
      "type": "event"
    },
    {
      "anonymous": false,
      "inputs": [
        {
          "indexed": true,
          "internalType": "address",
          "name": "user",
          "type": "address"
        },
        {
          "indexed": false,
          "internalType": "uint256",
          "name": "price",
          "type": "uint256"
        }
      ],
      "name": "PriceUpdate",
      "type": "event"
    },
    {
      "anonymous": false,
      "inputs": [
        {
          "indexed": true,
          "internalType": "address",
          "name": "redeemer",
          "type": "address"
        }
      ],
      "name": "Redeem",
      "type": "event"
    },
    {
      "anonymous": false,
      "inputs": [
        {
          "indexed": true,
          "internalType": "address",
          "name": "buyer",
          "type": "address"
        },
        {
          "indexed": false,
          "internalType": "uint256",
          "name": "price",
          "type": "uint256"
        }
      ],
      "name": "Start",
      "type": "event"
    },
    {
      "anonymous": false,
      "inputs": [
        {
          "indexed": true,
          "internalType": "address",
          "name": "from",
          "type": "address"
        },
        {
          "indexed": true,
          "internalType": "address",
          "name": "to",
          "type": "address"
        },
        {
          "indexed": false,
          "internalType": "uint256",
          "name": "value",
          "type": "uint256"
        }
      ],
      "name": "Transfer",
      "type": "event"
    },
    {
      "anonymous": false,
      "inputs": [
        {
          "indexed": false,
          "internalType": "uint256",
          "name": "length",
          "type": "uint256"
        }
      ],
      "name": "UpdateAuctionLength",
      "type": "event"
    },
    {
      "anonymous": false,
      "inputs": [
        {
          "indexed": false,
          "internalType": "uint256",
          "name": "fee",
          "type": "uint256"
        }
      ],
      "name": "UpdateCuratorFee",
      "type": "event"
    },
    {
      "anonymous": false,
      "inputs": [
        {
          "indexed": true,
          "internalType": "address",
          "name": "buyer",
          "type": "address"
        },
        {
          "indexed": false,
          "internalType": "uint256",
          "name": "price",
          "type": "uint256"
        }
      ],
      "name": "Won",
      "type": "event"
    },
    {
      "inputs": [
        {
          "internalType": "address",
          "name": "owner",
          "type": "address"
        },
        {
          "internalType": "address",
          "name": "spender",
          "type": "address"
        }
      ],
      "name": "allowance",
      "outputs": [
        {
          "internalType": "uint256",
          "name": "",
          "type": "uint256"
        }
      ],
      "stateMutability": "view",
      "type": "function"
    },
    {
      "inputs": [
        {
          "internalType": "address",
          "name": "spender",
          "type": "address"
        },
        {
          "internalType": "uint256",
          "name": "amount",
          "type": "uint256"
        }
      ],
      "name": "approve",
      "outputs": [
        {
          "internalType": "bool",
          "name": "",
          "type": "bool"
        }
      ],
      "stateMutability": "nonpayable",
      "type": "function"
    },
    {
      "inputs": [],
      "name": "auctionEnd",
      "outputs": [
        {
          "internalType": "uint256",
          "name": "",
          "type": "uint256"
        }
      ],
      "stateMutability": "view",
      "type": "function"
    },
    {
      "inputs": [],
      "name": "auctionLength",
      "outputs": [
        {
          "internalType": "uint256",
          "name": "",
          "type": "uint256"
        }
      ],
      "stateMutability": "view",
      "type": "function"
    },
    {
      "inputs": [],
      "name": "auctionState",
      "outputs": [
        {
          "internalType": "enum TokenVault.State",
          "name": "",
          "type": "uint8"
        }
      ],
      "stateMutability": "view",
      "type": "function"
    },
    {
      "inputs": [
        {
          "internalType": "address",
          "name": "account",
          "type": "address"
        }
      ],
      "name": "balanceOf",
      "outputs": [
        {
          "internalType": "uint256",
          "name": "",
          "type": "uint256"
        }
      ],
      "stateMutability": "view",
      "type": "function"
    },
    {
      "inputs": [],
      "name": "bid",
      "outputs": [],
      "stateMutability": "payable",
      "type": "function"
    },
    {
      "inputs": [],
      "name": "cash",
      "outputs": [],
      "stateMutability": "nonpayable",
      "type": "function"
    },
    {
      "inputs": [],
      "name": "claimFees",
      "outputs": [],
      "stateMutability": "nonpayable",
      "type": "function"
    },
    {
      "inputs": [],
      "name": "curator",
      "outputs": [
        {
          "internalType": "address",
          "name": "",
          "type": "address"
        }
      ],
      "stateMutability": "view",
      "type": "function"
    },
    {
      "inputs": [],
      "name": "decimals",
      "outputs": [
        {
          "internalType": "uint8",
          "name": "",
          "type": "uint8"
        }
      ],
      "stateMutability": "view",
      "type": "function"
    },
    {
      "inputs": [
        {
          "internalType": "address",
          "name": "spender",
          "type": "address"
        },
        {
          "internalType": "uint256",
          "name": "subtractedValue",
          "type": "uint256"
        }
      ],
      "name": "decreaseAllowance",
      "outputs": [
        {
          "internalType": "bool",
          "name": "",
          "type": "bool"
        }
      ],
      "stateMutability": "nonpayable",
      "type": "function"
    },
    {
      "inputs": [],
      "name": "end",
      "outputs": [],
      "stateMutability": "nonpayable",
      "type": "function"
    },
    {
      "inputs": [],
      "name": "fee",
      "outputs": [
        {
          "internalType": "uint256",
          "name": "",
          "type": "uint256"
        }
      ],
      "stateMutability": "view",
      "type": "function"
    },
    {
      "inputs": [],
      "name": "id",
      "outputs": [
        {
          "internalType": "uint256",
          "name": "",
          "type": "uint256"
        }
      ],
      "stateMutability": "view",
      "type": "function"
    },
    {
      "inputs": [
        {
          "internalType": "address",
          "name": "spender",
          "type": "address"
        },
        {
          "internalType": "uint256",
          "name": "addedValue",
          "type": "uint256"
        }
      ],
      "name": "increaseAllowance",
      "outputs": [
        {
          "internalType": "bool",
          "name": "",
          "type": "bool"
        }
      ],
      "stateMutability": "nonpayable",
      "type": "function"
    },
    {
      "inputs": [
        {
          "internalType": "address",
          "name": "_settings",
          "type": "address"
        },
        {
          "internalType": "address",
          "name": "_curator",
          "type": "address"
        },
        {
          "internalType": "address",
          "name": "_token",
          "type": "address"
        },
        {
          "internalType": "uint256",
          "name": "_id",
          "type": "uint256"
        },
        {
          "internalType": "uint256",
          "name": "_supply",
          "type": "uint256"
        },
        {
          "internalType": "uint256",
          "name": "_listPrice",
          "type": "uint256"
        },
        {
          "internalType": "uint256",
          "name": "_fee",
          "type": "uint256"
        },
        {
          "internalType": "string",
          "name": "_name",
          "type": "string"
        },
        {
          "internalType": "string",
          "name": "_symbol",
          "type": "string"
        }
      ],
      "name": "initialize",
      "outputs": [],
      "stateMutability": "nonpayable",
      "type": "function"
    },
    {
      "inputs": [
        {
          "internalType": "address",
          "name": "_curator",
          "type": "address"
        }
      ],
      "name": "kickCurator",
      "outputs": [],
      "stateMutability": "nonpayable",
      "type": "function"
    },
    {
      "inputs": [],
      "name": "lastClaimed",
      "outputs": [
        {
          "internalType": "uint256",
          "name": "",
          "type": "uint256"
        }
      ],
      "stateMutability": "view",
      "type": "function"
    },
    {
      "inputs": [],
      "name": "livePrice",
      "outputs": [
        {
          "internalType": "uint256",
          "name": "",
          "type": "uint256"
        }
      ],
      "stateMutability": "view",
      "type": "function"
    },
    {
      "inputs": [],
      "name": "name",
      "outputs": [
        {
          "internalType": "string",
          "name": "",
          "type": "string"
        }
      ],
      "stateMutability": "view",
      "type": "function"
    },
    {
      "inputs": [
        {
          "internalType": "address",
          "name": "",
          "type": "address"
        },
        {
          "internalType": "address",
          "name": "",
          "type": "address"
        },
        {
          "internalType": "uint256",
          "name": "",
          "type": "uint256"
        },
        {
          "internalType": "bytes",
          "name": "",
          "type": "bytes"
        }
      ],
      "name": "onERC721Received",
      "outputs": [
        {
          "internalType": "bytes4",
          "name": "",
          "type": "bytes4"
        }
      ],
      "stateMutability": "nonpayable",
      "type": "function"
    },
    {
      "inputs": [],
      "name": "redeem",
      "outputs": [],
      "stateMutability": "nonpayable",
      "type": "function"
    },
    {
      "inputs": [
        {
          "internalType": "address",
          "name": "_user",
          "type": "address"
        }
      ],
      "name": "removeReserve",
      "outputs": [],
      "stateMutability": "nonpayable",
      "type": "function"
    },
    {
      "inputs": [],
      "name": "reservePrice",
      "outputs": [
        {
          "internalType": "uint256",
          "name": "",
          "type": "uint256"
        }
      ],
      "stateMutability": "view",
      "type": "function"
    },
    {
      "inputs": [],
      "name": "reserveTotal",
      "outputs": [
        {
          "internalType": "uint256",
          "name": "",
          "type": "uint256"
        }
      ],
      "stateMutability": "view",
      "type": "function"
    },
    {
      "inputs": [],
      "name": "settings",
      "outputs": [
        {
          "internalType": "address",
          "name": "",
          "type": "address"
        }
      ],
      "stateMutability": "view",
      "type": "function"
    },
    {
      "inputs": [],
      "name": "start",
      "outputs": [],
      "stateMutability": "payable",
      "type": "function"
    },
    {
      "inputs": [],
      "name": "symbol",
      "outputs": [
        {
          "internalType": "string",
          "name": "",
          "type": "string"
        }
      ],
      "stateMutability": "view",
      "type": "function"
    },
    {
      "inputs": [],
      "name": "token",
      "outputs": [
        {
          "internalType": "address",
          "name": "",
          "type": "address"
        }
      ],
      "stateMutability": "view",
      "type": "function"
    },
    {
      "inputs": [],
      "name": "totalSupply",
      "outputs": [
        {
          "internalType": "uint256",
          "name": "",
          "type": "uint256"
        }
      ],
      "stateMutability": "view",
      "type": "function"
    },
    {
      "inputs": [
        {
          "internalType": "address",
          "name": "to",
          "type": "address"
        },
        {
          "internalType": "uint256",
          "name": "amount",
          "type": "uint256"
        }
      ],
      "name": "transfer",
      "outputs": [
        {
          "internalType": "bool",
          "name": "",
          "type": "bool"
        }
      ],
      "stateMutability": "nonpayable",
      "type": "function"
    },
    {
      "inputs": [
        {
          "internalType": "address",
          "name": "from",
          "type": "address"
        },
        {
          "internalType": "address",
          "name": "to",
          "type": "address"
        },
        {
          "internalType": "uint256",
          "name": "amount",
          "type": "uint256"
        }
      ],
      "name": "transferFrom",
      "outputs": [
        {
          "internalType": "bool",
          "name": "",
          "type": "bool"
        }
      ],
      "stateMutability": "nonpayable",
      "type": "function"
    },
    {
      "inputs": [
        {
          "internalType": "uint256",
          "name": "_length",
          "type": "uint256"
        }
      ],
      "name": "updateAuctionLength",
      "outputs": [],
      "stateMutability": "nonpayable",
      "type": "function"
    },
    {
      "inputs": [
        {
          "internalType": "address",
          "name": "_curator",
          "type": "address"
        }
      ],
      "name": "updateCurator",
      "outputs": [],
      "stateMutability": "nonpayable",
      "type": "function"
    },
    {
      "inputs": [
        {
          "internalType": "uint256",
          "name": "_fee",
          "type": "uint256"
        }
      ],
      "name": "updateFee",
      "outputs": [],
      "stateMutability": "nonpayable",
      "type": "function"
    },
    {
      "inputs": [
        {
          "internalType": "uint256",
          "name": "_new",
          "type": "uint256"
        }
      ],
      "name": "updateUserPrice",
      "outputs": [],
      "stateMutability": "nonpayable",
      "type": "function"
    },
    {
      "inputs": [
        {
          "internalType": "address",
          "name": "",
          "type": "address"
        }
      ],
      "name": "userPrices",
      "outputs": [
        {
          "internalType": "uint256",
          "name": "",
          "type": "uint256"
        }
      ],
      "stateMutability": "view",
      "type": "function"
    },
    {
      "inputs": [],
      "name": "vaultClosed",
      "outputs": [
        {
          "internalType": "bool",
          "name": "",
          "type": "bool"
        }
      ],
      "stateMutability": "view",
      "type": "function"
    },
    {
      "inputs": [],
      "name": "version",
      "outputs": [
        {
          "internalType": "string",
          "name": "",
          "type": "string"
        }
      ],
      "stateMutability": "view",
      "type": "function"
    },
    {
      "inputs": [],
      "name": "votingTokens",
      "outputs": [
        {
          "internalType": "uint256",
          "name": "",
          "type": "uint256"
        }
      ],
      "stateMutability": "view",
      "type": "function"
    },
    {
      "inputs": [],
      "name": "weth",
      "outputs": [
        {
          "internalType": "address",
          "name": "",
          "type": "address"
        }
      ],
      "stateMutability": "view",
      "type": "function"
    },
    {
      "inputs": [],
      "name": "winning",
      "outputs": [
        {
          "internalType": "address payable",
          "name": "",
          "type": "address"
        }
      ],
      "stateMutability": "view",
      "type": "function"
    }
  ],
  "bytecode": "0x608060405234801561001057600080fd5b50613215806100206000396000f3fe60806040526004361061025c5760003560e01c806380436fe011610144578063be9a6555116100b6578063ddca3f431161007a578063ddca3f4314610710578063e06174e414610726578063e52b064e14610746578063e66f53b714610766578063efbe1c1c14610786578063fc0c546a1461079b57600080fd5b8063be9a65551461066b578063c91de64914610673578063d294f093146106a0578063db2e1eed146106b5578063dd62ed3e146106ca57600080fd5b80639a4e6d34116101085780639a4e6d34146105d4578063a457c2d7146105ea578063a9059cbb1461060a578063adc1b9561461062a578063af640d0f14610640578063be040fb01461065657600080fd5b806380436fe01461054a578063853a1b901461056a5780639012c4a81461058a57806395d89b41146105aa578063961be391146105bf57600080fd5b8063313ce567116101dd5780635c9920fc116101a15780635c9920fc146104805780636a7757141461049a5780636da84e6c146104ba57806370a08231146104d05780637b5581ed146105065780637fb450991461051c57600080fd5b8063313ce567146103bf578063325c25a2146103db57806339509351146103f15780633fc8cef31461041157806354fd4d501461045157600080fd5b80631998aeef116102245780631998aeef1461034157806323b872dd146103495780632a24f46c146103695780632a44f1201461037f5780632bf33bd91461039f57600080fd5b806306fdde0314610261578063095ea7b31461028c5780630c6a62dd146102bc578063150b7a02146102de57806318160ddd14610322575b600080fd5b34801561026d57600080fd5b506102766107bb565b6040516102839190612fe1565b60405180910390f35b34801561029857600080fd5b506102ac6102a7366004612f3e565b61084d565b6040519015158152602001610283565b3480156102c857600080fd5b506102dc6102d7366004612d53565b610865565b005b3480156102ea57600080fd5b506103096102f9366004612ec1565b630a85bd0160e11b949350505050565b6040516001600160e01b03199091168152602001610283565b34801561032e57600080fd5b506035545b604051908152602001610283565b6102dc6108ba565b34801561035557600080fd5b506102ac610364366004612e81565b610afb565b34801561037557600080fd5b5061033360995481565b34801561038b57600080fd5b506102dc61039a366004612d53565b610b1f565b3480156103ab57600080fd5b506102dc6103ba366004612f89565b610bf4565b3480156103cb57600080fd5b5060405160128152602001610283565b3480156103e757600080fd5b50610333609a5481565b3480156103fd57600080fd5b506102ac61040c366004612f3e565b610dc4565b34801561041d57600080fd5b5061043973c02aaa39b223fe8d0a0e5c4f27ead9083c756cc281565b6040516001600160a01b039091168152602001610283565b34801561045d57600080fd5b5061027660405180604001604052806003815260200162312e3160e81b81525081565b34801561048c57600080fd5b5060a2546102ac9060ff1681565b3480156104a657600080fd5b506102dc6104b5366004612f89565b610e03565b3480156104c657600080fd5b50610333609c5481565b3480156104dc57600080fd5b506103336104eb366004612d53565b6001600160a01b031660009081526033602052604090205490565b34801561051257600080fd5b50610333609b5481565b34801561052857600080fd5b50609d5461053d90600160a01b900460ff1681565b6040516102839190612fb9565b34801561055657600080fd5b506102dc610565366004612d53565b611411565b34801561057657600080fd5b50609d54610439906001600160a01b031681565b34801561059657600080fd5b506102dc6105a5366004612f89565b61162d565b3480156105b657600080fd5b506102766117bd565b3480156105cb57600080fd5b506102dc6117cc565b3480156105e057600080fd5b5061033360a35481565b3480156105f657600080fd5b506102ac610605366004612f3e565b611912565b34801561061657600080fd5b506102ac610625366004612f3e565b6119a4565b34801561063657600080fd5b5061033360a15481565b34801561064c57600080fd5b5061033360985481565b34801561066257600080fd5b506102dc6119b2565b6102dc611ae3565b34801561067f57600080fd5b5061033361068e366004612d53565b60a46020526000908152604090205481565b3480156106ac57600080fd5b506102dc611d04565b3480156106c157600080fd5b50610333611d0e565b3480156106d657600080fd5b506103336106e5366004612d8b565b6001600160a01b03918216600090815260346020908152604080832093909416825291909152205490565b34801561071c57600080fd5b5061033360a05481565b34801561073257600080fd5b50609e54610439906001600160a01b031681565b34801561075257600080fd5b506102dc610761366004612dc3565b611d35565b34801561077257600080fd5b50609f54610439906001600160a01b031681565b34801561079257600080fd5b506102dc611e81565b3480156107a757600080fd5b50609754610439906001600160a01b031681565b6060603680546107ca90613160565b80601f01602080910402602001604051908101604052809291908181526020018280546107f690613160565b80156108435780601f1061081857610100808354040283529160200191610843565b820191906000526020600020905b81548152906001019060200180831161082657829003601f168201915b5050505050905090565b60003361085b81858561200f565b5060019392505050565b609f546001600160a01b031633146108985760405162461bcd60e51b815260040161088f90613034565b60405180910390fd5b609f80546001600160a01b0319166001600160a01b0392909216919091179055565b6001609d54600160a01b900460ff1660038111156108e857634e487b7160e01b600052602160045260246000fd5b146109355760405162461bcd60e51b815260206004820152601760248201527f6269643a61756374696f6e206973206e6f74206c697665000000000000000000604482015260640161088f565b609e5460408051637c513c0f60e01b815290516000926001600160a01b031691637c513c0f91600480830192602092919082900301818787803b15801561097b57600080fd5b505af115801561098f573d6000803e3d6000fd5b505050506040513d601f19601f820116820180604052508101906109b39190612fa1565b6109bf906103e86130f2565b905080609c546109cf919061312a565b6109db346103e861312a565b1015610a1b5760405162461bcd60e51b815260206004820152600f60248201526e189a590e9d1bdbc81b1bddc8189a59608a1b604482015260640161088f565b6099544210610a605760405162461bcd60e51b8152602060048201526011602482015270189a590e985d58dd1a5bdb88195b991959607a1b604482015260640161088f565b61038442609954610a719190613149565b11610a905761038460996000828254610a8a91906130f2565b90915550505b609d54609c54610aa9916001600160a01b031690612133565b34609c819055609d80546001600160a01b03191633908117909155604051918252907fe684a55f31b79eca403df938249029212a5925ec6be8012e099b45bc1019e5d29060200160405180910390a250565b600033610b09858285612244565b610b148585856122d6565b506001949350505050565b609e60009054906101000a90046001600160a01b03166001600160a01b0316638da5cb5b6040518163ffffffff1660e01b815260040160206040518083038186803b158015610b6d57600080fd5b505afa158015610b81573d6000803e3d6000fd5b505050506040513d601f19601f82011682018060405250810190610ba59190612d6f565b6001600160a01b0316336001600160a01b0316146108985760405162461bcd60e51b815260206004820152600c60248201526b35b4b1b59d3737ba1033b7bb60a11b604482015260640161088f565b609f546001600160a01b03163314610c1e5760405162461bcd60e51b815260040161088f90613034565b609e60009054906101000a90046001600160a01b03166001600160a01b031663a0b335e36040518163ffffffff1660e01b8152600401602060405180830381600087803b158015610c6e57600080fd5b505af1158015610c82573d6000803e3d6000fd5b505050506040513d601f19601f82011682018060405250810190610ca69190612fa1565b8110158015610d3c5750609e60009054906101000a90046001600160a01b03166001600160a01b0316630e519ef96040518163ffffffff1660e01b8152600401602060405180830381600087803b158015610d0057600080fd5b505af1158015610d14573d6000803e3d6000fd5b505050506040513d601f19601f82011682018060405250810190610d389190612fa1565b8111155b610d885760405162461bcd60e51b815260206004820152601d60248201527f7570646174653a696e76616c69642061756374696f6e206c656e677468000000604482015260640161088f565b609a8190556040518181527f4ab86ae701798277aa378943b9dfd155d3b19703cd57be298908fadd32f7bf46906020015b60405180910390a150565b3360008181526034602090815260408083206001600160a01b038716845290915281205490919061085b9082908690610dfe9087906130f2565b61200f565b6000609d54600160a01b900460ff166003811115610e3157634e487b7160e01b600052602160045260246000fd5b14610e4e5760405162461bcd60e51b815260040161088f906130ab565b33600090815260a4602052604090205481811415610ea55760405162461bcd60e51b81526020600482015260146024820152737570646174653a6e6f7420616e2075706461746560601b604482015260640161088f565b3360009081526033602052604090205460a354610ed35760a3819055610ecb838261312a565b609b556113c0565b60a35481148015610ee357508115155b15610ef257610ecb838261312a565b8161113257600060a354609b54610f09919061310a565b905060006103e8609e60009054906101000a90046001600160a01b03166001600160a01b03166309990a966040518163ffffffff1660e01b8152600401602060405180830381600087803b158015610f6057600080fd5b505af1158015610f74573d6000803e3d6000fd5b505050506040513d601f19601f82011682018060405250810190610f989190612fa1565b610fa2908461312a565b610fac919061310a565b905080851015610ffe5760405162461bcd60e51b815260206004820152601c60248201527f7570646174653a7265736572766520707269636520746f6f206c6f7700000000604482015260640161088f565b60006103e8609e60009054906101000a90046001600160a01b03166001600160a01b0316635410bfc96040518163ffffffff1660e01b8152600401602060405180830381600087803b15801561105357600080fd5b505af1158015611067573d6000803e3d6000fd5b505050506040513d601f19601f8201168201806040525081019061108b9190612fa1565b611095908561312a565b61109f919061310a565b9050808611156110f15760405162461bcd60e51b815260206004820152601d60248201527f7570646174653a7265736572766520707269636520746f6f2068696768000000604482015260640161088f565b8360a3600082825461110391906130f2565b909155506111139050868561312a565b609b600082825461112491906130f2565b909155506113c09350505050565b82611175578060a360008282546111499190613149565b909155506111599050828261312a565b609b600082825461116a9190613149565b909155506113c09050565b60008160a3546111859190613149565b61118f838561312a565b609b5461119c9190613149565b6111a6919061310a565b905060006103e8609e60009054906101000a90046001600160a01b03166001600160a01b03166309990a966040518163ffffffff1660e01b8152600401602060405180830381600087803b1580156111fd57600080fd5b505af1158015611211573d6000803e3d6000fd5b505050506040513d601f19601f820116820180604052508101906112359190612fa1565b61123f908461312a565b611249919061310a565b90508085101561129b5760405162461bcd60e51b815260206004820152601c60248201527f7570646174653a7265736572766520707269636520746f6f206c6f7700000000604482015260640161088f565b60006103e8609e60009054906101000a90046001600160a01b03166001600160a01b0316635410bfc96040518163ffffffff1660e01b8152600401602060405180830381600087803b1580156112f057600080fd5b505af1158015611304573d6000803e3d6000fd5b505050506040513d601f19601f820116820180604052508101906113289190612fa1565b611332908561312a565b61133c919061310a565b90508086111561138e5760405162461bcd60e51b815260206004820152601d60248201527f7570646174653a7265736572766520707269636520746f6f2068696768000000604482015260640161088f565b611398858561312a565b6113a2878661312a565b609b546113af91906130f2565b6113b99190613149565b609b555050505b33600081815260a4602052604090819020859055517f64e6e7bd72b853c4e62fd6ceaca05a104700c70a4cb567c75c7f2242ba7f037c906114049086815260200190565b60405180910390a2505050565b609e60009054906101000a90046001600160a01b03166001600160a01b0316638da5cb5b6040518163ffffffff1660e01b815260040160206040518083038186803b15801561145f57600080fd5b505afa158015611473573d6000803e3d6000fd5b505050506040513d601f19601f820116820180604052508101906114979190612d6f565b6001600160a01b0316336001600160a01b0316146114e85760405162461bcd60e51b815260206004820152600e60248201526d3932b6b7bb329d3737ba1033b7bb60911b604482015260640161088f565b6000609d54600160a01b900460ff16600381111561151657634e487b7160e01b600052602160045260246000fd5b146115335760405162461bcd60e51b815260040161088f906130ab565b6001600160a01b038116600090815260a46020526040902054806115905760405162461bcd60e51b81526020600482015260146024820152737570646174653a6e6f7420616e2075706461746560601b604482015260640161088f565b6001600160a01b03821660009081526033602052604081205490508060a360008282546115bd9190613149565b909155506115cd9050828261312a565b609b60008282546115de9190613149565b90915550506001600160a01b038316600081815260a460209081526040808320839055519182527f64e6e7bd72b853c4e62fd6ceaca05a104700c70a4cb567c75c7f2242ba7f037c9101611404565b609f546001600160a01b031633146116575760405162461bcd60e51b815260040161088f90613034565b60a054811061169d5760405162461bcd60e51b81526020600482015260126024820152717570646174653a63616e277420726169736560701b604482015260640161088f565b609e60009054906101000a90046001600160a01b03166001600160a01b0316638a364bc16040518163ffffffff1660e01b8152600401602060405180830381600087803b1580156116ed57600080fd5b505af1158015611701573d6000803e3d6000fd5b505050506040513d601f19601f820116820180604052508101906117259190612fa1565b8111156117805760405162461bcd60e51b8152602060048201526024808201527f7570646174653a63616e6e6f7420696e637265617365206665652074686973206044820152630d0d2ced60e31b606482015260840161088f565b6117886124b5565b60a08190556040518181527f2d1dae59a9e9ec0bc2ab19d45b7d10c8c55304fa08b40a7998e9f67f03223d0490602001610db9565b6060603780546107ca90613160565b6002609d54600160a01b900460ff1660038111156117fa57634e487b7160e01b600052602160045260246000fd5b146118475760405162461bcd60e51b815260206004820152601960248201527f636173683a7661756c74206e6f7420636c6f7365642079657400000000000000604482015260640161088f565b33600090815260336020526040902054806118a45760405162461bcd60e51b815260206004820152601a60248201527f636173683a6e6f20746f6b656e7320746f2063617368206f7574000000000000604482015260640161088f565b60006118af60355490565b6118b9478461312a565b6118c3919061310a565b90506118cf33836127a6565b6118d93382612133565b60405181815233907f730831a1e4aa2d187ddd8e03d7beeac760a3927da5f112d645e0f8df7494b3679060200160405180910390a25050565b3360008181526034602090815260408083206001600160a01b0387168452909152812054909190838110156119975760405162461bcd60e51b815260206004820152602560248201527f45524332303a2064656372656173656420616c6c6f77616e63652062656c6f77604482015264207a65726f60d81b606482015260840161088f565b610b14828686840361200f565b60003361085b8185856122d6565b6000609d54600160a01b900460ff1660038111156119e057634e487b7160e01b600052602160045260246000fd5b14611a235760405162461bcd60e51b815260206004820152601360248201527272656465656d3a6e6f2072656465656d696e6760681b604482015260640161088f565b611a3533611a3060355490565b6127a6565b6097546098546040516323b872dd60e01b815230600482015233602482015260448101919091526001600160a01b03909116906323b872dd90606401600060405180830381600087803b158015611a8b57600080fd5b505af1158015611a9f573d6000803e3d6000fd5b5050609d805460ff60a01b1916600360a01b179055505060405133907fd1b5ea7fe0f1c2fa09d49c2aa9b2200664ba57a734f1d95481d95b7f99af991c90600090a2565b6000609d54600160a01b900460ff166003811115611b1157634e487b7160e01b600052602160045260246000fd5b14611b5e5760405162461bcd60e51b815260206004820152601760248201527f73746172743a6e6f2061756374696f6e20737461727473000000000000000000604482015260640161088f565b611b66611d0e565b341015611ba95760405162461bcd60e51b81526020600482015260116024820152701cdd185c9d0e9d1bdbc81b1bddc8189a59607a1b604482015260640161088f565b603554609e60009054906101000a90046001600160a01b03166001600160a01b03166332977c736040518163ffffffff1660e01b8152600401602060405180830381600087803b158015611bfc57600080fd5b505af1158015611c10573d6000803e3d6000fd5b505050506040513d601f19601f82011682018060405250810190611c349190612fa1565b611c3e919061312a565b60a354611c4d906103e861312a565b1015611c9b5760405162461bcd60e51b815260206004820152601760248201527f73746172743a6e6f7420656e6f75676820766f74657273000000000000000000604482015260640161088f565b609a54611ca890426130f2565b609955609d805434609c8190556001600160a81b031990911633908117600160a01b179092556040519081527fcfb9c5312b25ec7b809d61e638df25f749eae5d5c25399e1c93d1d319bfd5821906020015b60405180910390a2565b611d0c6124b5565b565b600060a354600014611d2f5760a354609b54611d2a919061310a565b905090565b50600090565b600054610100900460ff16611d505760005460ff1615611d54565b303b155b611db75760405162461bcd60e51b815260206004820152602e60248201527f496e697469616c697a61626c653a20636f6e747261637420697320616c72656160448201526d191e481a5b9a5d1a585b1a5e995960921b606482015260840161088f565b600054610100900460ff16158015611dd9576000805461ffff19166101011790555b611de38383612907565b611deb612938565b609e80546001600160a01b038c81166001600160a01b031992831617909255609780548b841690831617905560988990556203f480609a55609f8054928c16929091168217905560a08590554260a155609d805460ff60a01b19169055600090815260a460205260409020859055611e63898761295f565b8015611e75576000805461ff00191690555b50505050505050505050565b6001609d54600160a01b900460ff166003811115611eaf57634e487b7160e01b600052602160045260246000fd5b14611efc5760405162461bcd60e51b815260206004820152601c60248201527f656e643a7661756c742068617320616c726561647920636c6f73656400000000604482015260640161088f565b609954421015611f415760405162461bcd60e51b815260206004820152601060248201526f656e643a61756374696f6e206c69766560801b604482015260640161088f565b611f496124b5565b609754609d546098546040516323b872dd60e01b81523060048201526001600160a01b03928316602482015260448101919091529116906323b872dd90606401600060405180830381600087803b158015611fa357600080fd5b505af1158015611fb7573d6000803e3d6000fd5b5050609d8054600160a11b60ff60a01b19821617909155609c546040519081526001600160a01b0390911692507f8b01f9dd0400d6a1e84369a5fb8f6033934856ffa8ebadd707dca302ab5516959150602001611cfa565b6001600160a01b0383166120715760405162461bcd60e51b8152602060048201526024808201527f45524332303a20617070726f76652066726f6d20746865207a65726f206164646044820152637265737360e01b606482015260840161088f565b6001600160a01b0382166120d25760405162461bcd60e51b815260206004820152602260248201527f45524332303a20617070726f766520746f20746865207a65726f206164647265604482015261737360f01b606482015260840161088f565b6001600160a01b0383811660008181526034602090815260408083209487168084529482529182902085905590518481527f8c5be1e5ebec7d5bd14f71427d1e84f3dd0314c0f7b2291e5b200ac8c7c3b925910160405180910390a3505050565b61213d8282612a52565b6122405773c02aaa39b223fe8d0a0e5c4f27ead9083c756cc26001600160a01b031663d0e30db0826040518263ffffffff1660e01b81526004016000604051808303818588803b15801561219057600080fd5b505af11580156121a4573d6000803e3d6000fd5b505060405163a9059cbb60e01b81526001600160a01b03861660048201526024810185905273c02aaa39b223fe8d0a0e5c4f27ead9083c756cc2935063a9059cbb92506044019050602060405180830381600087803b15801561220657600080fd5b505af115801561221a573d6000803e3d6000fd5b505050506040513d601f19601f8201168201806040525081019061223e9190612f69565b505b5050565b6001600160a01b0383811660009081526034602090815260408083209386168352929052205460001981146122d057818110156122c35760405162461bcd60e51b815260206004820152601d60248201527f45524332303a20696e73756666696369656e7420616c6c6f77616e6365000000604482015260640161088f565b6122d0848484840361200f565b50505050565b6001600160a01b03831661233a5760405162461bcd60e51b815260206004820152602560248201527f45524332303a207472616e736665722066726f6d20746865207a65726f206164604482015264647265737360d81b606482015260840161088f565b6001600160a01b03821661239c5760405162461bcd60e51b815260206004820152602360248201527f45524332303a207472616e7366657220746f20746865207a65726f206164647260448201526265737360e81b606482015260840161088f565b6123a7838383612ab5565b6001600160a01b0383166000908152603360205260409020548181101561241f5760405162461bcd60e51b815260206004820152602660248201527f45524332303a207472616e7366657220616d6f756e7420657863656564732062604482015265616c616e636560d01b606482015260840161088f565b6001600160a01b038085166000908152603360205260408082208585039055918516815290812080548492906124569084906130f2565b92505081905550826001600160a01b0316846001600160a01b03167fddf252ad1be2c89b69c2b068fc378daa952ba7f163c4a11628f55a4df523b3ef846040516124a291815260200190565b60405180910390a36122d084848461223e565b6002609d54600160a01b900460ff1660038111156124e357634e487b7160e01b600052602160045260246000fd5b141561253f5760405162461bcd60e51b815260206004820152602560248201527f636c61696d3a63616e6e6f7420636c61696d2061667465722061756374696f6e60448201526420656e647360d81b606482015260840161088f565b60006103e861254d60355490565b60a05461255a919061312a565b612564919061310a565b905060006125766301e133808361310a565b9050600060a154426125889190613149565b90506000612596838361312a565b90506000609e60009054906101000a90046001600160a01b03166001600160a01b031663b3f006746040518163ffffffff1660e01b8152600401602060405180830381600087803b1580156125ea57600080fd5b505af11580156125fe573d6000803e3d6000fd5b505050506040513d601f19601f820116820180604052508101906126229190612d6f565b90506000609e60009054906101000a90046001600160a01b03166001600160a01b0316630ea90a126040518163ffffffff1660e01b8152600401602060405180830381600087803b15801561267657600080fd5b505af115801561268a573d6000803e3d6000fd5b505050506040513d601f19601f820116820180604052508101906126ae9190612fa1565b90506103e86126bc60355490565b6126c6908361312a565b6126d0919061310a565b95506126e06301e133808761310a565b945060006126ee868661312a565b4260a155609f549091506001600160a01b03161561275057609f5461271c906001600160a01b03168561295f565b6040518481527f62b10e3ff3d45b5ff546e740b893897facb1680285f989a64ae932d62c5388e19060200160405180910390a15b6001600160a01b0383161561279d57612769838261295f565b6040518181527f62b10e3ff3d45b5ff546e740b893897facb1680285f989a64ae932d62c5388e19060200160405180910390a15b50505050505050565b6001600160a01b0382166128065760405162461bcd60e51b815260206004820152602160248201527f45524332303a206275726e2066726f6d20746865207a65726f206164647265736044820152607360f81b606482015260840161088f565b61281282600083612ab5565b6001600160a01b038216600090815260336020526040902054818110156128865760405162461bcd60e51b815260206004820152602260248201527f45524332303a206275726e20616d6f756e7420657863656564732062616c616e604482015261636560f01b606482015260840161088f565b6001600160a01b03831660009081526033602052604081208383039055603580548492906128b5908490613149565b90915550506040518281526000906001600160a01b038516907fddf252ad1be2c89b69c2b068fc378daa952ba7f163c4a11628f55a4df523b3ef9060200160405180910390a361223e8360008461223e565b600054610100900460ff1661292e5760405162461bcd60e51b815260040161088f90613060565b6122408282612bc4565b600054610100900460ff16611d0c5760405162461bcd60e51b815260040161088f90613060565b6001600160a01b0382166129b55760405162461bcd60e51b815260206004820152601f60248201527f45524332303a206d696e7420746f20746865207a65726f206164647265737300604482015260640161088f565b6129c160008383612ab5565b80603560008282546129d391906130f2565b90915550506001600160a01b03821660009081526033602052604081208054839290612a009084906130f2565b90915550506040518181526001600160a01b038316906000907fddf252ad1be2c89b69c2b068fc378daa952ba7f163c4a11628f55a4df523b3ef9060200160405180910390a36122406000838361223e565b600080836001600160a01b03168361753090604051600060405180830381858888f193505050503d8060008114612aa5576040519150601f19603f3d011682016040523d82523d6000602084013e612aaa565b606091505b509095945050505050565b6000609d54600160a01b900460ff166003811115612ae357634e487b7160e01b600052602160045260246000fd5b141561223e576001600160a01b03808416600090815260a46020526040808220549285168252902054808214612bbd5780612b56578260a36000828254612b2a9190613149565b90915550612b3a9050828461312a565b609b6000828254612b4b9190613149565b90915550612bbd9050565b81612b8e578260a36000828254612b6d91906130f2565b90915550612b7d9050818461312a565b609b6000828254612b4b91906130f2565b612b98828461312a565b612ba2828561312a565b609b54612baf91906130f2565b612bb99190613149565b609b555b5050505050565b600054610100900460ff16612beb5760405162461bcd60e51b815260040161088f90613060565b8151612bfe906036906020850190612c0e565b50805161223e9060379060208401905b828054612c1a90613160565b90600052602060002090601f016020900481019282612c3c5760008555612c82565b82601f10612c5557805160ff1916838001178555612c82565b82800160010185558215612c82579182015b82811115612c82578251825591602001919060010190612c67565b50612c8e929150612c92565b5090565b5b80821115612c8e5760008155600101612c93565b600067ffffffffffffffff80841115612cc257612cc26131b1565b604051601f8501601f19908116603f01168101908282118183101715612cea57612cea6131b1565b81604052809350858152868686011115612d0357600080fd5b858560208301376000602087830101525050509392505050565b8035612d28816131c7565b919050565b600082601f830112612d3d578081fd5b612d4c83833560208501612ca7565b9392505050565b600060208284031215612d64578081fd5b8135612d4c816131c7565b600060208284031215612d80578081fd5b8151612d4c816131c7565b60008060408385031215612d9d578081fd5b8235612da8816131c7565b91506020830135612db8816131c7565b809150509250929050565b60008060008060008060008060006101208a8c031215612de1578485fd5b8935612dec816131c7565b985060208a0135612dfc816131c7565b9750612e0a60408b01612d1d565b965060608a0135955060808a0135945060a08a0135935060c08a0135925060e08a013567ffffffffffffffff80821115612e42578384fd5b612e4e8d838e01612d2d565b93506101008c0135915080821115612e64578283fd5b50612e718c828d01612d2d565b9150509295985092959850929598565b600080600060608486031215612e95578283fd5b8335612ea0816131c7565b92506020840135612eb0816131c7565b929592945050506040919091013590565b60008060008060808587031215612ed6578384fd5b8435612ee1816131c7565b93506020850135612ef1816131c7565b925060408501359150606085013567ffffffffffffffff811115612f13578182fd5b8501601f81018713612f23578182fd5b612f3287823560208401612ca7565b91505092959194509250565b60008060408385031215612f50578182fd5b8235612f5b816131c7565b946020939093013593505050565b600060208284031215612f7a578081fd5b81518015158114612d4c578182fd5b600060208284031215612f9a578081fd5b5035919050565b600060208284031215612fb2578081fd5b5051919050565b6020810160048310612fdb57634e487b7160e01b600052602160045260246000fd5b91905290565b6000602080835283518082850152825b8181101561300d57858101830151858201604001528201612ff1565b8181111561301e5783604083870101525b50601f01601f1916929092016040019392505050565b6020808252601290820152713ab83230ba329d3737ba1031bab930ba37b960711b604082015260600190565b6020808252602b908201527f496e697469616c697a61626c653a20636f6e7472616374206973206e6f74206960408201526a6e697469616c697a696e6760a81b606082015260800190565b60208082526027908201527f7570646174653a61756374696f6e206c6976652063616e6e6f742075706461746040820152666520707269636560c81b606082015260800190565b600082198211156131055761310561319b565b500190565b60008261312557634e487b7160e01b81526012600452602481fd5b500490565b60008160001904831182151516156131445761314461319b565b500290565b60008282101561315b5761315b61319b565b500390565b600181811c9082168061317457607f821691505b6020821081141561319557634e487b7160e01b600052602260045260246000fd5b50919050565b634e487b7160e01b600052601160045260246000fd5b634e487b7160e01b600052604160045260246000fd5b6001600160a01b03811681146131dc57600080fd5b5056fea2646970667358221220861b71d8320177e64971cda3b96d642648222ff6d4f6c0620a55510141e6a79f64736f6c63430008040033",
  "linkReferences": {},
  "deployedLinkReferences": {}
}