{
  "_format": "hh-sol-artifact-1",
  "contractName": "HalloweenBearsStaking",
  "sourceName": "contracts/2_HalloweenBearsStaking.sol",
  "abi": [
    {
      "inputs": [
        {
          "internalType": "address",
          "name": "_erc721Address",
          "type": "address"
        },
        {
          "internalType": "uint256",
          "name": "_rate",
          "type": "uint256"
        },
        {
          "internalType": "uint256",
          "name": "_expiration",
          "type": "uint256"
        },
        {
          "internalType": "address",
          "name": "_erc20Address",
          "type": "address"
        }
      ],
      "stateMutability": "nonpayable",
      "type": "constructor"
    },
    {
      "anonymous": false,
      "inputs": [
        {
          "indexed": true,
          "internalType": "address",
          "name": "previousOwner",
          "type": "address"
        },
        {
          "indexed": true,
          "internalType": "address",
          "name": "newOwner",
          "type": "address"
        }
      ],
      "name": "OwnershipTransferred",
      "type": "event"
    },
    {
      "anonymous": false,
      "inputs": [
        {
          "indexed": false,
          "internalType": "address",
          "name": "account",
          "type": "address"
        }
      ],
      "name": "Paused",
      "type": "event"
    },
    {
      "anonymous": false,
      "inputs": [
        {
          "indexed": false,
          "internalType": "address",
          "name": "account",
          "type": "address"
        }
      ],
      "name": "Unpaused",
      "type": "event"
    },
    {
      "inputs": [
        {
          "internalType": "address",
          "name": "",
          "type": "address"
        },
        {
          "internalType": "uint256",
          "name": "",
          "type": "uint256"
        }
      ],
      "name": "_depositBlocks",
      "outputs": [
        {
          "internalType": "uint256",
          "name": "",
          "type": "uint256"
        }
      ],
      "stateMutability": "view",
      "type": "function"
    },
    {
      "inputs": [
        {
          "internalType": "address",
          "name": "account",
          "type": "address"
        },
        {
          "internalType": "uint256",
          "name": "tokenId",
          "type": "uint256"
        }
      ],
      "name": "calculateReward",
      "outputs": [
        {
          "internalType": "uint256",
          "name": "",
          "type": "uint256"
        }
      ],
      "stateMutability": "view",
      "type": "function"
    },
    {
      "inputs": [
        {
          "internalType": "address",
          "name": "account",
          "type": "address"
        },
        {
          "internalType": "uint256[]",
          "name": "tokenIds",
          "type": "uint256[]"
        }
      ],
      "name": "calculateRewards",
      "outputs": [
        {
          "internalType": "uint256[]",
          "name": "rewards",
          "type": "uint256[]"
        }
      ],
      "stateMutability": "view",
      "type": "function"
    },
    {
      "inputs": [
        {
          "internalType": "uint256[]",
          "name": "tokenIds",
          "type": "uint256[]"
        }
      ],
      "name": "claimRewards",
      "outputs": [],
      "stateMutability": "nonpayable",
      "type": "function"
    },
    {
      "inputs": [],
      "name": "contractAddress",
      "outputs": [
        {
          "internalType": "address",
          "name": "",
          "type": "address"
        }
      ],
      "stateMutability": "view",
      "type": "function"
    },
    {
      "inputs": [
        {
          "internalType": "uint256[]",
          "name": "tokenIds",
          "type": "uint256[]"
        }
      ],
      "name": "deposit",
      "outputs": [],
      "stateMutability": "nonpayable",
      "type": "function"
    },
    {
      "inputs": [
        {
          "internalType": "address",
          "name": "account",
          "type": "address"
        }
      ],
      "name": "depositsOf",
      "outputs": [
        {
          "internalType": "uint256[]",
          "name": "",
          "type": "uint256[]"
        }
      ],
      "stateMutability": "view",
      "type": "function"
    },
    {
      "inputs": [],
      "name": "erc20Address",
      "outputs": [
        {
          "internalType": "address",
          "name": "",
          "type": "address"
        }
      ],
      "stateMutability": "view",
      "type": "function"
    },
    {
      "inputs": [],
      "name": "erc721Address",
      "outputs": [
        {
          "internalType": "address",
          "name": "",
          "type": "address"
        }
      ],
      "stateMutability": "view",
      "type": "function"
    },
    {
      "inputs": [],
      "name": "expiration",
      "outputs": [
        {
          "internalType": "uint256",
          "name": "",
          "type": "uint256"
        }
      ],
      "stateMutability": "view",
      "type": "function"
    },
    {
      "inputs": [
        {
          "internalType": "address",
          "name": "",
          "type": "address"
        },
        {
          "internalType": "address",
          "name": "",
          "type": "address"
        },
        {
          "internalType": "uint256",
          "name": "",
          "type": "uint256"
        },
        {
          "internalType": "bytes",
          "name": "",
          "type": "bytes"
        }
      ],
      "name": "onERC721Received",
      "outputs": [
        {
          "internalType": "bytes4",
          "name": "",
          "type": "bytes4"
        }
      ],
      "stateMutability": "pure",
      "type": "function"
    },
    {
      "inputs": [],
      "name": "owner",
      "outputs": [
        {
          "internalType": "address",
          "name": "",
          "type": "address"
        }
      ],
      "stateMutability": "view",
      "type": "function"
    },
    {
      "inputs": [],
      "name": "pause",
      "outputs": [],
      "stateMutability": "nonpayable",
      "type": "function"
    },
    {
      "inputs": [],
      "name": "paused",
      "outputs": [
        {
          "internalType": "bool",
          "name": "",
          "type": "bool"
        }
      ],
      "stateMutability": "view",
      "type": "function"
    },
    {
      "inputs": [],
      "name": "rate",
      "outputs": [
        {
          "internalType": "uint256",
          "name": "",
          "type": "uint256"
        }
      ],
      "stateMutability": "view",
      "type": "function"
    },
    {
      "inputs": [],
      "name": "renounceOwnership",
      "outputs": [],
      "stateMutability": "nonpayable",
      "type": "function"
    },
    {
      "inputs": [
        {
          "internalType": "uint256",
          "name": "_expiration",
          "type": "uint256"
        }
      ],
      "name": "setExpiration",
      "outputs": [],
      "stateMutability": "nonpayable",
      "type": "function"
    },
    {
      "inputs": [
        {
          "internalType": "uint256",
          "name": "_rate",
          "type": "uint256"
        }
      ],
      "name": "setRate",
      "outputs": [],
      "stateMutability": "nonpayable",
      "type": "function"
    },
    {
      "inputs": [
        {
          "internalType": "address",
          "name": "newOwner",
          "type": "address"
        }
      ],
      "name": "transferOwnership",
      "outputs": [],
      "stateMutability": "nonpayable",
      "type": "function"
    },
    {
      "inputs": [],
      "name": "unpause",
      "outputs": [],
      "stateMutability": "nonpayable",
      "type": "function"
    },
    {
      "inputs": [
        {
          "internalType": "uint256[]",
          "name": "tokenIds",
          "type": "uint256[]"
        }
      ],
      "name": "withdraw",
      "outputs": [],
      "stateMutability": "nonpayable",
      "type": "function"
    },
    {
      "inputs": [],
      "name": "withdrawTokens",
      "outputs": [],
      "stateMutability": "nonpayable",
      "type": "function"
    }
  ],
  "bytecode": "0x608060405260028054610100600160a81b03191690553480156200002257600080fd5b50604051620017ed380380620017ed8339810160408190526200004591620001d5565b6200005033620000ca565b600180556002805460ff19169055600380546001600160a01b0319166001600160a01b03861617905560078390556200008a82436200021f565b600655600480546001600160a01b0383166001600160a01b0319918216179091556005805490911630179055620000c06200011a565b5050505062000244565b600080546001600160a01b038381166001600160a01b0319831681178455604051919092169283917f8be0079c531659141344cd1fd0a4f28419497f9722a3daafe3b4186f6b6457e09190a35050565b60025460ff1615620001655760405162461bcd60e51b815260206004820152601060248201526f14185d5cd8589b194e881c185d5cd95960821b604482015260640160405180910390fd5b6002805460ff191660011790557f62e78cea01bee320cd4e420270b5ea74000d11b0c9f74754ebdbfc544b05a2586200019b3390565b6040516001600160a01b03909116815260200160405180910390a1565b80516001600160a01b0381168114620001d057600080fd5b919050565b60008060008060808587031215620001eb578384fd5b620001f685620001b8565b935060208501519250604085015191506200021460608601620001b8565b905092959194509250565b600082198211156200023f57634e487b7160e01b81526011600452602481fd5b500190565b61159980620002546000396000f3fe608060405234801561001057600080fd5b50600436106101425760003560e01c80635c975abb116100b85780638da5cb5b1161007c5780638da5cb5b1461029d578063983d95ce146102ae578063b343ae14146102c1578063e3a9db1a146102ec578063f2fde38b146102ff578063f6b4dfb41461031257600080fd5b80635c975abb1461025c5780635eac623914610272578063715018a6146102855780638456cb591461028d5780638d8f2adb1461029557600080fd5b80632c4e722e1161010a5780632c4e722e1461020757806334fcf437146102105780633f4ba83a146102255780634665096d1461022d578063515a20ba14610236578063598b8e711461024957600080fd5b8063068c526f14610147578063150b7a02146101705780631852e8d9146101a85780632352a864146101c9578063276184ae146101f4575b600080fd5b61015a61015536600461126f565b610325565b604051610167919061142b565b60405180910390f35b61018f61017e3660046111d9565b630a85bd0160e11b95945050505050565b6040516001600160e01b03199091168152602001610167565b6101bb6101b6366004611342565b610490565b604051908152602001610167565b6003546101dc906001600160a01b031681565b6040516001600160a01b039091168152602001610167565b6004546101dc906001600160a01b031681565b6101bb60075481565b61022361021e3660046113fb565b610592565b005b6102236105c1565b6101bb60065481565b6102236102443660046113fb565b6105f5565b61022361025736600461136b565b61062f565b60025460ff166040519015158152602001610167565b61022361028036600461136b565b6107bd565b61022361092b565b61022361095f565b610223610991565b6000546001600160a01b03166101dc565b6102236102bc36600461136b565b610aca565b6101bb6102cf366004611342565b600960209081526000928352604080842090915290825290205481565b61015a6102fa3660046111bf565b610cf5565b61022361030d3660046111bf565b610dcd565b6005546101dc906001600160a01b031681565b6060815167ffffffffffffffff81111561034f57634e487b7160e01b600052604160045260246000fd5b604051908082528060200260200182016040528015610378578160200160208202803683370190505b50905060005b82518110156104885760008382815181106103a957634e487b7160e01b600052603260045260246000fd5b6020026020010151905060096000866001600160a01b03166001600160a01b031681526020019081526020016000206000828152602001908152602001600020546103f643600654610e68565b6104009190611505565b6001600160a01b03861660009081526008602052604090206104229083610e7e565b61042d576000610430565b60015b60ff1660075461044091906114e6565b61044a91906114e6565b83838151811061046a57634e487b7160e01b600052603260045260246000fd5b602090810291909101015250806104808161151c565b91505061037e565b505b92915050565b6001600160a01b03821660009081526009602090815260408083208484529091528120546006546104c2904390610e68565b116105055760405162461bcd60e51b815260206004820152600e60248201526d496e76616c696420626c6f636b7360901b60448201526064015b60405180910390fd5b6001600160a01b0383166000908152600960209081526040808320858452909152902054600654610537904390610e68565b6105419190611505565b6001600160a01b03841660009081526008602052604090206105639084610e7e565b61056e576000610571565b60015b60ff1660075461058191906114e6565b61058b91906114e6565b9392505050565b6000546001600160a01b031633146105bc5760405162461bcd60e51b81526004016104fc90611499565b600755565b6000546001600160a01b031633146105eb5760405162461bcd60e51b81526004016104fc90611499565b6105f3610e96565b565b6000546001600160a01b0316331461061f5760405162461bcd60e51b81526004016104fc90611499565b61062981436114ce565b60065550565b60025460ff16156106525760405162461bcd60e51b81526004016104fc9061146f565b6003546001600160a01b031633141561069f5760405162461bcd60e51b815260206004820152600f60248201526e496e76616c6964206164647265737360881b60448201526064016104fc565b6106a982826107bd565b60005b818110156107b8576003546001600160a01b031663b88d4fde33308686868181106106e757634e487b7160e01b600052603260045260246000fd5b6040516001600160e01b031960e088901b1681526001600160a01b03958616600482015294909316602485015250602090910201356044820152608060648201526000608482015260a401600060405180830381600087803b15801561074c57600080fd5b505af1158015610760573d6000803e3d6000fd5b505050506107a583838381811061078757634e487b7160e01b600052603260045260246000fd5b33600090815260086020908152604090912093910201359050610f29565b50806107b08161151c565b9150506106ac565b505050565b60025460ff16156107e05760405162461bcd60e51b81526004016104fc9061146f565b6000806107ef43600654610e68565b905060005b838110156108975761082c3386868481811061082057634e487b7160e01b600052603260045260246000fd5b90506020020135610490565b61083690846114ce565b33600090815260096020526040812091945083919087878581811061086b57634e487b7160e01b600052603260045260246000fd5b90506020020135815260200190815260200160002081905550808061088f9061151c565b9150506107f4565b508115610925576004805460405163a9059cbb60e01b81523392810192909252602482018490526001600160a01b03169063a9059cbb90604401602060405180830381600087803b1580156108eb57600080fd5b505af11580156108ff573d6000803e3d6000fd5b505050506040513d601f19601f8201168201806040525081019061092391906113db565b505b50505050565b6000546001600160a01b031633146109555760405162461bcd60e51b81526004016104fc90611499565b6105f36000610f35565b6000546001600160a01b031633146109895760405162461bcd60e51b81526004016104fc90611499565b6105f3610f85565b6000546001600160a01b031633146109bb5760405162461bcd60e51b81526004016104fc90611499565b600480546040516370a0823160e01b815230928101929092526000916001600160a01b03909116906370a082319060240160206040518083038186803b158015610a0457600080fd5b505afa158015610a18573d6000803e3d6000fd5b505050506040513d601f19601f82011682018060405250810190610a3c9190611413565b6004805460405163a9059cbb60e01b81523392810192909252602482018390529192506001600160a01b039091169063a9059cbb90604401602060405180830381600087803b158015610a8e57600080fd5b505af1158015610aa2573d6000803e3d6000fd5b505050506040513d601f19601f82011682018060405250810190610ac691906113db565b5050565b60025460ff1615610aed5760405162461bcd60e51b81526004016104fc9061146f565b60026001541415610b405760405162461bcd60e51b815260206004820152601f60248201527f5265656e7472616e637947756172643a207265656e7472616e742063616c6c0060448201526064016104fc565b6002600155610b4f82826107bd565b60005b81811015610cec57610b9b838383818110610b7d57634e487b7160e01b600052603260045260246000fd5b33600090815260086020908152604090912093910201359050610e7e565b610be75760405162461bcd60e51b815260206004820152601c60248201527f5374616b696e673a20746f6b656e206e6f74206465706f73697465640000000060448201526064016104fc565b610c28838383818110610c0a57634e487b7160e01b600052603260045260246000fd5b33600090815260086020908152604090912093910201359050610fdd565b506003546001600160a01b031663b88d4fde3033868686818110610c5c57634e487b7160e01b600052603260045260246000fd5b6040516001600160e01b031960e088901b1681526001600160a01b03958616600482015294909316602485015250602090910201356044820152608060648201526000608482015260a401600060405180830381600087803b158015610cc157600080fd5b505af1158015610cd5573d6000803e3d6000fd5b505050508080610ce49061151c565b915050610b52565b50506001805550565b6001600160a01b0381166000908152600860205260408120606091610d1982610fe9565b67ffffffffffffffff811115610d3f57634e487b7160e01b600052604160045260246000fd5b604051908082528060200260200182016040528015610d68578160200160208202803683370190505b50905060005b610d7783610fe9565b811015610dc557610d888382610ff3565b828281518110610da857634e487b7160e01b600052603260045260246000fd5b602090810291909101015280610dbd8161151c565b915050610d6e565b509392505050565b6000546001600160a01b03163314610df75760405162461bcd60e51b81526004016104fc90611499565b6001600160a01b038116610e5c5760405162461bcd60e51b815260206004820152602660248201527f4f776e61626c653a206e6577206f776e657220697320746865207a65726f206160448201526564647265737360d01b60648201526084016104fc565b610e6581610f35565b50565b6000818310610e77578161058b565b5090919050565b6000818152600183016020526040812054151561058b565b60025460ff16610edf5760405162461bcd60e51b815260206004820152601460248201527314185d5cd8589b194e881b9bdd081c185d5cd95960621b60448201526064016104fc565b6002805460ff191690557f5db9ee0a495bf2e6ff9c91a7834c1ba4fdd244a5e8aa4e537bd38aeae4b073aa335b6040516001600160a01b03909116815260200160405180910390a1565b600061058b8383610fff565b600080546001600160a01b038381166001600160a01b0319831681178455604051919092169283917f8be0079c531659141344cd1fd0a4f28419497f9722a3daafe3b4186f6b6457e09190a35050565b60025460ff1615610fa85760405162461bcd60e51b81526004016104fc9061146f565b6002805460ff191660011790557f62e78cea01bee320cd4e420270b5ea74000d11b0c9f74754ebdbfc544b05a258610f0c3390565b600061058b838361104e565b600061048a825490565b600061058b838361116b565b60008181526001830160205260408120546110465750815460018181018455600084815260208082209093018490558454848252828601909352604090209190915561048a565b50600061048a565b60008181526001830160205260408120548015611161576000611072600183611505565b855490915060009061108690600190611505565b90508181146111075760008660000182815481106110b457634e487b7160e01b600052603260045260246000fd5b90600052602060002001549050808760000184815481106110e557634e487b7160e01b600052603260045260246000fd5b6000918252602080832090910192909255918252600188019052604090208390555b855486908061112657634e487b7160e01b600052603160045260246000fd5b60019003818190600052602060002001600090559055856001016000868152602001908152602001600020600090556001935050505061048a565b600091505061048a565b600082600001828154811061119057634e487b7160e01b600052603260045260246000fd5b9060005260206000200154905092915050565b80356001600160a01b03811681146111ba57600080fd5b919050565b6000602082840312156111d0578081fd5b61058b826111a3565b6000806000806000608086880312156111f0578081fd5b6111f9866111a3565b9450611207602087016111a3565b935060408601359250606086013567ffffffffffffffff8082111561122a578283fd5b818801915088601f83011261123d578283fd5b81358181111561124b578384fd5b89602082850101111561125c578384fd5b9699959850939650602001949392505050565b60008060408385031215611281578182fd5b61128a836111a3565b915060208084013567ffffffffffffffff808211156112a7578384fd5b818601915086601f8301126112ba578384fd5b8135818111156112cc576112cc61154d565b8060051b604051601f19603f830116810181811085821117156112f1576112f161154d565b604052828152858101935084860182860187018b101561130f578788fd5b8795505b83861015611331578035855260019590950194938601938601611313565b508096505050505050509250929050565b60008060408385031215611354578182fd5b61135d836111a3565b946020939093013593505050565b6000806020838503121561137d578182fd5b823567ffffffffffffffff80821115611394578384fd5b818501915085601f8301126113a7578384fd5b8135818111156113b5578485fd5b8660208260051b85010111156113c9578485fd5b60209290920196919550909350505050565b6000602082840312156113ec578081fd5b8151801515811461058b578182fd5b60006020828403121561140c578081fd5b5035919050565b600060208284031215611424578081fd5b5051919050565b6020808252825182820181905260009190848201906040850190845b8181101561146357835183529284019291840191600101611447565b50909695505050505050565b60208082526010908201526f14185d5cd8589b194e881c185d5cd95960821b604082015260600190565b6020808252818101527f4f776e61626c653a2063616c6c6572206973206e6f7420746865206f776e6572604082015260600190565b600082198211156114e1576114e1611537565b500190565b600081600019048311821515161561150057611500611537565b500290565b60008282101561151757611517611537565b500390565b600060001982141561153057611530611537565b5060010190565b634e487b7160e01b600052601160045260246000fd5b634e487b7160e01b600052604160045260246000fdfea2646970667358221220be0b3cc923e7a171082e5703be7d2022a41876106e2a7e579f794b62aeba30f264736f6c63430008040033",
  "linkReferences": {},
  "deployedLinkReferences": {}
}