{
  "_format": "hh-sol-artifact-1",
  "contractName": "Converter",
  "sourceName": "contracts/3_Converter.sol",
  "abi": [
    {
      "inputs": [
        {
          "internalType": "uint256",
          "name": "totalSupply",
          "type": "uint256"
        },
        {
          "internalType": "uint8",
          "name": "decimals",
          "type": "uint8"
        },
        {
          "internalType": "string",
          "name": "name",
          "type": "string"
        },
        {
          "internalType": "string",
          "name": "symbol",
          "type": "string"
        },
        {
          "internalType": "uint256",
          "name": "threshold",
          "type": "uint256"
        },
        {
          "internalType": "string",
          "name": "description",
          "type": "string"
        },
        {
          "internalType": "address",
          "name": "_issuer",
          "type": "address"
        },
        {
          "internalType": "contract IUnicFactory",
          "name": "_factory",
          "type": "address"
        }
      ],
      "stateMutability": "nonpayable",
      "type": "constructor"
    },
    {
      "anonymous": false,
      "inputs": [
        {
          "indexed": true,
          "internalType": "address",
          "name": "owner",
          "type": "address"
        },
        {
          "indexed": true,
          "internalType": "address",
          "name": "spender",
          "type": "address"
        },
        {
          "indexed": false,
          "internalType": "uint256",
          "name": "value",
          "type": "uint256"
        }
      ],
      "name": "Approval",
      "type": "event"
    },
    {
      "anonymous": false,
      "inputs": [
        {
          "indexed": false,
          "internalType": "address",
          "name": "sender",
          "type": "address"
        },
        {
          "indexed": false,
          "internalType": "uint256",
          "name": "nftIndex",
          "type": "uint256"
        },
        {
          "indexed": false,
          "internalType": "uint256",
          "name": "bidAmount",
          "type": "uint256"
        }
      ],
      "name": "BidCreated",
      "type": "event"
    },
    {
      "anonymous": false,
      "inputs": [
        {
          "indexed": false,
          "internalType": "address",
          "name": "sender",
          "type": "address"
        },
        {
          "indexed": false,
          "internalType": "uint256",
          "name": "nftIndex",
          "type": "uint256"
        }
      ],
      "name": "BidRemoved",
      "type": "event"
    },
    {
      "anonymous": false,
      "inputs": [
        {
          "indexed": false,
          "internalType": "address",
          "name": "winner",
          "type": "address"
        },
        {
          "indexed": false,
          "internalType": "uint256",
          "name": "nftIndex",
          "type": "uint256"
        },
        {
          "indexed": false,
          "internalType": "uint256",
          "name": "tokenId",
          "type": "uint256"
        }
      ],
      "name": "ClaimedNFT",
      "type": "event"
    },
    {
      "anonymous": false,
      "inputs": [
        {
          "indexed": false,
          "internalType": "uint256[]",
          "name": "tokenIDs",
          "type": "uint256[]"
        },
        {
          "indexed": false,
          "internalType": "uint256[]",
          "name": "amounts",
          "type": "uint256[]"
        },
        {
          "indexed": false,
          "internalType": "address",
          "name": "contractAddr",
          "type": "address"
        }
      ],
      "name": "Deposited",
      "type": "event"
    },
    {
      "anonymous": false,
      "inputs": [],
      "name": "Issued",
      "type": "event"
    },
    {
      "anonymous": false,
      "inputs": [],
      "name": "Refunded",
      "type": "event"
    },
    {
      "anonymous": false,
      "inputs": [
        {
          "indexed": true,
          "internalType": "address",
          "name": "from",
          "type": "address"
        },
        {
          "indexed": true,
          "internalType": "address",
          "name": "to",
          "type": "address"
        },
        {
          "indexed": false,
          "internalType": "uint256",
          "name": "value",
          "type": "uint256"
        }
      ],
      "name": "Transfer",
      "type": "event"
    },
    {
      "inputs": [],
      "name": "TOP_BID_LOCK_TIME",
      "outputs": [
        {
          "internalType": "uint256",
          "name": "",
          "type": "uint256"
        }
      ],
      "stateMutability": "view",
      "type": "function"
    },
    {
      "inputs": [],
      "name": "_description",
      "outputs": [
        {
          "internalType": "string",
          "name": "",
          "type": "string"
        }
      ],
      "stateMutability": "view",
      "type": "function"
    },
    {
      "inputs": [],
      "name": "_threshold",
      "outputs": [
        {
          "internalType": "uint256",
          "name": "",
          "type": "uint256"
        }
      ],
      "stateMutability": "view",
      "type": "function"
    },
    {
      "inputs": [],
      "name": "active",
      "outputs": [
        {
          "internalType": "bool",
          "name": "",
          "type": "bool"
        }
      ],
      "stateMutability": "view",
      "type": "function"
    },
    {
      "inputs": [
        {
          "internalType": "address",
          "name": "owner",
          "type": "address"
        },
        {
          "internalType": "address",
          "name": "spender",
          "type": "address"
        }
      ],
      "name": "allowance",
      "outputs": [
        {
          "internalType": "uint256",
          "name": "",
          "type": "uint256"
        }
      ],
      "stateMutability": "view",
      "type": "function"
    },
    {
      "inputs": [
        {
          "internalType": "address",
          "name": "spender",
          "type": "address"
        },
        {
          "internalType": "uint256",
          "name": "amount",
          "type": "uint256"
        }
      ],
      "name": "approve",
      "outputs": [
        {
          "internalType": "bool",
          "name": "",
          "type": "bool"
        }
      ],
      "stateMutability": "nonpayable",
      "type": "function"
    },
    {
      "inputs": [
        {
          "internalType": "uint256",
          "name": "amount",
          "type": "uint256"
        }
      ],
      "name": "approveUnlock",
      "outputs": [],
      "stateMutability": "nonpayable",
      "type": "function"
    },
    {
      "inputs": [
        {
          "internalType": "address",
          "name": "account",
          "type": "address"
        }
      ],
      "name": "balanceOf",
      "outputs": [
        {
          "internalType": "uint256",
          "name": "",
          "type": "uint256"
        }
      ],
      "stateMutability": "view",
      "type": "function"
    },
    {
      "inputs": [
        {
          "internalType": "uint256",
          "name": "nftIndex",
          "type": "uint256"
        }
      ],
      "name": "bid",
      "outputs": [],
      "stateMutability": "payable",
      "type": "function"
    },
    {
      "inputs": [
        {
          "internalType": "uint256",
          "name": "",
          "type": "uint256"
        },
        {
          "internalType": "address",
          "name": "",
          "type": "address"
        }
      ],
      "name": "bidRefunds",
      "outputs": [
        {
          "internalType": "uint256",
          "name": "",
          "type": "uint256"
        }
      ],
      "stateMutability": "view",
      "type": "function"
    },
    {
      "inputs": [
        {
          "internalType": "uint256",
          "name": "",
          "type": "uint256"
        }
      ],
      "name": "bids",
      "outputs": [
        {
          "internalType": "address",
          "name": "bidder",
          "type": "address"
        },
        {
          "internalType": "uint256",
          "name": "amount",
          "type": "uint256"
        },
        {
          "internalType": "uint256",
          "name": "time",
          "type": "uint256"
        }
      ],
      "stateMutability": "view",
      "type": "function"
    },
    {
      "inputs": [],
      "name": "cap",
      "outputs": [
        {
          "internalType": "uint256",
          "name": "",
          "type": "uint256"
        }
      ],
      "stateMutability": "view",
      "type": "function"
    },
    {
      "inputs": [
        {
          "internalType": "uint256",
          "name": "nftIndex",
          "type": "uint256"
        }
      ],
      "name": "claim",
      "outputs": [],
      "stateMutability": "nonpayable",
      "type": "function"
    },
    {
      "inputs": [],
      "name": "currentNFTIndex",
      "outputs": [
        {
          "internalType": "uint256",
          "name": "",
          "type": "uint256"
        }
      ],
      "stateMutability": "view",
      "type": "function"
    },
    {
      "inputs": [],
      "name": "decimals",
      "outputs": [
        {
          "internalType": "uint8",
          "name": "",
          "type": "uint8"
        }
      ],
      "stateMutability": "view",
      "type": "function"
    },
    {
      "inputs": [
        {
          "internalType": "address",
          "name": "spender",
          "type": "address"
        },
        {
          "internalType": "uint256",
          "name": "subtractedValue",
          "type": "uint256"
        }
      ],
      "name": "decreaseAllowance",
      "outputs": [
        {
          "internalType": "bool",
          "name": "",
          "type": "bool"
        }
      ],
      "stateMutability": "nonpayable",
      "type": "function"
    },
    {
      "inputs": [
        {
          "internalType": "uint256[]",
          "name": "tokenIDs",
          "type": "uint256[]"
        },
        {
          "internalType": "uint256[]",
          "name": "amounts",
          "type": "uint256[]"
        },
        {
          "internalType": "address",
          "name": "contractAddr",
          "type": "address"
        }
      ],
      "name": "deposit",
      "outputs": [],
      "stateMutability": "nonpayable",
      "type": "function"
    },
    {
      "inputs": [],
      "name": "factory",
      "outputs": [
        {
          "internalType": "contract IUnicFactory",
          "name": "",
          "type": "address"
        }
      ],
      "stateMutability": "view",
      "type": "function"
    },
    {
      "inputs": [
        {
          "internalType": "address",
          "name": "spender",
          "type": "address"
        },
        {
          "internalType": "uint256",
          "name": "addedValue",
          "type": "uint256"
        }
      ],
      "name": "increaseAllowance",
      "outputs": [
        {
          "internalType": "bool",
          "name": "",
          "type": "bool"
        }
      ],
      "stateMutability": "nonpayable",
      "type": "function"
    },
    {
      "inputs": [],
      "name": "issue",
      "outputs": [],
      "stateMutability": "nonpayable",
      "type": "function"
    },
    {
      "inputs": [],
      "name": "issuer",
      "outputs": [
        {
          "internalType": "address",
          "name": "",
          "type": "address"
        }
      ],
      "stateMutability": "view",
      "type": "function"
    },
    {
      "inputs": [],
      "name": "name",
      "outputs": [
        {
          "internalType": "string",
          "name": "",
          "type": "string"
        }
      ],
      "stateMutability": "view",
      "type": "function"
    },
    {
      "inputs": [
        {
          "internalType": "uint256",
          "name": "",
          "type": "uint256"
        }
      ],
      "name": "nfts",
      "outputs": [
        {
          "internalType": "address",
          "name": "contractAddr",
          "type": "address"
        },
        {
          "internalType": "uint256",
          "name": "tokenId",
          "type": "uint256"
        },
        {
          "internalType": "uint256",
          "name": "amount",
          "type": "uint256"
        },
        {
          "internalType": "bool",
          "name": "claimed",
          "type": "bool"
        }
      ],
      "stateMutability": "view",
      "type": "function"
    },
    {
      "inputs": [
        {
          "internalType": "address",
          "name": "_operator",
          "type": "address"
        },
        {
          "internalType": "address",
          "name": "_from",
          "type": "address"
        },
        {
          "internalType": "uint256[]",
          "name": "_ids",
          "type": "uint256[]"
        },
        {
          "internalType": "uint256[]",
          "name": "_values",
          "type": "uint256[]"
        },
        {
          "internalType": "bytes",
          "name": "_data",
          "type": "bytes"
        }
      ],
      "name": "onERC1155BatchReceived",
      "outputs": [
        {
          "internalType": "bytes4",
          "name": "",
          "type": "bytes4"
        }
      ],
      "stateMutability": "nonpayable",
      "type": "function"
    },
    {
      "inputs": [
        {
          "internalType": "address",
          "name": "_operator",
          "type": "address"
        },
        {
          "internalType": "address",
          "name": "_from",
          "type": "address"
        },
        {
          "internalType": "uint256",
          "name": "_id",
          "type": "uint256"
        },
        {
          "internalType": "uint256",
          "name": "_value",
          "type": "uint256"
        },
        {
          "internalType": "bytes",
          "name": "_data",
          "type": "bytes"
        }
      ],
      "name": "onERC1155Received",
      "outputs": [
        {
          "internalType": "bytes4",
          "name": "",
          "type": "bytes4"
        }
      ],
      "stateMutability": "nonpayable",
      "type": "function"
    },
    {
      "inputs": [
        {
          "internalType": "uint256",
          "name": "amount",
          "type": "uint256"
        }
      ],
      "name": "redeemETH",
      "outputs": [],
      "stateMutability": "nonpayable",
      "type": "function"
    },
    {
      "inputs": [
        {
          "internalType": "address",
          "name": "_to",
          "type": "address"
        }
      ],
      "name": "refund",
      "outputs": [],
      "stateMutability": "nonpayable",
      "type": "function"
    },
    {
      "inputs": [
        {
          "internalType": "bytes4",
          "name": "interfaceId",
          "type": "bytes4"
        }
      ],
      "name": "supportsInterface",
      "outputs": [
        {
          "internalType": "bool",
          "name": "",
          "type": "bool"
        }
      ],
      "stateMutability": "view",
      "type": "function"
    },
    {
      "inputs": [],
      "name": "symbol",
      "outputs": [
        {
          "internalType": "string",
          "name": "",
          "type": "string"
        }
      ],
      "stateMutability": "view",
      "type": "function"
    },
    {
      "inputs": [],
      "name": "totalBidAmount",
      "outputs": [
        {
          "internalType": "uint256",
          "name": "",
          "type": "uint256"
        }
      ],
      "stateMutability": "view",
      "type": "function"
    },
    {
      "inputs": [],
      "name": "totalSupply",
      "outputs": [
        {
          "internalType": "uint256",
          "name": "",
          "type": "uint256"
        }
      ],
      "stateMutability": "view",
      "type": "function"
    },
    {
      "inputs": [
        {
          "internalType": "address",
          "name": "recipient",
          "type": "address"
        },
        {
          "internalType": "uint256",
          "name": "amount",
          "type": "uint256"
        }
      ],
      "name": "transfer",
      "outputs": [
        {
          "internalType": "bool",
          "name": "",
          "type": "bool"
        }
      ],
      "stateMutability": "nonpayable",
      "type": "function"
    },
    {
      "inputs": [
        {
          "internalType": "address",
          "name": "sender",
          "type": "address"
        },
        {
          "internalType": "address",
          "name": "recipient",
          "type": "address"
        },
        {
          "internalType": "uint256",
          "name": "amount",
          "type": "uint256"
        }
      ],
      "name": "transferFrom",
      "outputs": [
        {
          "internalType": "bool",
          "name": "",
          "type": "bool"
        }
      ],
      "stateMutability": "nonpayable",
      "type": "function"
    },
    {
      "inputs": [
        {
          "internalType": "uint256",
          "name": "amount",
          "type": "uint256"
        }
      ],
      "name": "unapproveUnlock",
      "outputs": [],
      "stateMutability": "nonpayable",
      "type": "function"
    },
    {
      "inputs": [
        {
          "internalType": "uint256",
          "name": "nftIndex",
          "type": "uint256"
        }
      ],
      "name": "unbid",
      "outputs": [],
      "stateMutability": "nonpayable",
      "type": "function"
    },
    {
      "inputs": [
        {
          "internalType": "address",
          "name": "",
          "type": "address"
        }
      ],
      "name": "unlockApproved",
      "outputs": [
        {
          "internalType": "uint256",
          "name": "",
          "type": "uint256"
        }
      ],
      "stateMutability": "view",
      "type": "function"
    },
    {
      "inputs": [],
      "name": "unlockVotes",
      "outputs": [
        {
          "internalType": "uint256",
          "name": "",
          "type": "uint256"
        }
      ],
      "stateMutability": "view",
      "type": "function"
    }
  ],
  "bytecode": "0x6080604052600060078190556008805460ff191690556009819055600a553480156200002a57600080fd5b5060405162003145380380620031458339810160408190526200004d916200027a565b85518690869062000066906003906020850190620000f2565b5080516200007c906004906020840190620000f2565b50506005805460ff191660ff8a1617905550600c80546001600160a01b0319166001600160a01b0384161790558251620000be90600d906020860190620000f2565b50600b939093555050601080546001600160a01b0319166001600160a01b03909216919091179055505050600e55620003a7565b828054620001009062000354565b90600052602060002090601f0160209004810192826200012457600085556200016f565b82601f106200013f57805160ff19168380011785556200016f565b828001600101855582156200016f579182015b828111156200016f57825182559160200191906001019062000152565b506200017d92915062000181565b5090565b5b808211156200017d576000815560010162000182565b80516001600160a01b0381168114620001b057600080fd5b919050565b600082601f830112620001c6578081fd5b81516001600160401b0380821115620001e357620001e362000391565b604051601f8301601f19908116603f011681019082821181831017156200020e576200020e62000391565b816040528381526020925086838588010111156200022a578485fd5b8491505b838210156200024d57858201830151818301840152908201906200022e565b838211156200025e57848385830101525b9695505050505050565b805160ff81168114620001b057600080fd5b600080600080600080600080610100898b03121562000297578384fd5b88519750620002a960208a0162000268565b60408a01519097506001600160401b0380821115620002c6578586fd5b620002d48c838d01620001b5565b975060608b0151915080821115620002ea578586fd5b620002f88c838d01620001b5565b965060808b0151955060a08b015191508082111562000315578485fd5b50620003248b828c01620001b5565b9350506200033560c08a0162000198565b91506200034560e08a0162000198565b90509295985092959890939650565b600181811c908216806200036957607f821691505b602082108114156200038b57634e487b7160e01b600052602260045260246000fd5b50919050565b634e487b7160e01b600052604160045260246000fd5b612d8e80620003b76000396000f3fe60806040526004361061021a5760003560e01c806370a0823111610123578063bc197c81116100ab578063dd62ed3e1161006f578063dd62ed3e146106f0578063e3a7c90314610736578063ee7a11631461074c578063f23a6e6114610762578063fa89401a1461078257600080fd5b8063bc197c8114610656578063c45a01551461068f578063c79045cb146106af578063cfa84dfe146106c6578063d383f646146106db57600080fd5b806395d89b41116100f257806395d89b41146105be5780639d13fb24146105d3578063a457c2d714610600578063a9059cbb14610620578063af58e6f01461064057600080fd5b806370a08231146105325780637e067a60146105685780637f3c8160146105885780637fc6bb3d1461059e57600080fd5b8063265aa621116101a6578063379607f511610175578063379607f51461045457806339509351146104745780634423c5f114610494578063454a2ab3146104ff578063525d02b81461051257600080fd5b8063265aa621146103695780632788aeb2146103e4578063313ce5671461041c578063355274ea1461043e57600080fd5b80630e4cfe97116101ed5780630e4cfe97146102b057806318160ddd146102d25780631d143848146102f157806322a250821461032957806323b872dd1461034957600080fd5b806301ffc9a71461021f57806302fb0c5e1461025457806306fdde031461026e578063095ea7b314610290575b600080fd5b34801561022b57600080fd5b5061023f61023a366004612958565b6107a2565b60405190151581526020015b60405180910390f35b34801561026057600080fd5b5060085461023f9060ff1681565b34801561027a57600080fd5b506102836107d9565b60405161024b9190612b49565b34801561029c57600080fd5b5061023f6102ab36600461288c565b61086b565b3480156102bc57600080fd5b506102d06102cb366004612980565b610881565b005b3480156102de57600080fd5b506002545b60405190815260200161024b565b3480156102fd57600080fd5b50600c54610311906001600160a01b031681565b6040516001600160a01b03909116815260200161024b565b34801561033557600080fd5b506102d0610344366004612980565b610bc0565b34801561035557600080fd5b5061023f6103643660046127d2565b610c5e565b34801561037557600080fd5b506103b8610384366004612980565b60066020526000908152604090208054600182015460028301546003909301546001600160a01b0390921692909160ff1684565b604080516001600160a01b0390951685526020850193909352918301521515606082015260800161024b565b3480156103f057600080fd5b506102e36103ff3660046129b0565b601260209081526000928352604080842090915290825290205481565b34801561042857600080fd5b5060055460405160ff909116815260200161024b565b34801561044a57600080fd5b506102e3600e5481565b34801561046057600080fd5b506102d061046f366004612980565b610cc7565b34801561048057600080fd5b5061023f61048f36600461288c565b610fd0565b3480156104a057600080fd5b506104da6104af366004612980565b6011602052600090815260409020805460018201546002909201546001600160a01b03909116919083565b604080516001600160a01b03909416845260208401929092529082015260600161024b565b6102d061050d366004612980565b611006565b34801561051e57600080fd5b506102d061052d366004612980565b6112a7565b34801561053e57600080fd5b506102e361054d3660046126a7565b6001600160a01b031660009081526020819052604090205490565b34801561057457600080fd5b506102d06105833660046128b7565b61142d565b34801561059457600080fd5b506102e3600b5481565b3480156105aa57600080fd5b506102d06105b9366004612980565b61191e565b3480156105ca57600080fd5b50610283611a2f565b3480156105df57600080fd5b506102e36105ee3660046126a7565b600f6020526000908152604090205481565b34801561060c57600080fd5b5061023f61061b36600461288c565b611a3e565b34801561062c57600080fd5b5061023f61063b36600461288c565b611a8d565b34801561064c57600080fd5b506102e360075481565b34801561066257600080fd5b50610676610671366004612717565b611a9a565b6040516001600160e01b0319909116815260200161024b565b34801561069b57600080fd5b50601054610311906001600160a01b031681565b3480156106bb57600080fd5b506102e36203f48081565b3480156106d257600080fd5b50610283611b0c565b3480156106e757600080fd5b506102d0611b9a565b3480156106fc57600080fd5b506102e361070b3660046126df565b6001600160a01b03918216600090815260016020908152604080832093909416825291909152205490565b34801561074257600080fd5b506102e3600a5481565b34801561075857600080fd5b506102e360095481565b34801561076e57600080fd5b5061067661077d366004612812565b611d6d565b34801561078e57600080fd5b506102d061079d3660046126a7565b611ddd565b60006001600160e01b03198216630271189760e51b14806107d357506301ffc9a760e01b6001600160e01b03198316145b92915050565b6060600380546107e890612c44565b80601f016020809104026020016040519081016040528092919081815260200182805461081490612c44565b80156108615780601f1061083657610100808354040283529160200191610861565b820191906000526020600020905b81548152906001019060200180831161084457829003601f168201915b5050505050905090565b60006108783384846120e7565b50600192915050565b600081815260116020908152604091829020825160608101845281546001600160a01b031680825260018301549382019390935260029091015492810192909252600b54600a5433909214911061094b57801561094b5760405162461bcd60e51b815260206004820152603d60248201527f436f6e7665727465723a2052656c65617365207468726573686f6c642068617360448201527f206265656e206d65742c2077696e6e65722063616e277420756e62696400000060648201526084015b60405180910390fd5b8015610acf57426203f48083604001516109659190612b93565b106109b25760405162461bcd60e51b815260206004820152601960248201527f436f6e7665727465723a20546f7020626964206c6f636b6564000000000000006044820152606401610942565b8160200151600960008282546109c89190612bea565b909155505060408051606081018252600080825260208083018281524284860190815288845260118352858420945185546001600160a01b0319166001600160a01b039091161785559051600185015551600290930192909255908401519151909182913391908381818185875af1925050503d8060008114610a67576040519150601f19603f3d011682016040523d82523d6000602084013e610a6c565b606091505b509150915081610a8e5760405162461bcd60e51b815260040161094290612b5c565b60408051338152602081018790527f7fd2c6472e4a5cf47dd45d6e616062bb6b2a25c19206eaa78f5ac8ea80cd5f9791015b60405180910390a15050505050565b600083815260126020908152604080832033845290915290205480610b365760405162461bcd60e51b815260206004820152601760248201527f436f6e7665727465723a206e6f2062696420666f756e640000000000000000006044820152606401610942565b60008481526012602090815260408083203380855292528083208390555182919084908381818185875af1925050503d8060008114610b91576040519150601f19603f3d011682016040523d82523d6000602084013e610b96565b606091505b509150915081610bb85760405162461bcd60e51b815260040161094290612b5c565b505050505050565b600b54600a5410610c135760405162461bcd60e51b815260206004820152601c60248201527f436f6e7665727465723a205468726573686f6c642072656163686564000000006044820152606401610942565b610c1e33308361220c565b336000908152600f602052604081208054839290610c3d908490612b93565b9250508190555080600a6000828254610c569190612b93565b909155505050565b6000610c6b84848461220c565b610cbd8433610cb885604051806060016040528060288152602001612d0c602891396001600160a01b038a166000908152600160209081526040808320338452909152902054919061238f565b6120e7565b5060019392505050565b600b54600a541015610d1b5760405162461bcd60e51b815260206004820152601c60248201527f436f6e7665727465723a205468726573686f6c64206e6f74206d6574000000006044820152606401610942565b60008181526006602052604090206003015460ff1615610d7d5760405162461bcd60e51b815260206004820152601a60248201527f436f6e7665727465723a20416c726561647920636c61696d65640000000000006044820152606401610942565b600081815260116020908152604091829020825160608101845281546001600160a01b0316808252600183015493820193909352600290910154928101929092523314610e0c5760405162461bcd60e51b815260206004820181905260248201527f436f6e7665727465723a204f6e6c792077696e6e65722063616e20636c61696d6044820152606401610942565b60008281526006602090815260409182902060038101805460ff19166001908117909155835160808101855282546001600160a01b03168082528383015494820194909452600290920154938201939093526060810192909252610e7790636cdb3d1360e11b6123bb565b15610ef2578051825160208301516040808501519051637921219560e11b81526060946001600160a01b03169363f242432a93610eba9330938890600401612ac2565b600060405180830381600087803b158015610ed457600080fd5b505af1158015610ee8573d6000803e3d6000fd5b5050505050610f7d565b8051610f05906380ac58cd60e01b6123bb565b15610f7d57805182516020830151604051632142170760e11b81523060048201526001600160a01b03928316602482015260448101919091529116906342842e0e90606401600060405180830381600087803b158015610f6457600080fd5b505af1158015610f78573d6000803e3d6000fd5b505050505b8151602082810151604080516001600160a01b03909416845291830186905282820152517feeca06d3fb2f51c15539b63d32d639ef54c363f311045a0cbec5971f7fd355329181900360600190a1505050565b3360008181526001602090815260408083206001600160a01b03871684529091528120549091610878918590610cb890866123de565b600b54600a541061107f5760405162461bcd60e51b815260206004820152603f60248201527f436f6e7665727465723a2052656c65617365207468726573686f6c642068617360448201527f206265656e206d65742c206e6f206d6f7265206269647320616c6c6f776564006064820152608401610942565b600081815260116020908152604091829020825160608101845281546001600160a01b0316808252600183015493820193909352600290910154928101929092523314156111195760405162461bcd60e51b815260206004820152602160248201527f436f6e7665727465723a20596f75206861766520616e206163746976652062696044820152601960fa1b6064820152608401610942565b348160200151106111655760405162461bcd60e51b8152602060048201526016602482015275436f6e7665727465723a2042696420746f6f206c6f7760501b6044820152606401610942565b6000828152601260209081526040808320338452909152902054156111cc5760405162461bcd60e51b815260206004820152601d60248201527f436f6e7665727465723a20436f6c6c6563742062696420726566756e640000006044820152606401610942565b604080516060810182523381523460208201529081014290526000838152601160209081526040808320845181546001600160a01b0319166001600160a01b03918216178255858401516001830155948201516002909101558482018051601284528285208751909616855294909252909120919091555161124e9034612bea565b6009600082825461125f9190612b93565b90915550506040805133815260208101849052348183015290517fbc13236afe4f10fc8d44c86b16e9e6695b2758938a2bedf6ceef72157259447b9181900360600190a15050565b600b54600a5410156112fb5760405162461bcd60e51b815260206004820152601c60248201527f436f6e7665727465723a205468726573686f6c64206e6f74206d6574000000006044820152606401610942565b801561130c5761130c33308361220c565b336000908152600f60205260408120546113269083612b93565b336000818152600f6020908152604080832083905580516318160ddd60e01b8152905194955091938493926113c49230926318160ddd926004808201939291829003018186803b15801561137957600080fd5b505afa15801561138d573d6000803e3d6000fd5b505050506040513d601f19601f820116820180604052508101906113b19190612998565b6009546113be90876123ea565b906123f6565b604051600081818185875af1925050503d8060008114611400576040519150601f19603f3d011682016040523d82523d6000602084013e611405565b606091505b5091509150816114275760405162461bcd60e51b815260040161094290612b5c565b50505050565b600c546001600160a01b031633146114925760405162461bcd60e51b815260206004820152602260248201527f436f6e7665727465723a204f6e6c79206973737565722063616e206465706f736044820152611a5d60f21b6064820152608401610942565b60328411156115095760405162461bcd60e51b815260206004820152603c60248201527f436f6e7665727465723a2041206d6178696d756d206f6620353020746f6b656e60448201527f732063616e206265206465706f736974656420696e206f6e6520676f000000006064820152608401610942565b836115705760405162461bcd60e51b815260206004820152603160248201527f436f6e7665727465723a20596f75206d7573742073706563696679206174206c60448201527019585cdd081bdb99481d1bdad95b881251607a1b6064820152608401610942565b61158181636cdb3d1360e11b6123bb565b1561172f576040805180820182526004808252634a434d5960e01b60208301529151631759616b60e11b81526001600160a01b03841692632eb2c2d6926115d692339230928c928c928c928c92909101612a60565b600060405180830381600087803b1580156115f057600080fd5b505af1158015611604573d6000803e3d6000fd5b5050505060005b60328160ff1610156117295760ff811685141561162757611729565b6040518060800160405280836001600160a01b0316815260200187878460ff1681811061166457634e487b7160e01b600052603260045260246000fd5b90506020020135815260200185858460ff1681811061169357634e487b7160e01b600052603260045260246000fd5b60209081029290920135835250600091018190526007805460069291826116b983612c7f565b9091555081526020808201929092526040908101600020835181546001600160a01b0319166001600160a01b0390911617815591830151600183015582015160028201556060909101516003909101805460ff19169115159190911790558061172181612c9a565b91505061160b565b506118e7565b611740816380ac58cd60e01b6123bb565b156118e75760005b60328160ff1610156118e55760ff8116851415611764576118e5565b816001600160a01b03166323b872dd333089898660ff1681811061179857634e487b7160e01b600052603260045260246000fd5b6040516001600160e01b031960e088901b1681526001600160a01b03958616600482015294909316602485015250602090910201356044820152606401600060405180830381600087803b1580156117ef57600080fd5b505af1158015611803573d6000803e3d6000fd5b505050506040518060800160405280836001600160a01b0316815260200187878460ff1681811061184457634e487b7160e01b600052603260045260246000fd5b9050602002013581526020016001815260200160001515815250600660006007600081548092919061187590612c7f565b9091555081526020808201929092526040908101600020835181546001600160a01b0319166001600160a01b0390911617815591830151600183015582015160028201556060909101516003909101805460ff1916911515919091179055806118dd81612c9a565b915050611748565b505b7fa483e688f75a9865537d84843ea1c4d1c5f25f6f00565268e91430c4d75cc01b8585858585604051610ac0959493929190612b07565b600b54600a54106119715760405162461bcd60e51b815260206004820152601c60248201527f436f6e7665727465723a205468726573686f6c642072656163686564000000006044820152606401610942565b336000908152600f60205260409020548111156119e55760405162461bcd60e51b815260206004820152602c60248201527f436f6e7665727465723a204e6f7420656e6f7567682075546f6b656e73206c6f60448201526b31b5b2b210313c903ab9b2b960a11b6064820152608401610942565b80600a60008282546119f79190612bea565b9091555050336000908152600f602052604081208054839290611a1b908490612bea565b90915550611a2c905030338361220c565b50565b6060600480546107e890612c44565b60006108783384610cb885604051806060016040528060258152602001612d34602591393360009081526001602090815260408083206001600160a01b038d168452909152902054919061238f565b600061087833848461220c565b60408051808201825260048152634a434d5960e01b602090910152516000907feed964cd3ee5613603b1b7b354cb5c8fd82ad356c751242d3c986feb1c086de390611ae89085908590612a34565b60405180910390201415611b00575063bc197c8160e01b5b98975050505050505050565b600d8054611b1990612c44565b80601f0160208091040260200160405190810160405280929190818152602001828054611b4590612c44565b8015611b925780601f10611b6757610100808354040283529160200191611b92565b820191906000526020600020905b815481529060010190602001808311611b7557829003601f168201915b505050505081565b600c546001600160a01b03163314611c085760405162461bcd60e51b815260206004820152602b60248201527f436f6e7665727465723a204f6e6c79206973737565722063616e20697373756560448201526a2074686520746f6b656e7360a81b6064820152608401610942565b60085460ff1615611c665760405162461bcd60e51b815260206004820152602260248201527f436f6e7665727465723a20546f6b656e20697320616c72656164792061637469604482015261766560f01b6064820152608401610942565b6008805460ff1916600117905560105460408051622fcfcb60e31b815290516000926001600160a01b03169163017e7e58916004808301926020929190829003018186803b158015611cb757600080fd5b505afa158015611ccb573d6000803e3d6000fd5b505050506040513d601f19601f82011682018060405250810190611cef91906126c3565b905060006001600160a01b03821615611d1c57600e54611d109060c86123f6565b9050611d1c8282612402565b600c54600e54611d40916001600160a01b031690611d3b908490612bea565b612402565b6040517fee1d8c0a784b4733dc46e6e61233f85c6b4e41244a61fe29f41a84d3f8a3d01c90600090a15050565b60408051808201825260048152634a434d5960e01b602090910152516000907feed964cd3ee5613603b1b7b354cb5c8fd82ad356c751242d3c986feb1c086de390611dbb9085908590612a34565b60405180910390201415611dd3575063f23a6e6160e01b5b9695505050505050565b60085460ff1615611e4e5760405162461bcd60e51b815260206004820152603560248201527f436f6e7665727465723a20436f6e747261637420697320616c7265616479206160448201527418dd1a5d99480b4818d85b9b9bdd081c99599d5b99605a1b6064820152608401610942565b600c546001600160a01b03163314611eb25760405162461bcd60e51b815260206004820152602160248201527f436f6e7665727465723a204f6e6c79206973737565722063616e20726566756e6044820152601960fa1b6064820152608401610942565b60075460009060605b600082118015611ece575060328360ff16105b156120b3576000600681611ee3600186612bea565b81526020808201929092526040908101600020815160808101835281546001600160a01b03168082526001830154948201949094526002820154928101929092526003015460ff16151560608201529150611f4590636cdb3d1360e11b6123bb565b15611fc057805160208201516040808401519051637921219560e11b81526001600160a01b039093169263f242432a92611f899230928b9291908990600401612ac2565b600060405180830381600087803b158015611fa357600080fd5b505af1158015611fb7573d6000803e3d6000fd5b50505050612049565b8051611fd3906380ac58cd60e01b6123bb565b156120495780516020820151604051632142170760e11b81523060048201526001600160a01b03888116602483015260448201929092529116906342842e0e90606401600060405180830381600087803b15801561203057600080fd5b505af1158015612044573d6000803e3d6000fd5b505050505b60066000612058600186612bea565b81526020810191909152604001600090812080546001600160a01b0319168155600181018290556002810191909155600301805460ff191690558261209c81612c2d565b93505083806120aa90612c9a565b94505050611ebb565b60078290556040517f8616bbbbad963e4e65b1366f1d75dfb63f9e9704bbbf91fb01bec70849906cf790600090a150505050565b6001600160a01b0383166121495760405162461bcd60e51b8152602060048201526024808201527f45524332303a20617070726f76652066726f6d20746865207a65726f206164646044820152637265737360e01b6064820152608401610942565b6001600160a01b0382166121aa5760405162461bcd60e51b815260206004820152602260248201527f45524332303a20617070726f766520746f20746865207a65726f206164647265604482015261737360f01b6064820152608401610942565b6001600160a01b0383811660008181526001602090815260408083209487168084529482529182902085905590518481527f8c5be1e5ebec7d5bd14f71427d1e84f3dd0314c0f7b2291e5b200ac8c7c3b92591015b60405180910390a3505050565b6001600160a01b0383166122705760405162461bcd60e51b815260206004820152602560248201527f45524332303a207472616e736665722066726f6d20746865207a65726f206164604482015264647265737360d81b6064820152608401610942565b6001600160a01b0382166122d25760405162461bcd60e51b815260206004820152602360248201527f45524332303a207472616e7366657220746f20746865207a65726f206164647260448201526265737360e81b6064820152608401610942565b61230f81604051806060016040528060268152602001612ce6602691396001600160a01b038616600090815260208190526040902054919061238f565b6001600160a01b03808516600090815260208190526040808220939093559084168152205461233e90826123de565b6001600160a01b038381166000818152602081815260409182902094909455518481529092918616917fddf252ad1be2c89b69c2b068fc378daa952ba7f163c4a11628f55a4df523b3ef91016121ff565b600081848411156123b35760405162461bcd60e51b81526004016109429190612b49565b505050900390565b60006123c6836124e0565b80156123d757506123d78383612513565b9392505050565b60006123d78284612b93565b60006123d78284612bcb565b60006123d78284612bab565b6001600160a01b0382166124585760405162461bcd60e51b815260206004820152601f60248201527f45524332303a206d696e7420746f20746865207a65726f2061646472657373006044820152606401610942565b60025461246590826123de565b6002556001600160a01b03821660009081526020819052604090205461248b90826123de565b6001600160a01b038316600081815260208181526040808320949094559251848152919290917fddf252ad1be2c89b69c2b068fc378daa952ba7f163c4a11628f55a4df523b3ef910160405180910390a35050565b60006124f3826301ffc9a760e01b612513565b80156107d3575061250c826001600160e01b0319612513565b1592915050565b60008060006125228585612539565b915091508180156125305750805b95945050505050565b604080516001600160e01b0319831660248083019190915282518083039091018152604490910182526020810180516001600160e01b03166301ffc9a760e01b17905290516000918291829081906001600160a01b03881690617530906125a1908690612a44565b6000604051808303818686fa925050503d80600081146125dd576040519150601f19603f3d011682016040523d82523d6000602084013e6125e2565b606091505b5091509150602081511015612600576000809450945050505061261d565b81818060200190518101906126159190612938565b945094505050505b9250929050565b60008083601f840112612635578182fd5b50813567ffffffffffffffff81111561264c578182fd5b6020830191508360208260051b850101111561261d57600080fd5b60008083601f840112612678578182fd5b50813567ffffffffffffffff81111561268f578182fd5b60208301915083602082850101111561261d57600080fd5b6000602082840312156126b8578081fd5b81356123d781612cd0565b6000602082840312156126d4578081fd5b81516123d781612cd0565b600080604083850312156126f1578081fd5b82356126fc81612cd0565b9150602083013561270c81612cd0565b809150509250929050565b60008060008060008060008060a0898b031215612732578384fd5b883561273d81612cd0565b9750602089013561274d81612cd0565b9650604089013567ffffffffffffffff80821115612769578586fd5b6127758c838d01612624565b909850965060608b013591508082111561278d578586fd5b6127998c838d01612624565b909650945060808b01359150808211156127b1578384fd5b506127be8b828c01612667565b999c989b5096995094979396929594505050565b6000806000606084860312156127e6578283fd5b83356127f181612cd0565b9250602084013561280181612cd0565b929592945050506040919091013590565b60008060008060008060a0878903121561282a578182fd5b863561283581612cd0565b9550602087013561284581612cd0565b94506040870135935060608701359250608087013567ffffffffffffffff81111561286e578283fd5b61287a89828a01612667565b979a9699509497509295939492505050565b6000806040838503121561289e578182fd5b82356128a981612cd0565b946020939093013593505050565b6000806000806000606086880312156128ce578081fd5b853567ffffffffffffffff808211156128e5578283fd5b6128f189838a01612624565b90975095506020880135915080821115612909578283fd5b5061291688828901612624565b909450925050604086013561292a81612cd0565b809150509295509295909350565b600060208284031215612949578081fd5b815180151581146123d7578182fd5b600060208284031215612969578081fd5b81356001600160e01b0319811681146123d7578182fd5b600060208284031215612991578081fd5b5035919050565b6000602082840312156129a9578081fd5b5051919050565b600080604083850312156129c2578182fd5b82359150602083013561270c81612cd0565b81835260006001600160fb1b038311156129ec578081fd5b8260051b80836020870137939093016020019283525090919050565b60008151808452612a20816020860160208601612c01565b601f01601f19169290920160200192915050565b8183823760009101908152919050565b60008251612a56818460208701612c01565b9190910192915050565b6001600160a01b0388811682528716602082015260a060408201819052600090612a8d90830187896129d4565b8281036060840152612aa08186886129d4565b90508281036080840152612ab48185612a08565b9a9950505050505050505050565b6001600160a01b03868116825285166020820152604081018490526060810183905260a060808201819052600090612afc90830184612a08565b979650505050505050565b606081526000612b1b6060830187896129d4565b8281036020840152612b2e8186886129d4565b91505060018060a01b03831660408301529695505050505050565b6020815260006123d76020830184612a08565b6020808252601f908201527f436f6e7665727465723a204661696c656420746f2073656e6420457468657200604082015260600190565b60008219821115612ba657612ba6612cba565b500190565b600082612bc657634e487b7160e01b81526012600452602481fd5b500490565b6000816000190483118215151615612be557612be5612cba565b500290565b600082821015612bfc57612bfc612cba565b500390565b60005b83811015612c1c578181015183820152602001612c04565b838111156114275750506000910152565b600081612c3c57612c3c612cba565b506000190190565b600181811c90821680612c5857607f821691505b60208210811415612c7957634e487b7160e01b600052602260045260246000fd5b50919050565b6000600019821415612c9357612c93612cba565b5060010190565b600060ff821660ff811415612cb157612cb1612cba565b60010192915050565b634e487b7160e01b600052601160045260246000fd5b6001600160a01b0381168114611a2c57600080fdfe45524332303a207472616e7366657220616d6f756e7420657863656564732062616c616e636545524332303a207472616e7366657220616d6f756e74206578636565647320616c6c6f77616e636545524332303a2064656372656173656420616c6c6f77616e63652062656c6f77207a65726fa2646970667358221220400165546b6335fbc3fab77119debd90758cf1d326800769fe7bca4f5c449fde64736f6c63430008040033",
  "linkReferences": {},
  "deployedLinkReferences": {}
}